{
  "contractName": "ClaimAggregator",
  "abi": [
    {
      "inputs": [],
      "stateMutability": "nonpayable",
      "type": "constructor"
    },
    {
      "inputs": [
        {
          "internalType": "address",
          "name": "account",
          "type": "address"
        },
        {
          "internalType": "address[]",
          "name": "borrowables",
          "type": "address[]"
        }
      ],
      "name": "trackBorrows",
      "outputs": [],
      "stateMutability": "nonpayable",
      "type": "function"
    },
    {
      "inputs": [
        {
          "internalType": "address",
          "name": "account",
          "type": "address"
        },
        {
          "internalType": "address[]",
          "name": "farmingPools",
          "type": "address[]"
        }
      ],
      "name": "claims",
      "outputs": [
        {
          "internalType": "uint256",
          "name": "amount",
          "type": "uint256"
        }
      ],
      "stateMutability": "nonpayable",
      "type": "function"
    }
  ],
  "bytecode": "0x608060405234801561001057600080fd5b50610337806100206000396000f3fe608060405234801561001057600080fd5b50600436106100365760003560e01c806368188a4e1461003b5780639a3715ff14610050575b600080fd5b61004e610049366004610227565b610079565b005b61006361005e366004610227565b610121565b60405161007091906102f8565b60405180910390f35b60005b8181101561011b5782828281811061009057fe5b90506020020160208101906100a591906101ec565b73ffffffffffffffffffffffffffffffffffffffff1663b7f1118a856040518263ffffffff1660e01b81526004016100dd91906102d7565b600060405180830381600087803b1580156100f757600080fd5b505af115801561010b573d6000803e3d6000fd5b50506001909201915061007c9050565b50505050565b6000805b828110156101e45783838281811061013957fe5b905060200201602081019061014e91906101ec565b73ffffffffffffffffffffffffffffffffffffffff16637429d95a866040518263ffffffff1660e01b815260040161018691906102d7565b602060405180830381600087803b1580156101a057600080fd5b505af11580156101b4573d6000803e3d6000fd5b505050506040513d601f19601f820116820180604052508101906101d891906102bf565b90910190600101610125565b509392505050565b6000602082840312156101fd578081fd5b813573ffffffffffffffffffffffffffffffffffffffff81168114610220578182fd5b9392505050565b60008060006040848603121561023b578182fd5b833573ffffffffffffffffffffffffffffffffffffffff8116811461025e578283fd5b9250602084013567ffffffffffffffff8082111561027a578384fd5b81860187601f82011261028b578485fd5b803592508183111561029b578485fd5b87602080850283010111156102ae578485fd5b949760209095019650909450505050565b6000602082840312156102d0578081fd5b5051919050565b73ffffffffffffffffffffffffffffffffffffffff91909116815260200190565b9081526020019056fea264697066735822122086947b5f9c995669d733dfb8fd36fdfe382750dd137cd16c4d9160bb22385a8664736f6c63430006060033",
  "immutableReferences": {},
  "source": "pragma solidity =0.6.6;\r\npragma experimental ABIEncoderV2;\r\n\r\nimport \"./interfaces/IBorrowable.sol\";\r\nimport \"./interfaces/IFarmingPool.sol\";\r\n\r\ncontract ClaimAggregator {\r\n\r\n\tconstructor () public {}\r\n\t\r\n\tfunction trackBorrows(address account, address[] calldata borrowables) external {\r\n\t\tfor (uint i = 0; i < borrowables.length; i++) {\r\n\t\t\tIBorrowable(borrowables[i]).trackBorrow(account);\r\n\t\t}\r\n\t}\r\n\t\r\n\tfunction claims(address account, address[] calldata farmingPools) external returns (uint amount) {\r\n\t\tfor (uint i = 0; i < farmingPools.length; i++) {\r\n\t\t\tamount += IFarmingPool(farmingPools[i]).claimAccount(account);\r\n\t\t}\r\n\t}\r\n\r\n}",
  "sourcePath": "C:/Users/simor/Desktop/imx/contracts/ClaimAggregator.sol",
  "compiler": {
    "name": "solc",
    "version": "0.6.6+commit.6c089d02.Emscripten.clang"
  },
  "schemaVersion": "3.3.2",
  "updatedAt": "2021-04-23T20:42:09.617Z",
  "devdoc": {
    "methods": {}
  },
  "userdoc": {
    "methods": {}
  }
}