{
  "contractName": "ClaimAggregator",
  "abi": [
    {
      "inputs": [],
      "stateMutability": "nonpayable",
      "type": "constructor"
    },
    {
      "inputs": [
        {
          "internalType": "address",
          "name": "account",
          "type": "address"
        },
        {
          "internalType": "address[]",
          "name": "borrowables",
          "type": "address[]"
        }
      ],
      "name": "trackBorrows",
      "outputs": [],
      "stateMutability": "nonpayable",
      "type": "function"
    },
    {
      "inputs": [
        {
          "internalType": "address",
          "name": "account",
          "type": "address"
        },
        {
          "internalType": "address[]",
          "name": "farmingPools",
          "type": "address[]"
        }
      ],
      "name": "claims",
      "outputs": [
        {
          "internalType": "uint256",
          "name": "amount",
          "type": "uint256"
        }
      ],
      "stateMutability": "nonpayable",
      "type": "function"
    }
  ],
  "bytecode": "0x608060405234801561001057600080fd5b5061036f806100206000396000f3fe608060405234801561001057600080fd5b50600436106100365760003560e01c806368188a4e1461003b5780639a3715ff14610050575b600080fd5b61004e6100493660046101fc565b610079565b005b61006361005e3660046101fc565b610114565b60405161007091906102e9565b60405180910390f35b60005b815181101561010f5781818151811061009157fe5b602002602001015173ffffffffffffffffffffffffffffffffffffffff1663b7f1118a846040518263ffffffff1660e01b81526004016100d191906102c8565b600060405180830381600087803b1580156100eb57600080fd5b505af11580156100ff573d6000803e3d6000fd5b50506001909201915061007c9050565b505050565b6000805b82518110156101cb5782818151811061012d57fe5b602002602001015173ffffffffffffffffffffffffffffffffffffffff16637429d95a856040518263ffffffff1660e01b815260040161016d91906102c8565b602060405180830381600087803b15801561018757600080fd5b505af115801561019b573d6000803e3d6000fd5b505050506040513d601f19601f820116820180604052508101906101bf91906102b0565b90910190600101610118565b5092915050565b803573ffffffffffffffffffffffffffffffffffffffff811681146101f657600080fd5b92915050565b6000806040838503121561020e578182fd5b61021884846101d2565b915060208084013567ffffffffffffffff811115610234578283fd5b80850186601f820112610245578384fd5b8035915061025a61025583610319565b6102f2565b82815283810190828501858502840186018a1015610276578687fd5b8693505b848410156102a05761028c8a826101d2565b83526001939093019291850191850161027a565b5080955050505050509250929050565b6000602082840312156102c1578081fd5b5051919050565b73ffffffffffffffffffffffffffffffffffffffff91909116815260200190565b90815260200190565b60405181810167ffffffffffffffff8111828210171561031157600080fd5b604052919050565b600067ffffffffffffffff82111561032f578081fd5b506020908102019056fea26469706673582212202b65f1c95b6079056212e48bbf3172dd2f73807731e7c6ffa0c0655bd010f3da64736f6c63430006060033",
  "immutableReferences": {},
  "source": "pragma solidity =0.6.6;\r\npragma experimental ABIEncoderV2;\r\n\r\nimport \"./interfaces/IBorrowable.sol\";\r\nimport \"./interfaces/IFarmingPool.sol\";\r\n\r\ncontract ClaimAggregator {\r\n\r\n\tconstructor () public {}\r\n\t\r\n\tfunction trackBorrows(address account, address[] memory borrowables) public {\r\n\t\tfor (uint i = 0; i < borrowables.length; i++) {\r\n\t\t\tIBorrowable(borrowables[i]).trackBorrow(account);\r\n\t\t}\r\n\t}\r\n\t\r\n\tfunction claims(address account, address[] memory farmingPools) public returns (uint amount) {\r\n\t\tfor (uint i = 0; i < farmingPools.length; i++) {\r\n\t\t\tamount += IFarmingPool(farmingPools[i]).claimAccount(account);\r\n\t\t}\r\n\t}\r\n\r\n}",
  "sourcePath": "C:/Users/simor/Desktop/imx/contracts/ClaimAggregator.sol",
  "compiler": {
    "name": "solc",
    "version": "0.6.6+commit.6c089d02.Emscripten.clang"
  },
  "schemaVersion": "3.3.2",
  "updatedAt": "2021-03-19T17:59:25.608Z",
  "devdoc": {
    "methods": {}
  },
  "userdoc": {
    "methods": {}
  }
}