{
  "contractName": "DistributorHarness",
  "abi": [
    {
      "inputs": [
        {
          "internalType": "address",
          "name": "imx_",
          "type": "address"
        },
        {
          "internalType": "address",
          "name": "claimable_",
          "type": "address"
        }
      ],
      "stateMutability": "nonpayable",
      "type": "constructor"
    },
    {
      "inputs": [],
      "name": "claim",
      "outputs": [
        {
          "internalType": "uint256",
          "name": "credit",
          "type": "uint256"
        }
      ],
      "stateMutability": "nonpayable",
      "type": "function"
    },
    {
      "inputs": [],
      "name": "claimable",
      "outputs": [
        {
          "internalType": "address",
          "name": "",
          "type": "address"
        }
      ],
      "stateMutability": "view",
      "type": "function"
    },
    {
      "inputs": [],
      "name": "imx",
      "outputs": [
        {
          "internalType": "address",
          "name": "",
          "type": "address"
        }
      ],
      "stateMutability": "view",
      "type": "function"
    },
    {
      "inputs": [
        {
          "internalType": "address",
          "name": "",
          "type": "address"
        }
      ],
      "name": "recipients",
      "outputs": [
        {
          "internalType": "uint256",
          "name": "shares",
          "type": "uint256"
        },
        {
          "internalType": "uint256",
          "name": "lastShareIndex",
          "type": "uint256"
        },
        {
          "internalType": "uint256",
          "name": "credit",
          "type": "uint256"
        }
      ],
      "stateMutability": "view",
      "type": "function"
    },
    {
      "inputs": [],
      "name": "shareIndex",
      "outputs": [
        {
          "internalType": "uint256",
          "name": "",
          "type": "uint256"
        }
      ],
      "stateMutability": "view",
      "type": "function"
    },
    {
      "inputs": [],
      "name": "totalShares",
      "outputs": [
        {
          "internalType": "uint256",
          "name": "",
          "type": "uint256"
        }
      ],
      "stateMutability": "view",
      "type": "function"
    },
    {
      "inputs": [
        {
          "internalType": "address",
          "name": "account",
          "type": "address"
        }
      ],
      "name": "updateCredit",
      "outputs": [
        {
          "internalType": "uint256",
          "name": "credit",
          "type": "uint256"
        }
      ],
      "stateMutability": "nonpayable",
      "type": "function"
    },
    {
      "inputs": [],
      "name": "updateShareIndex",
      "outputs": [
        {
          "internalType": "uint256",
          "name": "_shareIndex",
          "type": "uint256"
        }
      ],
      "stateMutability": "nonpayable",
      "type": "function"
    },
    {
      "inputs": [
        {
          "internalType": "address",
          "name": "account",
          "type": "address"
        },
        {
          "internalType": "uint256",
          "name": "shares",
          "type": "uint256"
        }
      ],
      "name": "setRecipientShares",
      "outputs": [],
      "stateMutability": "nonpayable",
      "type": "function"
    },
    {
      "inputs": [
        {
          "internalType": "address",
          "name": "account",
          "type": "address"
        },
        {
          "internalType": "uint256",
          "name": "shares",
          "type": "uint256"
        }
      ],
      "name": "editRecipientHarness",
      "outputs": [],
      "stateMutability": "nonpayable",
      "type": "function"
    }
  ],
  "bytecode": "0x60c06040526003805460ff1916600117905534801561001d57600080fd5b50604051610a86380380610a868339818101604052604081101561004057600080fd5b5080516020909101516001600160601b0319606092831b8116608052911b1660a05260805160601c60a05160601c6109f1610095600039806104555280610527525080610228528061035452506109f16000f3fe608060405234801561001057600080fd5b50600436106100be5760003560e01c8063af38d75711610076578063b7034b581161005b578063b7034b5814610194578063c56ad1ad146101cd578063eb820312146101d5576100be565b8063af38d75714610184578063b260187d1461018c576100be565b806345c08718116100a757806345c087181461010e5780634e71d92d1461014157806359a6173f14610149576100be565b80630f08025f146100c35780633a98ef39146100f4575b600080fd5b6100cb610226565b6040805173ffffffffffffffffffffffffffffffffffffffff9092168252519081900360200190f35b6100fc61024a565b60408051918252519081900360200190f35b6100fc6004803603602081101561012457600080fd5b503573ffffffffffffffffffffffffffffffffffffffff16610250565b6100fc6102f4565b6101826004803603604081101561015f57600080fd5b5073ffffffffffffffffffffffffffffffffffffffff81351690602001356103de565b005b6100cb610453565b6100fc610477565b610182600480360360408110156101aa57600080fd5b5073ffffffffffffffffffffffffffffffffffffffff813516906020013561064d565b6100fc61065b565b610208600480360360208110156101eb57600080fd5b503573ffffffffffffffffffffffffffffffffffffffff16610661565b60408051938452602084019290925282820152519081900360600190f35b7f000000000000000000000000000000000000000000000000000000000000000081565b60015481565b60008061025b610477565b90508061026c5760009150506102ef565b73ffffffffffffffffffffffffffffffffffffffff831660009081526020819052604090208054600182015474010000000000000000000000000000000000000000916102d0916102c490869063ffffffff61068216565b9063ffffffff6106cd16565b816102d757fe5b60028301805460019094019490945504019081905590505b919050565b60006102ff33610250565b905080156103db573360008181526020818152604080832060020183905580517fa9059cbb000000000000000000000000000000000000000000000000000000008152600481019490945260248401859052517f000000000000000000000000000000000000000000000000000000000000000073ffffffffffffffffffffffffffffffffffffffff169363a9059cbb9360448083019493928390030190829087803b1580156103ae57600080fd5b505af11580156103c2573d6000803e3d6000fd5b505050506040513d60208110156103d857600080fd5b50505b90565b73ffffffffffffffffffffffffffffffffffffffff8216600090815260208190526040902080548281101561042a576001546104229082850363ffffffff61074016565b600155610443565b60015461043f9084830363ffffffff61068216565b6001555b5090815560025460019091015550565b7f000000000000000000000000000000000000000000000000000000000000000081565b60035460009060ff166104eb57604080517f08c379a000000000000000000000000000000000000000000000000000000000815260206004820152601660248201527f4469737472696275746f723a205245454e544552454400000000000000000000604482015290519081900360640190fd5b600380547fffffffffffffffffffffffffffffffffffffffffffffffffffffffffffffff00169055600154610523575060025461061f565b60007f000000000000000000000000000000000000000000000000000000000000000073ffffffffffffffffffffffffffffffffffffffff16634e71d92d6040518163ffffffff1660e01b8152600401602060405180830381600087803b15801561058d57600080fd5b505af11580156105a1573d6000803e3d6000fd5b505050506040513d60208110156105b757600080fd5b50519050806105ca57505060025461061f565b61061660025461060a6001546105fe74010000000000000000000000000000000000000000866106cd90919063ffffffff16565b9063ffffffff6107b416565b9063ffffffff61074016565b60028190559150505b600380547fffffffffffffffffffffffffffffffffffffffffffffffffffffffffffffff0016600117905590565b61065782826107f6565b5050565b60025481565b60006020819052908152604090208054600182015460029092015490919083565b60006106c483836040518060400160405280601f81526020017f536166654d6174683a207375627472616374696f6e20756e646572666c6f770081525061086a565b90505b92915050565b6000826106dc575060006106c7565b828202828482816106e957fe5b04146106c4576040517f08c379a000000000000000000000000000000000000000000000000000000000815260040180806020018281038252602181526020018061099b6021913960400191505060405180910390fd5b6000828201838110156106c457604080517f08c379a000000000000000000000000000000000000000000000000000000000815260206004820152601b60248201527f536166654d6174683a206164646974696f6e206f766572666c6f770000000000604482015290519081900360640190fd5b60006106c483836040518060400160405280601a81526020017f536166654d6174683a206469766973696f6e206279207a65726f00000000000081525061091b565b6107ff82610250565b5073ffffffffffffffffffffffffffffffffffffffff8216600090815260208190526040902080548281101561084c576001546108449082850363ffffffff61074016565b600155610865565b6001546108619084830363ffffffff61068216565b6001555b505550565b60008184841115610913576040517f08c379a00000000000000000000000000000000000000000000000000000000081526004018080602001828103825283818151815260200191508051906020019080838360005b838110156108d85781810151838201526020016108c0565b50505050905090810190601f1680156109055780820380516001836020036101000a031916815260200191505b509250505060405180910390fd5b505050900390565b60008183610984576040517f08c379a00000000000000000000000000000000000000000000000000000000081526020600482018181528351602484015283519092839260449091019190850190808383600083156108d85781810151838201526020016108c0565b50600083858161099057fe5b049594505050505056fe536166654d6174683a206d756c7469706c69636174696f6e206f766572666c6f77a26469706673582212206eedcd42586241104d4c11e77a70315b373f9dedefa3fbe718eca1281b43f0db64736f6c63430006060033",
  "immutableReferences": {
    "11": [
      {
        "length": 32,
        "start": 552
      },
      {
        "length": 32,
        "start": 852
      }
    ],
    "13": [
      {
        "length": 32,
        "start": 1109
      },
      {
        "length": 32,
        "start": 1319
      }
    ]
  },
  "source": "pragma solidity =0.6.6;\r\n\r\nimport \"../../contracts/Distributor.sol\";\r\n\r\ncontract DistributorHarness is Distributor {\r\n\tconstructor(\r\n\t\taddress imx_,\r\n\t\taddress claimable_\r\n\t) public Distributor(imx_, claimable_) {}\r\n\t\r\n\tfunction setRecipientShares(address account, uint shares) public virtual {\r\n\t\tRecipient storage recipient = recipients[account];\r\n\t\tuint prevShares = recipient.shares;\r\n\t\tif (prevShares < shares) totalShares = totalShares.add(shares - prevShares);\r\n\t\telse totalShares = totalShares.sub(prevShares - shares);\r\n\t\trecipient.shares = shares;\r\n\t\trecipient.lastShareIndex = shareIndex;\r\n\t}\r\n\t\r\n\tfunction editRecipientHarness(address account, uint shares) public virtual {\r\n\t\teditRecipientInternal(account, shares);\r\n\t}\r\n}",
  "sourcePath": "C:/Users/simor/Desktop/imx/contracts/test/DistributorHarness.sol",
  "compiler": {
    "name": "solc",
    "version": "0.6.6+commit.6c089d02.Emscripten.clang"
  },
  "schemaVersion": "3.3.2",
  "updatedAt": "2021-03-09T19:15:19.115Z",
  "devdoc": {
    "methods": {}
  },
  "userdoc": {
    "methods": {}
  }
}