{
  "contractName": "DistributorHarness",
  "abi": [
    {
      "inputs": [
        {
          "internalType": "address",
          "name": "imx_",
          "type": "address"
        },
        {
          "internalType": "address",
          "name": "claimable_",
          "type": "address"
        }
      ],
      "stateMutability": "nonpayable",
      "type": "constructor"
    },
    {
      "inputs": [],
      "name": "claim",
      "outputs": [
        {
          "internalType": "uint256",
          "name": "credit",
          "type": "uint256"
        }
      ],
      "stateMutability": "nonpayable",
      "type": "function"
    },
    {
      "inputs": [],
      "name": "claimable",
      "outputs": [
        {
          "internalType": "address",
          "name": "",
          "type": "address"
        }
      ],
      "stateMutability": "view",
      "type": "function"
    },
    {
      "inputs": [],
      "name": "imx",
      "outputs": [
        {
          "internalType": "address",
          "name": "",
          "type": "address"
        }
      ],
      "stateMutability": "view",
      "type": "function"
    },
    {
      "inputs": [
        {
          "internalType": "address",
          "name": "",
          "type": "address"
        }
      ],
      "name": "recipients",
      "outputs": [
        {
          "internalType": "uint256",
          "name": "shares",
          "type": "uint256"
        },
        {
          "internalType": "uint256",
          "name": "lastShareIndex",
          "type": "uint256"
        },
        {
          "internalType": "uint256",
          "name": "credit",
          "type": "uint256"
        }
      ],
      "stateMutability": "view",
      "type": "function"
    },
    {
      "inputs": [],
      "name": "shareIndex",
      "outputs": [
        {
          "internalType": "uint256",
          "name": "",
          "type": "uint256"
        }
      ],
      "stateMutability": "view",
      "type": "function"
    },
    {
      "inputs": [],
      "name": "totalShares",
      "outputs": [
        {
          "internalType": "uint256",
          "name": "",
          "type": "uint256"
        }
      ],
      "stateMutability": "view",
      "type": "function"
    },
    {
      "inputs": [
        {
          "internalType": "address",
          "name": "account",
          "type": "address"
        }
      ],
      "name": "updateCredit",
      "outputs": [
        {
          "internalType": "uint256",
          "name": "credit",
          "type": "uint256"
        }
      ],
      "stateMutability": "nonpayable",
      "type": "function"
    },
    {
      "inputs": [],
      "name": "updateShareIndex",
      "outputs": [
        {
          "internalType": "uint256",
          "name": "_shareIndex",
          "type": "uint256"
        }
      ],
      "stateMutability": "nonpayable",
      "type": "function"
    },
    {
      "inputs": [
        {
          "internalType": "address",
          "name": "account",
          "type": "address"
        },
        {
          "internalType": "uint256",
          "name": "shares",
          "type": "uint256"
        }
      ],
      "name": "setRecipientShares",
      "outputs": [],
      "stateMutability": "nonpayable",
      "type": "function"
    },
    {
      "inputs": [
        {
          "internalType": "address",
          "name": "account",
          "type": "address"
        },
        {
          "internalType": "uint256",
          "name": "shares",
          "type": "uint256"
        }
      ],
      "name": "editRecipientHarness",
      "outputs": [],
      "stateMutability": "nonpayable",
      "type": "function"
    }
  ],
  "bytecode": "0x60c06040526003805460ff1916600117905534801561001d57600080fd5b50604051610a9a380380610a9a8339818101604052604081101561004057600080fd5b5080516020909101516001600160601b0319606092831b8116608052911b1660a05260805160601c60a05160601c610a056100956000398061037b528061044d52508061022852806106dd5250610a056000f3fe608060405234801561001057600080fd5b50600436106100be5760003560e01c8063af38d75711610076578063b7034b581161005b578063b7034b5814610194578063c56ad1ad146101cd578063eb820312146101d5576100be565b8063af38d75714610184578063b260187d1461018c576100be565b806345c08718116100a757806345c087181461010e5780634e71d92d1461014157806359a6173f14610149576100be565b80630f08025f146100c35780633a98ef39146100f4575b600080fd5b6100cb610226565b6040805173ffffffffffffffffffffffffffffffffffffffff9092168252519081900360200190f35b6100fc61024a565b60408051918252519081900360200190f35b6100fc6004803603602081101561012457600080fd5b503573ffffffffffffffffffffffffffffffffffffffff16610250565b6100fc6102f4565b6101826004803603604081101561015f57600080fd5b5073ffffffffffffffffffffffffffffffffffffffff8135169060200135610304565b005b6100cb610379565b6100fc61039d565b610182600480360360408110156101aa57600080fd5b5073ffffffffffffffffffffffffffffffffffffffff8135169060200135610573565b6100fc610581565b610208600480360360208110156101eb57600080fd5b503573ffffffffffffffffffffffffffffffffffffffff16610587565b60408051938452602084019290925282820152519081900360600190f35b7f000000000000000000000000000000000000000000000000000000000000000081565b60015481565b60008061025b61039d565b90508061026c5760009150506102ef565b73ffffffffffffffffffffffffffffffffffffffff831660009081526020819052604090208054600182015474010000000000000000000000000000000000000000916102d0916102c490869063ffffffff6105a816565b9063ffffffff6105f316565b816102d757fe5b60028301805460019094019490945504019081905590505b919050565b60006102ff33610666565b905090565b73ffffffffffffffffffffffffffffffffffffffff82166000908152602081905260409020805482811015610350576001546103489082850363ffffffff61075416565b600155610369565b6001546103659084830363ffffffff6105a816565b6001555b5090815560025460019091015550565b7f000000000000000000000000000000000000000000000000000000000000000081565b60035460009060ff1661041157604080517f08c379a000000000000000000000000000000000000000000000000000000000815260206004820152601660248201527f4469737472696275746f723a205245454e544552454400000000000000000000604482015290519081900360640190fd5b600380547fffffffffffffffffffffffffffffffffffffffffffffffffffffffffffffff001690556001546104495750600254610545565b60007f000000000000000000000000000000000000000000000000000000000000000073ffffffffffffffffffffffffffffffffffffffff16634e71d92d6040518163ffffffff1660e01b8152600401602060405180830381600087803b1580156104b357600080fd5b505af11580156104c7573d6000803e3d6000fd5b505050506040513d60208110156104dd57600080fd5b50519050806104f0575050600254610545565b61053c60025461053060015461052474010000000000000000000000000000000000000000866105f390919063ffffffff16565b9063ffffffff6107c816565b9063ffffffff61075416565b60028190559150505b600380547fffffffffffffffffffffffffffffffffffffffffffffffffffffffffffffff0016600117905590565b61057d828261080a565b5050565b60025481565b60006020819052908152604090208054600182015460029092015490919083565b60006105ea83836040518060400160405280601f81526020017f536166654d6174683a207375627472616374696f6e20756e646572666c6f770081525061087e565b90505b92915050565b600082610602575060006105ed565b8282028284828161060f57fe5b04146105ea576040517f08c379a00000000000000000000000000000000000000000000000000000000081526004018080602001828103825260218152602001806109af6021913960400191505060405180910390fd5b600061067182610250565b905080156102ef5773ffffffffffffffffffffffffffffffffffffffff80831660008181526020818152604080832060020183905580517fa9059cbb000000000000000000000000000000000000000000000000000000008152600481019490945260248401869052517f00000000000000000000000000000000000000000000000000000000000000009094169363a9059cbb93604480820194918390030190829087803b15801561072357600080fd5b505af1158015610737573d6000803e3d6000fd5b505050506040513d602081101561074d57600080fd5b5050919050565b6000828201838110156105ea57604080517f08c379a000000000000000000000000000000000000000000000000000000000815260206004820152601b60248201527f536166654d6174683a206164646974696f6e206f766572666c6f770000000000604482015290519081900360640190fd5b60006105ea83836040518060400160405280601a81526020017f536166654d6174683a206469766973696f6e206279207a65726f00000000000081525061092f565b61081382610250565b5073ffffffffffffffffffffffffffffffffffffffff82166000908152602081905260409020805482811015610860576001546108589082850363ffffffff61075416565b600155610879565b6001546108759084830363ffffffff6105a816565b6001555b505550565b60008184841115610927576040517f08c379a00000000000000000000000000000000000000000000000000000000081526004018080602001828103825283818151815260200191508051906020019080838360005b838110156108ec5781810151838201526020016108d4565b50505050905090810190601f1680156109195780820380516001836020036101000a031916815260200191505b509250505060405180910390fd5b505050900390565b60008183610998576040517f08c379a00000000000000000000000000000000000000000000000000000000081526020600482018181528351602484015283519092839260449091019190850190808383600083156108ec5781810151838201526020016108d4565b5060008385816109a457fe5b049594505050505056fe536166654d6174683a206d756c7469706c69636174696f6e206f766572666c6f77a2646970667358221220a26b102e1c9cf6435d3f6d3022a15fd8b6acd76bff2cbba14b656b475a1b697e64736f6c63430006060033",
  "immutableReferences": {
    "11": [
      {
        "length": 32,
        "start": 552
      },
      {
        "length": 32,
        "start": 1757
      }
    ],
    "13": [
      {
        "length": 32,
        "start": 891
      },
      {
        "length": 32,
        "start": 1101
      }
    ]
  },
  "source": "pragma solidity =0.6.6;\r\n\r\nimport \"../../contracts/Distributor.sol\";\r\n\r\ncontract DistributorHarness is Distributor {\r\n\tconstructor(\r\n\t\taddress imx_,\r\n\t\taddress claimable_\r\n\t) public Distributor(imx_, claimable_) {}\r\n\t\r\n\tfunction setRecipientShares(address account, uint shares) public virtual {\r\n\t\tRecipient storage recipient = recipients[account];\r\n\t\tuint prevShares = recipient.shares;\r\n\t\tif (prevShares < shares) totalShares = totalShares.add(shares - prevShares);\r\n\t\telse totalShares = totalShares.sub(prevShares - shares);\r\n\t\trecipient.shares = shares;\r\n\t\trecipient.lastShareIndex = shareIndex;\r\n\t}\r\n\t\r\n\tfunction editRecipientHarness(address account, uint shares) public virtual {\r\n\t\teditRecipientInternal(account, shares);\r\n\t}\r\n}",
  "sourcePath": "C:/Users/simor/Desktop/imx/contracts/test/DistributorHarness.sol",
  "compiler": {
    "name": "solc",
    "version": "0.6.6+commit.6c089d02.Emscripten.clang"
  },
  "schemaVersion": "3.3.2",
  "updatedAt": "2021-03-14T20:48:45.416Z",
  "devdoc": {
    "methods": {}
  },
  "userdoc": {
    "methods": {}
  }
}