{
  "contractName": "FarmingPoolHarness",
  "abi": [
    {
      "inputs": [
        {
          "internalType": "address",
          "name": "imx_",
          "type": "address"
        },
        {
          "internalType": "address",
          "name": "claimable_",
          "type": "address"
        },
        {
          "internalType": "address",
          "name": "borrowable_",
          "type": "address"
        },
        {
          "internalType": "address",
          "name": "vester_",
          "type": "address"
        }
      ],
      "stateMutability": "nonpayable",
      "type": "constructor"
    },
    {
      "inputs": [],
      "name": "advance",
      "outputs": [],
      "stateMutability": "nonpayable",
      "type": "function"
    },
    {
      "inputs": [],
      "name": "borrowable",
      "outputs": [
        {
          "internalType": "address",
          "name": "",
          "type": "address"
        }
      ],
      "stateMutability": "view",
      "type": "function"
    },
    {
      "inputs": [],
      "name": "claim",
      "outputs": [
        {
          "internalType": "uint256",
          "name": "amount",
          "type": "uint256"
        }
      ],
      "stateMutability": "nonpayable",
      "type": "function"
    },
    {
      "inputs": [],
      "name": "claimable",
      "outputs": [
        {
          "internalType": "address",
          "name": "",
          "type": "address"
        }
      ],
      "stateMutability": "view",
      "type": "function"
    },
    {
      "inputs": [],
      "name": "epochAmount",
      "outputs": [
        {
          "internalType": "uint256",
          "name": "",
          "type": "uint256"
        }
      ],
      "stateMutability": "view",
      "type": "function"
    },
    {
      "inputs": [],
      "name": "epochBegin",
      "outputs": [
        {
          "internalType": "uint256",
          "name": "",
          "type": "uint256"
        }
      ],
      "stateMutability": "view",
      "type": "function"
    },
    {
      "inputs": [],
      "name": "imx",
      "outputs": [
        {
          "internalType": "address",
          "name": "",
          "type": "address"
        }
      ],
      "stateMutability": "view",
      "type": "function"
    },
    {
      "inputs": [],
      "name": "lastUpdate",
      "outputs": [
        {
          "internalType": "uint256",
          "name": "",
          "type": "uint256"
        }
      ],
      "stateMutability": "view",
      "type": "function"
    },
    {
      "inputs": [
        {
          "internalType": "address",
          "name": "",
          "type": "address"
        }
      ],
      "name": "recipients",
      "outputs": [
        {
          "internalType": "uint256",
          "name": "shares",
          "type": "uint256"
        },
        {
          "internalType": "uint256",
          "name": "lastShareIndex",
          "type": "uint256"
        },
        {
          "internalType": "uint256",
          "name": "credit",
          "type": "uint256"
        }
      ],
      "stateMutability": "view",
      "type": "function"
    },
    {
      "inputs": [],
      "name": "segmentLength",
      "outputs": [
        {
          "internalType": "uint256",
          "name": "",
          "type": "uint256"
        }
      ],
      "stateMutability": "view",
      "type": "function"
    },
    {
      "inputs": [],
      "name": "shareIndex",
      "outputs": [
        {
          "internalType": "uint256",
          "name": "",
          "type": "uint256"
        }
      ],
      "stateMutability": "view",
      "type": "function"
    },
    {
      "inputs": [],
      "name": "totalShares",
      "outputs": [
        {
          "internalType": "uint256",
          "name": "",
          "type": "uint256"
        }
      ],
      "stateMutability": "view",
      "type": "function"
    },
    {
      "inputs": [
        {
          "internalType": "address",
          "name": "borrower",
          "type": "address"
        },
        {
          "internalType": "uint256",
          "name": "borrowBalance",
          "type": "uint256"
        },
        {
          "internalType": "uint256",
          "name": "borrowIndex",
          "type": "uint256"
        }
      ],
      "name": "trackBorrow",
      "outputs": [],
      "stateMutability": "nonpayable",
      "type": "function"
    },
    {
      "inputs": [
        {
          "internalType": "address",
          "name": "account",
          "type": "address"
        }
      ],
      "name": "updateCredit",
      "outputs": [
        {
          "internalType": "uint256",
          "name": "credit",
          "type": "uint256"
        }
      ],
      "stateMutability": "nonpayable",
      "type": "function"
    },
    {
      "inputs": [],
      "name": "updateShareIndex",
      "outputs": [
        {
          "internalType": "uint256",
          "name": "_shareIndex",
          "type": "uint256"
        }
      ],
      "stateMutability": "nonpayable",
      "type": "function"
    },
    {
      "inputs": [],
      "name": "vestingBegin",
      "outputs": [
        {
          "internalType": "uint256",
          "name": "",
          "type": "uint256"
        }
      ],
      "stateMutability": "view",
      "type": "function"
    },
    {
      "inputs": [],
      "name": "getBlockTimestamp",
      "outputs": [
        {
          "internalType": "uint256",
          "name": "",
          "type": "uint256"
        }
      ],
      "stateMutability": "view",
      "type": "function"
    },
    {
      "inputs": [
        {
          "internalType": "uint256",
          "name": "blockTimestamp",
          "type": "uint256"
        }
      ],
      "name": "setBlockTimestamp",
      "outputs": [],
      "stateMutability": "nonpayable",
      "type": "function"
    }
  ],
  "bytecode": "0x6101206040526003805460ff1916600117905534801561001e57600080fd5b50604051610fc1380380610fc18339818101604052608081101561004157600080fd5b5080516020808301516040808501516060958601516001600160601b031986881b811660805284881b811660a0529682901b90961660c052815163e29bc68b60e01b8152915194959294909386928692869286926000926001600160a01b0385169263e29bc68b9260048082019391829003018186803b1580156100c457600080fd5b505afa1580156100d8573d6000803e3d6000fd5b505050506040513d60208110156100ee57600080fd5b505160e08190526040805163716b438560e11b815290519192506001600160a01b0384169163e2d6870a91600480820192602092909190829003018186803b15801561013957600080fd5b505afa15801561014d573d6000803e3d6000fd5b505050506040513d602081101561016357600080fd5b5051604080516384a1931f60e01b8152905183916001600160a01b038616916384a1931f91600480820192602092909190829003018186803b1580156101a857600080fd5b505afa1580156101bc573d6000803e3d6000fd5b505050506040513d60208110156101d257600080fd5b505103816101dc57fe5b046101005250505050505050505060805160601c60a05160601c60c05160601c60e05161010051610d5d610264600039806104ee52806105305280610572528061060b5280610762528061086552508061063a528061072752806108425250806102e0528061065e5250806104a152806107965250806103af5280610ac35250610d5d6000f3fe608060405234801561001057600080fd5b50600436106101365760003560e01c8063c0463711116100b2578063e0abdf6611610081578063e99a6ac711610066578063e99a6ac714610267578063ea105ac71461026f578063eb8203121461027757610136565b8063e0abdf6614610242578063e29bc68b1461025f57610136565b8063c046371114610222578063c56ad1ad1461022a578063d013666e14610232578063d01b67171461023a57610136565b806345c0871811610109578063796b89b9116100ee578063796b89b91461020a578063af38d75714610212578063b260187d1461021a57610136565b806345c08718146101cf5780634e71d92d1461020257610136565b806305285d7f1461013b5780630f08025f1461017c5780632f5ee99b146101ad5780633a98ef39146101c7575b600080fd5b61017a6004803603606081101561015157600080fd5b5073ffffffffffffffffffffffffffffffffffffffff81351690602081013590604001356102c8565b005b6101846103ad565b6040805173ffffffffffffffffffffffffffffffffffffffff9092168252519081900360200190f35b6101b56103d1565b60408051918252519081900360200190f35b6101b56103d7565b6101b5600480360360208110156101e557600080fd5b503573ffffffffffffffffffffffffffffffffffffffff166103dd565b6101b5610481565b6101b5610499565b61018461049f565b6101b56104c3565b6101b56105fd565b6101b5610603565b6101b5610609565b6101b561062d565b61017a6004803603602081101561025857600080fd5b5035610633565b6101b5610638565b61018461065c565b61017a610680565b6102aa6004803603602081101561028d57600080fd5b503573ffffffffffffffffffffffffffffffffffffffff166108ce565b60408051938452602084019290925282820152519081900360600190f35b3373ffffffffffffffffffffffffffffffffffffffff7f0000000000000000000000000000000000000000000000000000000000000000161461036c57604080517f08c379a000000000000000000000000000000000000000000000000000000000815260206004820152601960248201527f4661726d696e67506f6f6c3a20554e415554484f52495a454400000000000000604482015290519081900360640190fd5b600061039b8261038f856c0100000000000000000000000063ffffffff6108ef16565b9063ffffffff61096b16565b90506103a784826109ad565b50505050565b7f000000000000000000000000000000000000000000000000000000000000000081565b60045481565b60015481565b6000806103e86104c3565b9050806103f957600091505061047c565b73ffffffffffffffffffffffffffffffffffffffff8316600090815260208190526040902080546001820154740100000000000000000000000000000000000000009161045d9161045190869063ffffffff610a2116565b9063ffffffff6108ef16565b8161046457fe5b60028301805460019094019490945504019081905590505b919050565b600061048b610680565b610493610a63565b90505b90565b60075490565b7f000000000000000000000000000000000000000000000000000000000000000081565b6000600154600014156104d95750600254610496565b6004546104e95750600254610496565b6004547f0000000000000000000000000000000000000000000000000000000000000000016000610518610499565b905060006105268284610b4c565b60065490915081037f000000000000000000000000000000000000000000000000000000000000000081111561055857fe5b8061056b57600254945050505050610496565b60006105a67f000000000000000000000000000000000000000000000000000000000000000061038f846005546108ef90919063ffffffff16565b90506105e86002546105dc60015461038f74010000000000000000000000000000000000000000866108ef90919063ffffffff16565b9063ffffffff610b6216565b60028190556006939093555090935050505090565b60065481565b60025481565b7f000000000000000000000000000000000000000000000000000000000000000081565b60055481565b600755565b7f000000000000000000000000000000000000000000000000000000000000000081565b7f000000000000000000000000000000000000000000000000000000000000000081565b60035460ff166106f157604080517f08c379a000000000000000000000000000000000000000000000000000000000815260206004820152601660248201527f4469737472696275746f723a205245454e544552454400000000000000000000604482015290519081900360640190fd5b600380547fffffffffffffffffffffffffffffffffffffffffffffffffffffffffffffff001690556000610723610499565b90507f000000000000000000000000000000000000000000000000000000000000000081101561075357506108a1565b600454801580159061078657507f0000000000000000000000000000000000000000000000000000000000000000810182105b156107925750506108a1565b60007f000000000000000000000000000000000000000000000000000000000000000073ffffffffffffffffffffffffffffffffffffffff16634e71d92d6040518163ffffffff1660e01b8152600401602060405180830381600087803b1580156107fc57600080fd5b505af1158015610810573d6000803e3d6000fd5b505050506040513d602081101561082657600080fd5b5051905080610837575050506108a1565b61083f6104c3565b507f000000000000000000000000000000000000000000000000000000000000000083037f0000000000000000000000000000000000000000000000000000000000000000818161088c57fe5b06909303600481905560059190915560065550505b600380547fffffffffffffffffffffffffffffffffffffffffffffffffffffffffffffff00166001179055565b60006020819052908152604090208054600182015460029092015490919083565b6000826108fe57506000610965565b8282028284828161090b57fe5b0414610962576040517f08c379a0000000000000000000000000000000000000000000000000000000008152600401808060200182810382526021815260200180610d076021913960400191505060405180910390fd5b90505b92915050565b600061096283836040518060400160405280601a81526020017f536166654d6174683a206469766973696f6e206279207a65726f000000000000815250610bd6565b6109b6826103dd565b5073ffffffffffffffffffffffffffffffffffffffff82166000908152602081905260409020805482811015610a03576001546109fb9082850363ffffffff610b6216565b600155610a1c565b600154610a189084830363ffffffff610a2116565b6001555b505550565b600061096283836040518060400160405280601f81526020017f536166654d6174683a207375627472616374696f6e20756e646572666c6f7700815250610c92565b6000610a6e336103dd565b90508015610496573360008181526020818152604080832060020183905580517fa9059cbb000000000000000000000000000000000000000000000000000000008152600481019490945260248401859052517f000000000000000000000000000000000000000000000000000000000000000073ffffffffffffffffffffffffffffffffffffffff169363a9059cbb9360448083019493928390030190829087803b158015610b1d57600080fd5b505af1158015610b31573d6000803e3d6000fd5b505050506040513d6020811015610b4757600080fd5b505090565b6000818310610b5b5781610962565b5090919050565b60008282018381101561096257604080517f08c379a000000000000000000000000000000000000000000000000000000000815260206004820152601b60248201527f536166654d6174683a206164646974696f6e206f766572666c6f770000000000604482015290519081900360640190fd5b60008183610c7c576040517f08c379a00000000000000000000000000000000000000000000000000000000081526004018080602001828103825283818151815260200191508051906020019080838360005b83811015610c41578181015183820152602001610c29565b50505050905090810190601f168015610c6e5780820380516001836020036101000a031916815260200191505b509250505060405180910390fd5b506000838581610c8857fe5b0495945050505050565b60008184841115610cfe576040517f08c379a0000000000000000000000000000000000000000000000000000000008152602060048201818152835160248401528351909283926044909101919085019080838360008315610c41578181015183820152602001610c29565b50505090039056fe536166654d6174683a206d756c7469706c69636174696f6e206f766572666c6f77a26469706673582212209dbcdbd979805d72f158cc6a5871d6f987b5a85be232bdbef3e76287c322c70164736f6c63430006060033",
  "immutableReferences": {
    "11": [
      {
        "length": 32,
        "start": 943
      },
      {
        "length": 32,
        "start": 2755
      }
    ],
    "13": [
      {
        "length": 32,
        "start": 1185
      },
      {
        "length": 32,
        "start": 1942
      }
    ],
    "267": [
      {
        "length": 32,
        "start": 736
      },
      {
        "length": 32,
        "start": 1630
      }
    ],
    "269": [
      {
        "length": 32,
        "start": 1594
      },
      {
        "length": 32,
        "start": 1831
      },
      {
        "length": 32,
        "start": 2114
      }
    ],
    "271": [
      {
        "length": 32,
        "start": 1262
      },
      {
        "length": 32,
        "start": 1328
      },
      {
        "length": 32,
        "start": 1394
      },
      {
        "length": 32,
        "start": 1547
      },
      {
        "length": 32,
        "start": 1890
      },
      {
        "length": 32,
        "start": 2149
      }
    ]
  },
  "source": "pragma solidity =0.6.6;\r\n\r\nimport \"../../contracts/FarmingPool.sol\";\r\n\r\ncontract FarmingPoolHarness is FarmingPool {\r\n\t\r\n\tconstructor(\r\n\t\taddress imx_,\r\n\t\taddress claimable_,\r\n\t\taddress borrowable_,\r\n\t\taddress vester_\r\n\t) public FarmingPool(imx_, claimable_, borrowable_, vester_) {}\r\n\t\r\n\t\r\n\tuint _blockTimestamp;\r\n\tfunction getBlockTimestamp() public virtual override view returns (uint) {\r\n\t\treturn _blockTimestamp;\r\n\t}\r\n\tfunction setBlockTimestamp(uint blockTimestamp) public {\r\n\t\t_blockTimestamp = blockTimestamp;\r\n\t}\r\n\t\r\n}",
  "sourcePath": "C:/Users/simor/Desktop/imx/contracts/test/FarmingPoolHarness.sol",
  "compiler": {
    "name": "solc",
    "version": "0.6.6+commit.6c089d02.Emscripten.clang"
  },
  "schemaVersion": "3.3.2",
  "updatedAt": "2021-03-09T19:15:19.116Z",
  "devdoc": {
    "methods": {}
  },
  "userdoc": {
    "methods": {}
  }
}