{
  "contractName": "FarmingPool",
  "abi": [
    {
      "inputs": [
        {
          "internalType": "address",
          "name": "imx_",
          "type": "address"
        },
        {
          "internalType": "address",
          "name": "claimable_",
          "type": "address"
        },
        {
          "internalType": "address",
          "name": "borrowable_",
          "type": "address"
        },
        {
          "internalType": "address",
          "name": "vester_",
          "type": "address"
        }
      ],
      "stateMutability": "nonpayable",
      "type": "constructor"
    },
    {
      "inputs": [],
      "name": "borrowable",
      "outputs": [
        {
          "internalType": "address",
          "name": "",
          "type": "address"
        }
      ],
      "stateMutability": "view",
      "type": "function"
    },
    {
      "inputs": [],
      "name": "claimable",
      "outputs": [
        {
          "internalType": "address",
          "name": "",
          "type": "address"
        }
      ],
      "stateMutability": "view",
      "type": "function"
    },
    {
      "inputs": [],
      "name": "epochAmount",
      "outputs": [
        {
          "internalType": "uint256",
          "name": "",
          "type": "uint256"
        }
      ],
      "stateMutability": "view",
      "type": "function"
    },
    {
      "inputs": [],
      "name": "epochBegin",
      "outputs": [
        {
          "internalType": "uint256",
          "name": "",
          "type": "uint256"
        }
      ],
      "stateMutability": "view",
      "type": "function"
    },
    {
      "inputs": [],
      "name": "imx",
      "outputs": [
        {
          "internalType": "address",
          "name": "",
          "type": "address"
        }
      ],
      "stateMutability": "view",
      "type": "function"
    },
    {
      "inputs": [],
      "name": "lastUpdate",
      "outputs": [
        {
          "internalType": "uint256",
          "name": "",
          "type": "uint256"
        }
      ],
      "stateMutability": "view",
      "type": "function"
    },
    {
      "inputs": [
        {
          "internalType": "address",
          "name": "",
          "type": "address"
        }
      ],
      "name": "recipients",
      "outputs": [
        {
          "internalType": "uint256",
          "name": "shares",
          "type": "uint256"
        },
        {
          "internalType": "uint256",
          "name": "lastShareIndex",
          "type": "uint256"
        },
        {
          "internalType": "uint256",
          "name": "credit",
          "type": "uint256"
        }
      ],
      "stateMutability": "view",
      "type": "function"
    },
    {
      "inputs": [],
      "name": "segmentLength",
      "outputs": [
        {
          "internalType": "uint256",
          "name": "",
          "type": "uint256"
        }
      ],
      "stateMutability": "view",
      "type": "function"
    },
    {
      "inputs": [],
      "name": "shareIndex",
      "outputs": [
        {
          "internalType": "uint256",
          "name": "",
          "type": "uint256"
        }
      ],
      "stateMutability": "view",
      "type": "function"
    },
    {
      "inputs": [],
      "name": "totalShares",
      "outputs": [
        {
          "internalType": "uint256",
          "name": "",
          "type": "uint256"
        }
      ],
      "stateMutability": "view",
      "type": "function"
    },
    {
      "inputs": [
        {
          "internalType": "address",
          "name": "account",
          "type": "address"
        }
      ],
      "name": "updateCredit",
      "outputs": [
        {
          "internalType": "uint256",
          "name": "credit",
          "type": "uint256"
        }
      ],
      "stateMutability": "nonpayable",
      "type": "function"
    },
    {
      "inputs": [],
      "name": "vestingBegin",
      "outputs": [
        {
          "internalType": "uint256",
          "name": "",
          "type": "uint256"
        }
      ],
      "stateMutability": "view",
      "type": "function"
    },
    {
      "inputs": [],
      "name": "updateShareIndex",
      "outputs": [
        {
          "internalType": "uint256",
          "name": "_shareIndex",
          "type": "uint256"
        }
      ],
      "stateMutability": "nonpayable",
      "type": "function"
    },
    {
      "inputs": [],
      "name": "advance",
      "outputs": [],
      "stateMutability": "nonpayable",
      "type": "function"
    },
    {
      "inputs": [],
      "name": "claim",
      "outputs": [
        {
          "internalType": "uint256",
          "name": "amount",
          "type": "uint256"
        }
      ],
      "stateMutability": "nonpayable",
      "type": "function"
    },
    {
      "inputs": [
        {
          "internalType": "address",
          "name": "borrower",
          "type": "address"
        },
        {
          "internalType": "uint256",
          "name": "borrowBalance",
          "type": "uint256"
        },
        {
          "internalType": "uint256",
          "name": "borrowIndex",
          "type": "uint256"
        }
      ],
      "name": "trackBorrow",
      "outputs": [],
      "stateMutability": "nonpayable",
      "type": "function"
    },
    {
      "inputs": [],
      "name": "getBlockTimestamp",
      "outputs": [
        {
          "internalType": "uint256",
          "name": "",
          "type": "uint256"
        }
      ],
      "stateMutability": "view",
      "type": "function"
    }
  ],
  "bytecode": "0x6101206040526003805460ff1916600117905534801561001e57600080fd5b50604051610f78380380610f788339818101604052608081101561004157600080fd5b5080516020808301516040808501516060958601516001600160601b031986881b811660805284881b811660a0529682901b90961660c052815163e29bc68b60e01b815291519495929490936000926001600160a01b0385169263e29bc68b92600480840193919291829003018186803b1580156100be57600080fd5b505afa1580156100d2573d6000803e3d6000fd5b505050506040513d60208110156100e857600080fd5b505160e08190526040805163716b438560e11b815290519192506001600160a01b0384169163e2d6870a91600480820192602092909190829003018186803b15801561013357600080fd5b505afa158015610147573d6000803e3d6000fd5b505050506040513d602081101561015d57600080fd5b5051604080516384a1931f60e01b8152905183916001600160a01b038616916384a1931f91600480820192602092909190829003018186803b1580156101a257600080fd5b505afa1580156101b6573d6000803e3d6000fd5b505050506040513d60208110156101cc57600080fd5b505103816101d657fe5b0461010052505050505060805160601c60a05160601c60c05160601c60e05161010051610d1e61025a600039806104b452806104f6528061053852806105d1528061072352806108265250806105fb52806106e852806108035250806102a8528061061f52508061046752806107575250806103775280610a845250610d1e6000f3fe608060405234801561001057600080fd5b506004361061011b5760003560e01c8063b260187d116100b2578063d01b671711610081578063e99a6ac711610066578063e99a6ac71461022f578063ea105ac714610237578063eb8203121461023f5761011b565b8063d01b67171461021f578063e29bc68b146102275761011b565b8063b260187d146101ff578063c046371114610207578063c56ad1ad1461020f578063d013666e146102175761011b565b806345c08718116100ee57806345c08718146101b45780634e71d92d146101e7578063796b89b9146101ef578063af38d757146101f75761011b565b806305285d7f146101205780630f08025f146101615780632f5ee99b146101925780633a98ef39146101ac575b600080fd5b61015f6004803603606081101561013657600080fd5b5073ffffffffffffffffffffffffffffffffffffffff8135169060208101359060400135610290565b005b610169610375565b6040805173ffffffffffffffffffffffffffffffffffffffff9092168252519081900360200190f35b61019a610399565b60408051918252519081900360200190f35b61019a61039f565b61019a600480360360208110156101ca57600080fd5b503573ffffffffffffffffffffffffffffffffffffffff166103a5565b61019a610449565b61019a610461565b610169610465565b61019a610489565b61019a6105c3565b61019a6105c9565b61019a6105cf565b61019a6105f3565b61019a6105f9565b61016961061d565b61015f610641565b6102726004803603602081101561025557600080fd5b503573ffffffffffffffffffffffffffffffffffffffff1661088f565b60408051938452602084019290925282820152519081900360600190f35b3373ffffffffffffffffffffffffffffffffffffffff7f0000000000000000000000000000000000000000000000000000000000000000161461033457604080517f08c379a000000000000000000000000000000000000000000000000000000000815260206004820152601960248201527f4661726d696e67506f6f6c3a20554e415554484f52495a454400000000000000604482015290519081900360640190fd5b600061036382610357856c0100000000000000000000000063ffffffff6108b016565b9063ffffffff61092c16565b905061036f848261096e565b50505050565b7f000000000000000000000000000000000000000000000000000000000000000081565b60045481565b60015481565b6000806103b0610489565b9050806103c1576000915050610444565b73ffffffffffffffffffffffffffffffffffffffff831660009081526020819052604090208054600182015474010000000000000000000000000000000000000000916104259161041990869063ffffffff6109e216565b9063ffffffff6108b016565b8161042c57fe5b60028301805460019094019490945504019081905590505b919050565b6000610453610641565b61045b610a24565b90505b90565b4290565b7f000000000000000000000000000000000000000000000000000000000000000081565b60006001546000141561049f575060025461045e565b6004546104af575060025461045e565b6004547f00000000000000000000000000000000000000000000000000000000000000000160006104de610461565b905060006104ec8284610b0d565b60065490915081037f000000000000000000000000000000000000000000000000000000000000000081111561051e57fe5b806105315760025494505050505061045e565b600061056c7f0000000000000000000000000000000000000000000000000000000000000000610357846005546108b090919063ffffffff16565b90506105ae6002546105a260015461035774010000000000000000000000000000000000000000866108b090919063ffffffff16565b9063ffffffff610b2316565b60028190556006939093555090935050505090565b60065481565b60025481565b7f000000000000000000000000000000000000000000000000000000000000000081565b60055481565b7f000000000000000000000000000000000000000000000000000000000000000081565b7f000000000000000000000000000000000000000000000000000000000000000081565b60035460ff166106b257604080517f08c379a000000000000000000000000000000000000000000000000000000000815260206004820152601660248201527f4469737472696275746f723a205245454e544552454400000000000000000000604482015290519081900360640190fd5b600380547fffffffffffffffffffffffffffffffffffffffffffffffffffffffffffffff0016905560006106e4610461565b90507f00000000000000000000000000000000000000000000000000000000000000008110156107145750610862565b600454801580159061074757507f0000000000000000000000000000000000000000000000000000000000000000810182105b15610753575050610862565b60007f000000000000000000000000000000000000000000000000000000000000000073ffffffffffffffffffffffffffffffffffffffff16634e71d92d6040518163ffffffff1660e01b8152600401602060405180830381600087803b1580156107bd57600080fd5b505af11580156107d1573d6000803e3d6000fd5b505050506040513d60208110156107e757600080fd5b50519050806107f857505050610862565b610800610489565b507f000000000000000000000000000000000000000000000000000000000000000083037f0000000000000000000000000000000000000000000000000000000000000000818161084d57fe5b06909303600481905560059190915560065550505b600380547fffffffffffffffffffffffffffffffffffffffffffffffffffffffffffffff00166001179055565b60006020819052908152604090208054600182015460029092015490919083565b6000826108bf57506000610926565b828202828482816108cc57fe5b0414610923576040517f08c379a0000000000000000000000000000000000000000000000000000000008152600401808060200182810382526021815260200180610cc86021913960400191505060405180910390fd5b90505b92915050565b600061092383836040518060400160405280601a81526020017f536166654d6174683a206469766973696f6e206279207a65726f000000000000815250610b97565b610977826103a5565b5073ffffffffffffffffffffffffffffffffffffffff821660009081526020819052604090208054828110156109c4576001546109bc9082850363ffffffff610b2316565b6001556109dd565b6001546109d99084830363ffffffff6109e216565b6001555b505550565b600061092383836040518060400160405280601f81526020017f536166654d6174683a207375627472616374696f6e20756e646572666c6f7700815250610c53565b6000610a2f336103a5565b9050801561045e573360008181526020818152604080832060020183905580517fa9059cbb000000000000000000000000000000000000000000000000000000008152600481019490945260248401859052517f000000000000000000000000000000000000000000000000000000000000000073ffffffffffffffffffffffffffffffffffffffff169363a9059cbb9360448083019493928390030190829087803b158015610ade57600080fd5b505af1158015610af2573d6000803e3d6000fd5b505050506040513d6020811015610b0857600080fd5b505090565b6000818310610b1c5781610923565b5090919050565b60008282018381101561092357604080517f08c379a000000000000000000000000000000000000000000000000000000000815260206004820152601b60248201527f536166654d6174683a206164646974696f6e206f766572666c6f770000000000604482015290519081900360640190fd5b60008183610c3d576040517f08c379a00000000000000000000000000000000000000000000000000000000081526004018080602001828103825283818151815260200191508051906020019080838360005b83811015610c02578181015183820152602001610bea565b50505050905090810190601f168015610c2f5780820380516001836020036101000a031916815260200191505b509250505060405180910390fd5b506000838581610c4957fe5b0495945050505050565b60008184841115610cbf576040517f08c379a0000000000000000000000000000000000000000000000000000000008152602060048201818152835160248401528351909283926044909101919085019080838360008315610c02578181015183820152602001610bea565b50505090039056fe536166654d6174683a206d756c7469706c69636174696f6e206f766572666c6f77a2646970667358221220fec7a47c70a3a04b90c38dc966648062eedfd968054a4e6919a9e1660f10947964736f6c63430006060033",
  "immutableReferences": {
    "11": [
      {
        "length": 32,
        "start": 887
      },
      {
        "length": 32,
        "start": 2692
      }
    ],
    "13": [
      {
        "length": 32,
        "start": 1127
      },
      {
        "length": 32,
        "start": 1879
      }
    ],
    "267": [
      {
        "length": 32,
        "start": 680
      },
      {
        "length": 32,
        "start": 1567
      }
    ],
    "269": [
      {
        "length": 32,
        "start": 1531
      },
      {
        "length": 32,
        "start": 1768
      },
      {
        "length": 32,
        "start": 2051
      }
    ],
    "271": [
      {
        "length": 32,
        "start": 1204
      },
      {
        "length": 32,
        "start": 1270
      },
      {
        "length": 32,
        "start": 1336
      },
      {
        "length": 32,
        "start": 1489
      },
      {
        "length": 32,
        "start": 1827
      },
      {
        "length": 32,
        "start": 2086
      }
    ]
  },
  "source": "pragma solidity =0.6.6;\r\n\r\nimport \"./Distributor.sol\";\r\nimport \"./interfaces/IBorrowTracker.sol\";\r\nimport \"./interfaces/IVester.sol\";\r\nimport \"./libraries/Math.sol\";\r\n\r\n// ASSUMTPIONS:\r\n// - advance is called at least once for each epoch\r\n// - farmingPool shares edits are effective starting from the next epoch\r\n\r\ncontract FarmingPool is IBorrowTracker, Distributor {\r\n\r\n\taddress public immutable borrowable;\r\n\r\n\tuint public immutable vestingBegin;\r\n\tuint public immutable segmentLength;\r\n\t\r\n\tuint public epochBegin;\r\n\tuint public epochAmount;\r\n\tuint public lastUpdate;\r\n\t\r\n\tconstructor (\r\n\t\taddress imx_,\r\n\t\taddress claimable_,\r\n\t\taddress borrowable_,\r\n\t\taddress vester_\r\n\t) public Distributor(imx_, claimable_) {\r\n\t\tborrowable = borrowable_;\r\n\t\tuint _vestingBegin = IVester(vester_).vestingBegin();\r\n\t\tvestingBegin = _vestingBegin;\r\n\t\tsegmentLength = (IVester(vester_).vestingEnd() - _vestingBegin) / IVester(vester_).segments();\r\n\t}\r\n\t\r\n\tfunction updateShareIndex() public virtual override returns (uint _shareIndex) {\r\n\t\tif (totalShares == 0) return shareIndex;\r\n\t\tif (epochBegin == 0) return shareIndex;\r\n\t\tuint epochEnd = epochBegin + segmentLength;\r\n\t\tuint blockTimestamp = getBlockTimestamp();\r\n\t\tuint timestamp = Math.min(blockTimestamp, epochEnd);\r\n\t\tuint timeElapsed = timestamp - lastUpdate;\r\n\t\tassert(timeElapsed <= segmentLength);\r\n\t\tif (timeElapsed == 0) return shareIndex;\r\n\t\t\r\n\t\tuint amount =  epochAmount.mul(timeElapsed).div(segmentLength);\r\n\t\t_shareIndex = amount.mul(2**160).div(totalShares).add(shareIndex);\r\n\t\tshareIndex = _shareIndex;\r\n\t\tlastUpdate = timestamp;\r\n\t}\r\n\t\r\n\tfunction advance() public nonReentrant {\r\n\t\tuint blockTimestamp = getBlockTimestamp();\r\n\t\tif (blockTimestamp < vestingBegin) return;\r\n\t\tuint _epochBegin = epochBegin;\r\n\t\tif (_epochBegin != 0 && blockTimestamp < _epochBegin + segmentLength) return;\r\n\t\tuint amount = IClaimable(claimable).claim();\r\n\t\tif (amount == 0) return;\r\n\t\tupdateShareIndex();\t\t\r\n\t\tuint timeSinceBeginning = blockTimestamp - vestingBegin;\r\n\t\tepochBegin = blockTimestamp - timeSinceBeginning % segmentLength;\r\n\t\tepochAmount = amount;\r\n\t\tlastUpdate = epochBegin;\r\n\t}\r\n\t\r\n\tfunction claim() public override returns (uint amount) {\r\n\t\tadvance();\r\n\t\treturn super.claim();\r\n\t}\r\n\t\r\n\tfunction trackBorrow(address borrower, uint borrowBalance, uint borrowIndex) public override {\r\n\t\trequire(msg.sender == borrowable, \"FarmingPool: UNAUTHORIZED\");\r\n\t\t//if (borrowBalance == 0 && recipients[borrower].shares == 0) return; // inutile!\r\n\t\tuint newShares = borrowBalance.mul(2**96).div(borrowIndex);\r\n\t\teditRecipientInternal(borrower, newShares);\r\n\t}\r\n\t\r\n\tfunction getBlockTimestamp() public virtual view returns (uint) {\r\n\t\treturn block.timestamp;\r\n\t}\r\n}",
  "sourcePath": "C:\\Users\\simor\\Desktop\\imx\\contracts\\FarmingPool.sol",
  "compiler": {
    "name": "solc",
    "version": "0.6.6+commit.6c089d02.Emscripten.clang"
  },
  "schemaVersion": "3.3.2",
  "updatedAt": "2021-03-09T19:15:19.064Z",
  "devdoc": {
    "methods": {}
  },
  "userdoc": {
    "methods": {}
  }
}