{
  "contractName": "FarmingPoolHarness",
  "abi": [
    {
      "inputs": [
        {
          "internalType": "address",
          "name": "imx_",
          "type": "address"
        },
        {
          "internalType": "address",
          "name": "claimable_",
          "type": "address"
        },
        {
          "internalType": "address",
          "name": "borrowable_",
          "type": "address"
        },
        {
          "internalType": "address",
          "name": "vester_",
          "type": "address"
        }
      ],
      "stateMutability": "nonpayable",
      "type": "constructor"
    },
    {
      "anonymous": false,
      "inputs": [
        {
          "indexed": false,
          "internalType": "uint256",
          "name": "epochBegin",
          "type": "uint256"
        },
        {
          "indexed": false,
          "internalType": "uint256",
          "name": "epochAmount",
          "type": "uint256"
        }
      ],
      "name": "Advance",
      "type": "event"
    },
    {
      "anonymous": false,
      "inputs": [
        {
          "indexed": true,
          "internalType": "address",
          "name": "account",
          "type": "address"
        },
        {
          "indexed": false,
          "internalType": "uint256",
          "name": "amount",
          "type": "uint256"
        }
      ],
      "name": "Claim",
      "type": "event"
    },
    {
      "anonymous": false,
      "inputs": [
        {
          "indexed": true,
          "internalType": "address",
          "name": "account",
          "type": "address"
        },
        {
          "indexed": false,
          "internalType": "uint256",
          "name": "shares",
          "type": "uint256"
        },
        {
          "indexed": false,
          "internalType": "uint256",
          "name": "totalShares",
          "type": "uint256"
        }
      ],
      "name": "EditRecipient",
      "type": "event"
    },
    {
      "anonymous": false,
      "inputs": [
        {
          "indexed": true,
          "internalType": "address",
          "name": "account",
          "type": "address"
        },
        {
          "indexed": false,
          "internalType": "uint256",
          "name": "lastShareIndex",
          "type": "uint256"
        },
        {
          "indexed": false,
          "internalType": "uint256",
          "name": "credit",
          "type": "uint256"
        }
      ],
      "name": "UpdateCredit",
      "type": "event"
    },
    {
      "anonymous": false,
      "inputs": [
        {
          "indexed": false,
          "internalType": "uint256",
          "name": "shareIndex",
          "type": "uint256"
        }
      ],
      "name": "UpdateShareIndex",
      "type": "event"
    },
    {
      "inputs": [],
      "name": "advance",
      "outputs": [],
      "stateMutability": "nonpayable",
      "type": "function"
    },
    {
      "inputs": [],
      "name": "borrowable",
      "outputs": [
        {
          "internalType": "address",
          "name": "",
          "type": "address"
        }
      ],
      "stateMutability": "view",
      "type": "function"
    },
    {
      "inputs": [],
      "name": "claim",
      "outputs": [
        {
          "internalType": "uint256",
          "name": "amount",
          "type": "uint256"
        }
      ],
      "stateMutability": "nonpayable",
      "type": "function"
    },
    {
      "inputs": [
        {
          "internalType": "address",
          "name": "account",
          "type": "address"
        }
      ],
      "name": "claimAccount",
      "outputs": [
        {
          "internalType": "uint256",
          "name": "amount",
          "type": "uint256"
        }
      ],
      "stateMutability": "nonpayable",
      "type": "function"
    },
    {
      "inputs": [],
      "name": "claimable",
      "outputs": [
        {
          "internalType": "address",
          "name": "",
          "type": "address"
        }
      ],
      "stateMutability": "view",
      "type": "function"
    },
    {
      "inputs": [],
      "name": "epochAmount",
      "outputs": [
        {
          "internalType": "uint256",
          "name": "",
          "type": "uint256"
        }
      ],
      "stateMutability": "view",
      "type": "function"
    },
    {
      "inputs": [],
      "name": "epochBegin",
      "outputs": [
        {
          "internalType": "uint256",
          "name": "",
          "type": "uint256"
        }
      ],
      "stateMutability": "view",
      "type": "function"
    },
    {
      "inputs": [],
      "name": "imx",
      "outputs": [
        {
          "internalType": "address",
          "name": "",
          "type": "address"
        }
      ],
      "stateMutability": "view",
      "type": "function"
    },
    {
      "inputs": [],
      "name": "lastUpdate",
      "outputs": [
        {
          "internalType": "uint256",
          "name": "",
          "type": "uint256"
        }
      ],
      "stateMutability": "view",
      "type": "function"
    },
    {
      "inputs": [
        {
          "internalType": "address",
          "name": "",
          "type": "address"
        }
      ],
      "name": "recipients",
      "outputs": [
        {
          "internalType": "uint256",
          "name": "shares",
          "type": "uint256"
        },
        {
          "internalType": "uint256",
          "name": "lastShareIndex",
          "type": "uint256"
        },
        {
          "internalType": "uint256",
          "name": "credit",
          "type": "uint256"
        }
      ],
      "stateMutability": "view",
      "type": "function"
    },
    {
      "inputs": [],
      "name": "segmentLength",
      "outputs": [
        {
          "internalType": "uint256",
          "name": "",
          "type": "uint256"
        }
      ],
      "stateMutability": "view",
      "type": "function"
    },
    {
      "inputs": [],
      "name": "shareIndex",
      "outputs": [
        {
          "internalType": "uint256",
          "name": "",
          "type": "uint256"
        }
      ],
      "stateMutability": "view",
      "type": "function"
    },
    {
      "inputs": [],
      "name": "totalShares",
      "outputs": [
        {
          "internalType": "uint256",
          "name": "",
          "type": "uint256"
        }
      ],
      "stateMutability": "view",
      "type": "function"
    },
    {
      "inputs": [
        {
          "internalType": "address",
          "name": "borrower",
          "type": "address"
        },
        {
          "internalType": "uint256",
          "name": "borrowBalance",
          "type": "uint256"
        },
        {
          "internalType": "uint256",
          "name": "borrowIndex",
          "type": "uint256"
        }
      ],
      "name": "trackBorrow",
      "outputs": [],
      "stateMutability": "nonpayable",
      "type": "function"
    },
    {
      "inputs": [
        {
          "internalType": "address",
          "name": "account",
          "type": "address"
        }
      ],
      "name": "updateCredit",
      "outputs": [
        {
          "internalType": "uint256",
          "name": "credit",
          "type": "uint256"
        }
      ],
      "stateMutability": "nonpayable",
      "type": "function"
    },
    {
      "inputs": [],
      "name": "updateShareIndex",
      "outputs": [
        {
          "internalType": "uint256",
          "name": "_shareIndex",
          "type": "uint256"
        }
      ],
      "stateMutability": "nonpayable",
      "type": "function"
    },
    {
      "inputs": [],
      "name": "vestingBegin",
      "outputs": [
        {
          "internalType": "uint256",
          "name": "",
          "type": "uint256"
        }
      ],
      "stateMutability": "view",
      "type": "function"
    },
    {
      "inputs": [],
      "name": "getBlockTimestamp",
      "outputs": [
        {
          "internalType": "uint256",
          "name": "",
          "type": "uint256"
        }
      ],
      "stateMutability": "view",
      "type": "function"
    },
    {
      "inputs": [
        {
          "internalType": "uint256",
          "name": "blockTimestamp",
          "type": "uint256"
        }
      ],
      "name": "setBlockTimestamp",
      "outputs": [],
      "stateMutability": "nonpayable",
      "type": "function"
    }
  ],
  "bytecode": "0x6101206040526003805460ff191660011790553480156200001f57600080fd5b506040516200144d3803806200144d833981810160405260808110156200004557600080fd5b5080516020808301516040808501516060958601516001600160601b031986881b811660805284881b811660a0529682901b90961660c052815163e29bc68b60e01b8152915194959294909386928692869286926000926001600160a01b0385169263e29bc68b9260048082019391829003018186803b158015620000c957600080fd5b505afa158015620000de573d6000803e3d6000fd5b505050506040513d6020811015620000f557600080fd5b505160e08190526040805163716b438560e11b8152905191925062000210916001600160a01b0385169163e2d6870a916004808301926020929190829003018186803b1580156200014557600080fd5b505afa1580156200015a573d6000803e3d6000fd5b505050506040513d60208110156200017157600080fd5b5051604080516384a1931f60e01b81529051620001fc9185916001600160a01b038816916384a1931f916004808301926020929190829003018186803b158015620001bb57600080fd5b505afa158015620001d0573d6000803e3d6000fd5b505050506040513d6020811015620001e757600080fd5b50519062000224602090811b62000bb117901c565b6200027560201b62000aa11790919060201c565b6101005250620003c3975050505050505050565b60006200026e83836040518060400160405280601f81526020017f536166654d6174683a207375627472616374696f6e20756e646572666c6f7700815250620002bf60201b60201c565b9392505050565b60006200026e83836040518060400160405280601a81526020017f536166654d6174683a206469766973696f6e206279207a65726f0000000000008152506200035a60201b60201c565b60008184841115620003525760405162461bcd60e51b81526004018080602001828103825283818151815260200191508051906020019080838360005b8381101562000316578181015183820152602001620002fc565b50505050905090810190601f168015620003445780820380516001836020036101000a031916815260200191505b509250505060405180910390fd5b505050900390565b60008183620003ac5760405162461bcd60e51b815260206004820181815283516024840152835190928392604490910191908501908083836000831562000316578181015183820152602001620002fc565b506000838581620003b957fe5b0495945050505050565b60805160601c60a05160601c60c05160601c60e0516101005161100f6200043e600039806105a252806105e4528061062652806106f3528061084a5280610954525080610722528061080f528061092a52508061032e5280610746525080610555528061087e5250806103fd5280610e79525061100f6000f3fe608060405234801561001057600080fd5b50600436106101515760003560e01c8063b260187d116100cd578063e0abdf6611610081578063e99a6ac711610066578063e99a6ac7146102b5578063ea105ac7146102bd578063eb820312146102c557610151565b8063e0abdf6614610290578063e29bc68b146102ad57610151565b8063c56ad1ad116100b2578063c56ad1ad14610278578063d013666e14610280578063d01b67171461028857610151565b8063b260187d14610268578063c04637111461027057610151565b806345c08718116101245780637429d95a116101095780637429d95a14610225578063796b89b914610258578063af38d7571461026057610151565b806345c08718146101ea5780634e71d92d1461021d57610151565b806305285d7f146101565780630f08025f146101975780632f5ee99b146101c85780633a98ef39146101e2575b600080fd5b6101956004803603606081101561016c57600080fd5b5073ffffffffffffffffffffffffffffffffffffffff8135169060208101359060400135610316565b005b61019f6103fb565b6040805173ffffffffffffffffffffffffffffffffffffffff9092168252519081900360200190f35b6101d061041f565b60408051918252519081900360200190f35b6101d0610425565b6101d06004803603602081101561020057600080fd5b503573ffffffffffffffffffffffffffffffffffffffff1661042b565b6101d061052b565b6101d06004803603602081101561023b57600080fd5b503573ffffffffffffffffffffffffffffffffffffffff1661053c565b6101d061054d565b61019f610553565b6101d0610577565b6101d06106e5565b6101d06106eb565b6101d06106f1565b6101d0610715565b610195600480360360208110156102a657600080fd5b503561071b565b6101d0610720565b61019f610744565b610195610768565b6102f8600480360360208110156102db57600080fd5b503573ffffffffffffffffffffffffffffffffffffffff16610a06565b60408051938452602084019290925282820152519081900360600190f35b3373ffffffffffffffffffffffffffffffffffffffff7f000000000000000000000000000000000000000000000000000000000000000016146103ba57604080517f08c379a000000000000000000000000000000000000000000000000000000000815260206004820152601960248201527f4661726d696e67506f6f6c3a20554e415554484f52495a454400000000000000604482015290519081900360640190fd5b60006103e9826103dd856c0100000000000000000000000063ffffffff610a2716565b9063ffffffff610aa116565b90506103f58482610ae3565b50505050565b7f000000000000000000000000000000000000000000000000000000000000000081565b60045481565b60015481565b600080610436610577565b905080610447576000915050610526565b73ffffffffffffffffffffffffffffffffffffffff831660009081526020819052604090208054600182015474010000000000000000000000000000000000000000916104ab9161049f90869063ffffffff610bb116565b9063ffffffff610a2716565b816104b257fe5b0481600201540192508181600101819055508281600201819055508373ffffffffffffffffffffffffffffffffffffffff167ff7240857a4f83123f14a7bc3f77cd32d0ae71ede635c92ebdcc14d5ea8ed018a8385604051808381526020018281526020019250505060405180910390a250505b919050565b600061053633610bf3565b90505b90565b600061054782610bf3565b92915050565b60075490565b7f000000000000000000000000000000000000000000000000000000000000000081565b60006001546000141561058d5750600254610539565b60045461059d5750600254610539565b6004547f00000000000000000000000000000000000000000000000000000000000000000160006105cc61054d565b905060006105da8284610c06565b60065490915081037f000000000000000000000000000000000000000000000000000000000000000081111561060c57fe5b8061061f57600254945050505050610539565b600061065a7f00000000000000000000000000000000000000000000000000000000000000006103dd84600554610a2790919063ffffffff16565b905061069c6002546106906001546103dd7401000000000000000000000000000000000000000086610a2790919063ffffffff16565b9063ffffffff610c1c16565b600281905560068490556040805182815290519197507f8cae7c5b456d193882de6985578f406aefb641501192211706c5aa0a32612fec919081900360200190a1505050505090565b60065481565b60025481565b7f000000000000000000000000000000000000000000000000000000000000000081565b60055481565b600755565b7f000000000000000000000000000000000000000000000000000000000000000081565b7f000000000000000000000000000000000000000000000000000000000000000081565b60035460ff166107d957604080517f08c379a000000000000000000000000000000000000000000000000000000000815260206004820152601660248201527f4469737472696275746f723a205245454e544552454400000000000000000000604482015290519081900360640190fd5b600380547fffffffffffffffffffffffffffffffffffffffffffffffffffffffffffffff00169055600061080b61054d565b90507f000000000000000000000000000000000000000000000000000000000000000081101561083b57506109d9565b600454801580159061086e57507f0000000000000000000000000000000000000000000000000000000000000000810182105b1561087a5750506109d9565b60007f000000000000000000000000000000000000000000000000000000000000000073ffffffffffffffffffffffffffffffffffffffff16634e71d92d6040518163ffffffff1660e01b8152600401602060405180830381600087803b1580156108e457600080fd5b505af11580156108f8573d6000803e3d6000fd5b505050506040513d602081101561090e57600080fd5b505190508061091f575050506109d9565b610927610577565b507f0000000000000000000000000000000000000000000000000000000000000000830361098b61097e827f000000000000000000000000000000000000000000000000000000000000000063ffffffff610c9016565b859063ffffffff610bb116565b600481905560058390556006819055604080519182526020820184905280517f80ed4614ab2b2c5fd2e6f2f0bb3c55b8bac2a16aee9296e0275b2214ebee65719281900390910190a1505050505b600380547fffffffffffffffffffffffffffffffffffffffffffffffffffffffffffffff00166001179055565b60006020819052908152604090208054600182015460029092015490919083565b600082610a3657506000610547565b82820282848281610a4357fe5b0414610a9a576040517f08c379a0000000000000000000000000000000000000000000000000000000008152600401808060200182810382526021815260200180610fb96021913960400191505060405180910390fd5b9392505050565b6000610a9a83836040518060400160405280601a81526020017f536166654d6174683a206469766973696f6e206279207a65726f000000000000815250610cd2565b610aec8261042b565b5073ffffffffffffffffffffffffffffffffffffffff8216600090815260208190526040812080549091818411610b3757600154610b329085840363ffffffff610bb116565b610b4c565b600154610b4c9083860363ffffffff610c1c16565b60018190558484556040805186815260208101839052815192935073ffffffffffffffffffffffffffffffffffffffff8816927fff3664f5f2f8f85ecd8d30ef2aa6773d8a8448219c7421dcbb67957fb3fafba1929181900390910190a25050505050565b6000610a9a83836040518060400160405280601f81526020017f536166654d6174683a207375627472616374696f6e20756e646572666c6f7700815250610d8e565b6000610bfd610768565b61054782610e02565b6000818310610c155781610a9a565b5090919050565b600082820183811015610a9a57604080517f08c379a000000000000000000000000000000000000000000000000000000000815260206004820152601b60248201527f536166654d6174683a206164646974696f6e206f766572666c6f770000000000604482015290519081900360640190fd5b6000610a9a83836040518060400160405280601881526020017f536166654d6174683a206d6f64756c6f206279207a65726f0000000000000000815250610f3c565b60008183610d78576040517f08c379a00000000000000000000000000000000000000000000000000000000081526004018080602001828103825283818151815260200191508051906020019080838360005b83811015610d3d578181015183820152602001610d25565b50505050905090810190601f168015610d6a5780820380516001836020036101000a031916815260200191505b509250505060405180910390fd5b506000838581610d8457fe5b0495945050505050565b60008184841115610dfa576040517f08c379a0000000000000000000000000000000000000000000000000000000008152602060048201818152835160248401528351909283926044909101919085019080838360008315610d3d578181015183820152602001610d25565b505050900390565b6000610e0d8261042b565b905080156105265773ffffffffffffffffffffffffffffffffffffffff80831660008181526020818152604080832060020183905580517fa9059cbb000000000000000000000000000000000000000000000000000000008152600481019490945260248401869052517f00000000000000000000000000000000000000000000000000000000000000009094169363a9059cbb93604480820194918390030190829087803b158015610ebf57600080fd5b505af1158015610ed3573d6000803e3d6000fd5b505050506040513d6020811015610ee957600080fd5b505060408051828152905173ffffffffffffffffffffffffffffffffffffffff8416917f47cee97cb7acd717b3c0aa1435d004cd5b3c8c57d70dbceb4e4458bbd60e39d4919081900360200190a2919050565b60008183610fa5576040517f08c379a0000000000000000000000000000000000000000000000000000000008152602060048201818152835160248401528351909283926044909101919085019080838360008315610d3d578181015183820152602001610d25565b50828481610faf57fe5b0694935050505056fe536166654d6174683a206d756c7469706c69636174696f6e206f766572666c6f77a2646970667358221220650b7604222d58c340c9555da0b9857f906ab00d4a278ed10cd7dc5d511ca31964736f6c63430006060033",
  "immutableReferences": {
    "87": [
      {
        "length": 32,
        "start": 1021
      },
      {
        "length": 32,
        "start": 3705
      }
    ],
    "89": [
      {
        "length": 32,
        "start": 1365
      },
      {
        "length": 32,
        "start": 2174
      }
    ],
    "401": [
      {
        "length": 32,
        "start": 814
      },
      {
        "length": 32,
        "start": 1862
      }
    ],
    "403": [
      {
        "length": 32,
        "start": 1826
      },
      {
        "length": 32,
        "start": 2063
      },
      {
        "length": 32,
        "start": 2346
      }
    ],
    "405": [
      {
        "length": 32,
        "start": 1442
      },
      {
        "length": 32,
        "start": 1508
      },
      {
        "length": 32,
        "start": 1574
      },
      {
        "length": 32,
        "start": 1779
      },
      {
        "length": 32,
        "start": 2122
      },
      {
        "length": 32,
        "start": 2388
      }
    ]
  },
  "source": "pragma solidity =0.6.6;\r\n\r\nimport \"../../contracts/FarmingPool.sol\";\r\n\r\ncontract FarmingPoolHarness is FarmingPool {\r\n\t\r\n\tconstructor(\r\n\t\taddress imx_,\r\n\t\taddress claimable_,\r\n\t\taddress borrowable_,\r\n\t\taddress vester_\r\n\t) public FarmingPool(imx_, claimable_, borrowable_, vester_) {}\r\n\t\r\n\t\r\n\tuint _blockTimestamp;\r\n\tfunction getBlockTimestamp() public virtual override view returns (uint) {\r\n\t\treturn _blockTimestamp;\r\n\t}\r\n\tfunction setBlockTimestamp(uint blockTimestamp) public {\r\n\t\t_blockTimestamp = blockTimestamp;\r\n\t}\r\n\t\r\n}",
  "sourcePath": "C:/Users/simor/Desktop/imx/contracts/test/FarmingPoolHarness.sol",
  "compiler": {
    "name": "solc",
    "version": "0.6.6+commit.6c089d02.Emscripten.clang"
  },
  "schemaVersion": "3.3.2",
  "updatedAt": "2021-04-23T20:48:21.449Z",
  "devdoc": {
    "methods": {}
  },
  "userdoc": {
    "methods": {}
  }
}