{
  "contractName": "FarmingPool",
  "abi": [
    {
      "inputs": [
        {
          "internalType": "address",
          "name": "imx_",
          "type": "address"
        },
        {
          "internalType": "address",
          "name": "claimable_",
          "type": "address"
        },
        {
          "internalType": "address",
          "name": "borrowable_",
          "type": "address"
        },
        {
          "internalType": "address",
          "name": "vester_",
          "type": "address"
        }
      ],
      "stateMutability": "nonpayable",
      "type": "constructor"
    },
    {
      "anonymous": false,
      "inputs": [
        {
          "indexed": false,
          "internalType": "uint256",
          "name": "epochBegin",
          "type": "uint256"
        },
        {
          "indexed": false,
          "internalType": "uint256",
          "name": "epochAmount",
          "type": "uint256"
        }
      ],
      "name": "Advance",
      "type": "event"
    },
    {
      "anonymous": false,
      "inputs": [
        {
          "indexed": true,
          "internalType": "address",
          "name": "account",
          "type": "address"
        },
        {
          "indexed": false,
          "internalType": "uint256",
          "name": "amount",
          "type": "uint256"
        }
      ],
      "name": "Claim",
      "type": "event"
    },
    {
      "anonymous": false,
      "inputs": [
        {
          "indexed": true,
          "internalType": "address",
          "name": "account",
          "type": "address"
        },
        {
          "indexed": false,
          "internalType": "uint256",
          "name": "shares",
          "type": "uint256"
        },
        {
          "indexed": false,
          "internalType": "uint256",
          "name": "totalShares",
          "type": "uint256"
        }
      ],
      "name": "EditRecipient",
      "type": "event"
    },
    {
      "anonymous": false,
      "inputs": [
        {
          "indexed": true,
          "internalType": "address",
          "name": "account",
          "type": "address"
        },
        {
          "indexed": false,
          "internalType": "uint256",
          "name": "lastShareIndex",
          "type": "uint256"
        },
        {
          "indexed": false,
          "internalType": "uint256",
          "name": "credit",
          "type": "uint256"
        }
      ],
      "name": "UpdateCredit",
      "type": "event"
    },
    {
      "anonymous": false,
      "inputs": [
        {
          "indexed": false,
          "internalType": "uint256",
          "name": "shareIndex",
          "type": "uint256"
        }
      ],
      "name": "UpdateShareIndex",
      "type": "event"
    },
    {
      "inputs": [],
      "name": "borrowable",
      "outputs": [
        {
          "internalType": "address",
          "name": "",
          "type": "address"
        }
      ],
      "stateMutability": "view",
      "type": "function"
    },
    {
      "inputs": [],
      "name": "claimable",
      "outputs": [
        {
          "internalType": "address",
          "name": "",
          "type": "address"
        }
      ],
      "stateMutability": "view",
      "type": "function"
    },
    {
      "inputs": [],
      "name": "epochAmount",
      "outputs": [
        {
          "internalType": "uint256",
          "name": "",
          "type": "uint256"
        }
      ],
      "stateMutability": "view",
      "type": "function"
    },
    {
      "inputs": [],
      "name": "epochBegin",
      "outputs": [
        {
          "internalType": "uint256",
          "name": "",
          "type": "uint256"
        }
      ],
      "stateMutability": "view",
      "type": "function"
    },
    {
      "inputs": [],
      "name": "imx",
      "outputs": [
        {
          "internalType": "address",
          "name": "",
          "type": "address"
        }
      ],
      "stateMutability": "view",
      "type": "function"
    },
    {
      "inputs": [],
      "name": "lastUpdate",
      "outputs": [
        {
          "internalType": "uint256",
          "name": "",
          "type": "uint256"
        }
      ],
      "stateMutability": "view",
      "type": "function"
    },
    {
      "inputs": [
        {
          "internalType": "address",
          "name": "",
          "type": "address"
        }
      ],
      "name": "recipients",
      "outputs": [
        {
          "internalType": "uint256",
          "name": "shares",
          "type": "uint256"
        },
        {
          "internalType": "uint256",
          "name": "lastShareIndex",
          "type": "uint256"
        },
        {
          "internalType": "uint256",
          "name": "credit",
          "type": "uint256"
        }
      ],
      "stateMutability": "view",
      "type": "function"
    },
    {
      "inputs": [],
      "name": "segmentLength",
      "outputs": [
        {
          "internalType": "uint256",
          "name": "",
          "type": "uint256"
        }
      ],
      "stateMutability": "view",
      "type": "function"
    },
    {
      "inputs": [],
      "name": "shareIndex",
      "outputs": [
        {
          "internalType": "uint256",
          "name": "",
          "type": "uint256"
        }
      ],
      "stateMutability": "view",
      "type": "function"
    },
    {
      "inputs": [],
      "name": "totalShares",
      "outputs": [
        {
          "internalType": "uint256",
          "name": "",
          "type": "uint256"
        }
      ],
      "stateMutability": "view",
      "type": "function"
    },
    {
      "inputs": [
        {
          "internalType": "address",
          "name": "account",
          "type": "address"
        }
      ],
      "name": "updateCredit",
      "outputs": [
        {
          "internalType": "uint256",
          "name": "credit",
          "type": "uint256"
        }
      ],
      "stateMutability": "nonpayable",
      "type": "function"
    },
    {
      "inputs": [],
      "name": "vestingBegin",
      "outputs": [
        {
          "internalType": "uint256",
          "name": "",
          "type": "uint256"
        }
      ],
      "stateMutability": "view",
      "type": "function"
    },
    {
      "inputs": [],
      "name": "updateShareIndex",
      "outputs": [
        {
          "internalType": "uint256",
          "name": "_shareIndex",
          "type": "uint256"
        }
      ],
      "stateMutability": "nonpayable",
      "type": "function"
    },
    {
      "inputs": [],
      "name": "advance",
      "outputs": [],
      "stateMutability": "nonpayable",
      "type": "function"
    },
    {
      "inputs": [],
      "name": "claim",
      "outputs": [
        {
          "internalType": "uint256",
          "name": "amount",
          "type": "uint256"
        }
      ],
      "stateMutability": "nonpayable",
      "type": "function"
    },
    {
      "inputs": [
        {
          "internalType": "address",
          "name": "account",
          "type": "address"
        }
      ],
      "name": "claimAccount",
      "outputs": [
        {
          "internalType": "uint256",
          "name": "amount",
          "type": "uint256"
        }
      ],
      "stateMutability": "nonpayable",
      "type": "function"
    },
    {
      "inputs": [
        {
          "internalType": "address",
          "name": "borrower",
          "type": "address"
        },
        {
          "internalType": "uint256",
          "name": "borrowBalance",
          "type": "uint256"
        },
        {
          "internalType": "uint256",
          "name": "borrowIndex",
          "type": "uint256"
        }
      ],
      "name": "trackBorrow",
      "outputs": [],
      "stateMutability": "nonpayable",
      "type": "function"
    },
    {
      "inputs": [],
      "name": "getBlockTimestamp",
      "outputs": [
        {
          "internalType": "uint256",
          "name": "",
          "type": "uint256"
        }
      ],
      "stateMutability": "view",
      "type": "function"
    }
  ],
  "bytecode": "0x6101206040526003805460ff1916600117905534801561001e57600080fd5b5060405161115b38038061115b8339818101604052608081101561004157600080fd5b5080516020808301516040808501516060958601516001600160601b031986881b811660805284881b811660a0529682901b90961660c052815163e29bc68b60e01b815291519495929490936000926001600160a01b0385169263e29bc68b92600480840193919291829003018186803b1580156100be57600080fd5b505afa1580156100d2573d6000803e3d6000fd5b505050506040513d60208110156100e857600080fd5b505160e08190526040805163716b438560e11b815290519192506001600160a01b0384169163e2d6870a91600480820192602092909190829003018186803b15801561013357600080fd5b505afa158015610147573d6000803e3d6000fd5b505050506040513d602081101561015d57600080fd5b5051604080516384a1931f60e01b8152905183916001600160a01b038616916384a1931f91600480820192602092909190829003018186803b1580156101a257600080fd5b505afa1580156101b6573d6000803e3d6000fd5b505050506040513d60208110156101cc57600080fd5b505103816101d657fe5b0461010052505050505060805160601c60a05160601c60c05160601c60e05161010051610f0161025a6000398061057752806105b952806105fb52806106c8528061081a528061091d5250806106f252806107df52806108fa5250806102f6528061071652508061052a528061084e5250806103c55280610c2d5250610f016000f3fe608060405234801561001057600080fd5b50600436106101365760003560e01c8063b260187d116100b2578063d01b671711610081578063e99a6ac711610066578063e99a6ac71461027d578063ea105ac714610285578063eb8203121461028d57610136565b8063d01b67171461026d578063e29bc68b1461027557610136565b8063b260187d1461024d578063c046371114610255578063c56ad1ad1461025d578063d013666e1461026557610136565b806345c08718116101095780637429d95a116100ee5780637429d95a1461020a578063796b89b91461023d578063af38d7571461024557610136565b806345c08718146101cf5780634e71d92d1461020257610136565b806305285d7f1461013b5780630f08025f1461017c5780632f5ee99b146101ad5780633a98ef39146101c7575b600080fd5b61017a6004803603606081101561015157600080fd5b5073ffffffffffffffffffffffffffffffffffffffff81351690602081013590604001356102de565b005b6101846103c3565b6040805173ffffffffffffffffffffffffffffffffffffffff9092168252519081900360200190f35b6101b56103e7565b60408051918252519081900360200190f35b6101b56103ed565b6101b5600480360360208110156101e557600080fd5b503573ffffffffffffffffffffffffffffffffffffffff166103f3565b6101b56104f3565b6101b56004803603602081101561022057600080fd5b503573ffffffffffffffffffffffffffffffffffffffff1661050b565b6101b5610524565b610184610528565b6101b561054c565b6101b56106ba565b6101b56106c0565b6101b56106c6565b6101b56106ea565b6101b56106f0565b610184610714565b61017a610738565b6102c0600480360360208110156102a357600080fd5b503573ffffffffffffffffffffffffffffffffffffffff166109c2565b60408051938452602084019290925282820152519081900360600190f35b3373ffffffffffffffffffffffffffffffffffffffff7f0000000000000000000000000000000000000000000000000000000000000000161461038257604080517f08c379a000000000000000000000000000000000000000000000000000000000815260206004820152601960248201527f4661726d696e67506f6f6c3a20554e415554484f52495a454400000000000000604482015290519081900360640190fd5b60006103b1826103a5856c0100000000000000000000000063ffffffff6109e316565b9063ffffffff610a5d16565b90506103bd8482610a9f565b50505050565b7f000000000000000000000000000000000000000000000000000000000000000081565b60045481565b60015481565b6000806103fe61054c565b90508061040f5760009150506104ee565b73ffffffffffffffffffffffffffffffffffffffff831660009081526020819052604090208054600182015474010000000000000000000000000000000000000000916104739161046790869063ffffffff610b6d16565b9063ffffffff6109e316565b8161047a57fe5b0481600201540192508181600101819055508281600201819055508373ffffffffffffffffffffffffffffffffffffffff167ff7240857a4f83123f14a7bc3f77cd32d0ae71ede635c92ebdcc14d5ea8ed018a8385604051808381526020018281526020019250505060405180910390a250505b919050565b60006104fd610738565b610505610baf565b90505b90565b6000610515610738565b61051e82610bb6565b92915050565b4290565b7f000000000000000000000000000000000000000000000000000000000000000081565b6000600154600014156105625750600254610508565b6004546105725750600254610508565b6004547f00000000000000000000000000000000000000000000000000000000000000000160006105a1610524565b905060006105af8284610cf0565b60065490915081037f00000000000000000000000000000000000000000000000000000000000000008111156105e157fe5b806105f457600254945050505050610508565b600061062f7f00000000000000000000000000000000000000000000000000000000000000006103a5846005546109e390919063ffffffff16565b90506106716002546106656001546103a574010000000000000000000000000000000000000000866109e390919063ffffffff16565b9063ffffffff610d0616565b600281905560068490556040805182815290519197507f8cae7c5b456d193882de6985578f406aefb641501192211706c5aa0a32612fec919081900360200190a1505050505090565b60065481565b60025481565b7f000000000000000000000000000000000000000000000000000000000000000081565b60055481565b7f000000000000000000000000000000000000000000000000000000000000000081565b7f000000000000000000000000000000000000000000000000000000000000000081565b60035460ff166107a957604080517f08c379a000000000000000000000000000000000000000000000000000000000815260206004820152601660248201527f4469737472696275746f723a205245454e544552454400000000000000000000604482015290519081900360640190fd5b600380547fffffffffffffffffffffffffffffffffffffffffffffffffffffffffffffff0016905560006107db610524565b90507f000000000000000000000000000000000000000000000000000000000000000081101561080b5750610995565b600454801580159061083e57507f0000000000000000000000000000000000000000000000000000000000000000810182105b1561084a575050610995565b60007f000000000000000000000000000000000000000000000000000000000000000073ffffffffffffffffffffffffffffffffffffffff16634e71d92d6040518163ffffffff1660e01b8152600401602060405180830381600087803b1580156108b457600080fd5b505af11580156108c8573d6000803e3d6000fd5b505050506040513d60208110156108de57600080fd5b50519050806108ef57505050610995565b6108f761054c565b507f000000000000000000000000000000000000000000000000000000000000000083037f0000000000000000000000000000000000000000000000000000000000000000818161094457fe5b068403600481905560058390556006819055604080519182526020820184905280517f80ed4614ab2b2c5fd2e6f2f0bb3c55b8bac2a16aee9296e0275b2214ebee65719281900390910190a1505050505b600380547fffffffffffffffffffffffffffffffffffffffffffffffffffffffffffffff00166001179055565b60006020819052908152604090208054600182015460029092015490919083565b6000826109f25750600061051e565b828202828482816109ff57fe5b0414610a56576040517f08c379a0000000000000000000000000000000000000000000000000000000008152600401808060200182810382526021815260200180610eab6021913960400191505060405180910390fd5b9392505050565b6000610a5683836040518060400160405280601a81526020017f536166654d6174683a206469766973696f6e206279207a65726f000000000000815250610d7a565b610aa8826103f3565b5073ffffffffffffffffffffffffffffffffffffffff8216600090815260208190526040812080549091818411610af357600154610aee9085840363ffffffff610b6d16565b610b08565b600154610b089083860363ffffffff610d0616565b60018190558484556040805186815260208101839052815192935073ffffffffffffffffffffffffffffffffffffffff8816927fff3664f5f2f8f85ecd8d30ef2aa6773d8a8448219c7421dcbb67957fb3fafba1929181900390910190a25050505050565b6000610a5683836040518060400160405280601f81526020017f536166654d6174683a207375627472616374696f6e20756e646572666c6f7700815250610e36565b6000610505335b6000610bc1826103f3565b905080156104ee5773ffffffffffffffffffffffffffffffffffffffff80831660008181526020818152604080832060020183905580517fa9059cbb000000000000000000000000000000000000000000000000000000008152600481019490945260248401869052517f00000000000000000000000000000000000000000000000000000000000000009094169363a9059cbb93604480820194918390030190829087803b158015610c7357600080fd5b505af1158015610c87573d6000803e3d6000fd5b505050506040513d6020811015610c9d57600080fd5b505060408051828152905173ffffffffffffffffffffffffffffffffffffffff8416917f47cee97cb7acd717b3c0aa1435d004cd5b3c8c57d70dbceb4e4458bbd60e39d4919081900360200190a2919050565b6000818310610cff5781610a56565b5090919050565b600082820183811015610a5657604080517f08c379a000000000000000000000000000000000000000000000000000000000815260206004820152601b60248201527f536166654d6174683a206164646974696f6e206f766572666c6f770000000000604482015290519081900360640190fd5b60008183610e20576040517f08c379a00000000000000000000000000000000000000000000000000000000081526004018080602001828103825283818151815260200191508051906020019080838360005b83811015610de5578181015183820152602001610dcd565b50505050905090810190601f168015610e125780820380516001836020036101000a031916815260200191505b509250505060405180910390fd5b506000838581610e2c57fe5b0495945050505050565b60008184841115610ea2576040517f08c379a0000000000000000000000000000000000000000000000000000000008152602060048201818152835160248401528351909283926044909101919085019080838360008315610de5578181015183820152602001610dcd565b50505090039056fe536166654d6174683a206d756c7469706c69636174696f6e206f766572666c6f77a2646970667358221220e52d0f24b7f1d824326ba4f836a1d83fb00a973dca84c18ec0a5777194fd21d264736f6c63430006060033",
  "immutableReferences": {
    "87": [
      {
        "length": 32,
        "start": 965
      },
      {
        "length": 32,
        "start": 3117
      }
    ],
    "89": [
      {
        "length": 32,
        "start": 1322
      },
      {
        "length": 32,
        "start": 2126
      }
    ],
    "401": [
      {
        "length": 32,
        "start": 758
      },
      {
        "length": 32,
        "start": 1814
      }
    ],
    "403": [
      {
        "length": 32,
        "start": 1778
      },
      {
        "length": 32,
        "start": 2015
      },
      {
        "length": 32,
        "start": 2298
      }
    ],
    "405": [
      {
        "length": 32,
        "start": 1399
      },
      {
        "length": 32,
        "start": 1465
      },
      {
        "length": 32,
        "start": 1531
      },
      {
        "length": 32,
        "start": 1736
      },
      {
        "length": 32,
        "start": 2074
      },
      {
        "length": 32,
        "start": 2333
      }
    ]
  },
  "source": "pragma solidity =0.6.6;\r\n\r\nimport \"./Distributor.sol\";\r\nimport \"./interfaces/IBorrowTracker.sol\";\r\nimport \"./interfaces/IVester.sol\";\r\nimport \"./libraries/Math.sol\";\r\n\r\n// ASSUMTPIONS:\r\n// - advance is called at least once for each epoch\r\n// - farmingPool shares edits are effective starting from the next epoch\r\n\r\ncontract FarmingPool is IBorrowTracker, Distributor {\r\n\r\n\taddress public immutable borrowable;\r\n\r\n\tuint public immutable vestingBegin;\r\n\tuint public immutable segmentLength;\r\n\t\r\n\tuint public epochBegin;\r\n\tuint public epochAmount;\r\n\tuint public lastUpdate;\r\n\t\r\n\tevent UpdateShareIndex(uint shareIndex);\r\n\tevent Advance(uint epochBegin, uint epochAmount);\r\n\t\r\n\tconstructor (\r\n\t\taddress imx_,\r\n\t\taddress claimable_,\r\n\t\taddress borrowable_,\r\n\t\taddress vester_\r\n\t) public Distributor(imx_, claimable_) {\r\n\t\tborrowable = borrowable_;\r\n\t\tuint _vestingBegin = IVester(vester_).vestingBegin();\r\n\t\tvestingBegin = _vestingBegin;\r\n\t\tsegmentLength = (IVester(vester_).vestingEnd() - _vestingBegin) / IVester(vester_).segments();\r\n\t}\r\n\t\r\n\tfunction updateShareIndex() public virtual override returns (uint _shareIndex) {\r\n\t\tif (totalShares == 0) return shareIndex;\r\n\t\tif (epochBegin == 0) return shareIndex;\r\n\t\tuint epochEnd = epochBegin + segmentLength;\r\n\t\tuint blockTimestamp = getBlockTimestamp();\r\n\t\tuint timestamp = Math.min(blockTimestamp, epochEnd);\r\n\t\tuint timeElapsed = timestamp - lastUpdate;\r\n\t\tassert(timeElapsed <= segmentLength);\r\n\t\tif (timeElapsed == 0) return shareIndex;\r\n\t\t\r\n\t\tuint amount =  epochAmount.mul(timeElapsed).div(segmentLength);\r\n\t\t_shareIndex = amount.mul(2**160).div(totalShares).add(shareIndex);\r\n\t\tshareIndex = _shareIndex;\r\n\t\tlastUpdate = timestamp;\r\n\t\temit UpdateShareIndex(_shareIndex);\r\n\t}\r\n\t\r\n\tfunction advance() public nonReentrant {\r\n\t\tuint blockTimestamp = getBlockTimestamp();\r\n\t\tif (blockTimestamp < vestingBegin) return;\r\n\t\tuint _epochBegin = epochBegin;\r\n\t\tif (_epochBegin != 0 && blockTimestamp < _epochBegin + segmentLength) return;\r\n\t\tuint amount = IClaimable(claimable).claim();\r\n\t\tif (amount == 0) return;\r\n\t\tupdateShareIndex();\t\t\r\n\t\tuint timeSinceBeginning = blockTimestamp - vestingBegin;\r\n\t\tepochBegin = blockTimestamp - timeSinceBeginning % segmentLength;\r\n\t\tepochAmount = amount;\r\n\t\tlastUpdate = epochBegin;\r\n\t\temit Advance(epochBegin, epochAmount);\r\n\t}\r\n\t\r\n\tfunction claim() public override returns (uint amount) {\r\n\t\tadvance();\r\n\t\treturn super.claim();\r\n\t}\r\n\t\r\n\tfunction claimAccount(address account) public returns (uint amount) {\r\n\t\tadvance();\r\n\t\treturn claimInternal(account);\r\n\t}\r\n\t\r\n\tfunction trackBorrow(address borrower, uint borrowBalance, uint borrowIndex) public override {\r\n\t\trequire(msg.sender == borrowable, \"FarmingPool: UNAUTHORIZED\");\r\n\t\tuint newShares = borrowBalance.mul(2**96).div(borrowIndex);\r\n\t\teditRecipientInternal(borrower, newShares);\r\n\t}\r\n\t\r\n\tfunction getBlockTimestamp() public virtual view returns (uint) {\r\n\t\treturn block.timestamp;\r\n\t}\r\n}",
  "sourcePath": "C:\\Users\\simor\\Desktop\\imx\\contracts\\FarmingPool.sol",
  "compiler": {
    "name": "solc",
    "version": "0.6.6+commit.6c089d02.Emscripten.clang"
  },
  "schemaVersion": "3.3.2",
  "updatedAt": "2021-03-19T17:59:25.618Z",
  "devdoc": {
    "methods": {}
  },
  "userdoc": {
    "methods": {}
  }
}