{
  "contractName": "FarmingPoolHarness",
  "abi": [
    {
      "inputs": [
        {
          "internalType": "address",
          "name": "imx_",
          "type": "address"
        },
        {
          "internalType": "address",
          "name": "claimable_",
          "type": "address"
        },
        {
          "internalType": "address",
          "name": "borrowable_",
          "type": "address"
        },
        {
          "internalType": "address",
          "name": "vester_",
          "type": "address"
        }
      ],
      "stateMutability": "nonpayable",
      "type": "constructor"
    },
    {
      "anonymous": false,
      "inputs": [
        {
          "indexed": false,
          "internalType": "uint256",
          "name": "epochBegin",
          "type": "uint256"
        },
        {
          "indexed": false,
          "internalType": "uint256",
          "name": "epochAmount",
          "type": "uint256"
        }
      ],
      "name": "Advance",
      "type": "event"
    },
    {
      "anonymous": false,
      "inputs": [
        {
          "indexed": true,
          "internalType": "address",
          "name": "account",
          "type": "address"
        },
        {
          "indexed": false,
          "internalType": "uint256",
          "name": "amount",
          "type": "uint256"
        }
      ],
      "name": "Claim",
      "type": "event"
    },
    {
      "anonymous": false,
      "inputs": [
        {
          "indexed": true,
          "internalType": "address",
          "name": "account",
          "type": "address"
        },
        {
          "indexed": false,
          "internalType": "uint256",
          "name": "shares",
          "type": "uint256"
        },
        {
          "indexed": false,
          "internalType": "uint256",
          "name": "totalShares",
          "type": "uint256"
        }
      ],
      "name": "EditRecipient",
      "type": "event"
    },
    {
      "anonymous": false,
      "inputs": [
        {
          "indexed": true,
          "internalType": "address",
          "name": "account",
          "type": "address"
        },
        {
          "indexed": false,
          "internalType": "uint256",
          "name": "lastShareIndex",
          "type": "uint256"
        },
        {
          "indexed": false,
          "internalType": "uint256",
          "name": "credit",
          "type": "uint256"
        }
      ],
      "name": "UpdateCredit",
      "type": "event"
    },
    {
      "anonymous": false,
      "inputs": [
        {
          "indexed": false,
          "internalType": "uint256",
          "name": "shareIndex",
          "type": "uint256"
        }
      ],
      "name": "UpdateShareIndex",
      "type": "event"
    },
    {
      "inputs": [],
      "name": "advance",
      "outputs": [],
      "stateMutability": "nonpayable",
      "type": "function"
    },
    {
      "inputs": [],
      "name": "borrowable",
      "outputs": [
        {
          "internalType": "address",
          "name": "",
          "type": "address"
        }
      ],
      "stateMutability": "view",
      "type": "function"
    },
    {
      "inputs": [],
      "name": "claim",
      "outputs": [
        {
          "internalType": "uint256",
          "name": "amount",
          "type": "uint256"
        }
      ],
      "stateMutability": "nonpayable",
      "type": "function"
    },
    {
      "inputs": [
        {
          "internalType": "address",
          "name": "account",
          "type": "address"
        }
      ],
      "name": "claimAccount",
      "outputs": [
        {
          "internalType": "uint256",
          "name": "amount",
          "type": "uint256"
        }
      ],
      "stateMutability": "nonpayable",
      "type": "function"
    },
    {
      "inputs": [],
      "name": "claimable",
      "outputs": [
        {
          "internalType": "address",
          "name": "",
          "type": "address"
        }
      ],
      "stateMutability": "view",
      "type": "function"
    },
    {
      "inputs": [],
      "name": "epochAmount",
      "outputs": [
        {
          "internalType": "uint256",
          "name": "",
          "type": "uint256"
        }
      ],
      "stateMutability": "view",
      "type": "function"
    },
    {
      "inputs": [],
      "name": "epochBegin",
      "outputs": [
        {
          "internalType": "uint256",
          "name": "",
          "type": "uint256"
        }
      ],
      "stateMutability": "view",
      "type": "function"
    },
    {
      "inputs": [],
      "name": "imx",
      "outputs": [
        {
          "internalType": "address",
          "name": "",
          "type": "address"
        }
      ],
      "stateMutability": "view",
      "type": "function"
    },
    {
      "inputs": [],
      "name": "lastUpdate",
      "outputs": [
        {
          "internalType": "uint256",
          "name": "",
          "type": "uint256"
        }
      ],
      "stateMutability": "view",
      "type": "function"
    },
    {
      "inputs": [
        {
          "internalType": "address",
          "name": "",
          "type": "address"
        }
      ],
      "name": "recipients",
      "outputs": [
        {
          "internalType": "uint256",
          "name": "shares",
          "type": "uint256"
        },
        {
          "internalType": "uint256",
          "name": "lastShareIndex",
          "type": "uint256"
        },
        {
          "internalType": "uint256",
          "name": "credit",
          "type": "uint256"
        }
      ],
      "stateMutability": "view",
      "type": "function"
    },
    {
      "inputs": [],
      "name": "segmentLength",
      "outputs": [
        {
          "internalType": "uint256",
          "name": "",
          "type": "uint256"
        }
      ],
      "stateMutability": "view",
      "type": "function"
    },
    {
      "inputs": [],
      "name": "shareIndex",
      "outputs": [
        {
          "internalType": "uint256",
          "name": "",
          "type": "uint256"
        }
      ],
      "stateMutability": "view",
      "type": "function"
    },
    {
      "inputs": [],
      "name": "totalShares",
      "outputs": [
        {
          "internalType": "uint256",
          "name": "",
          "type": "uint256"
        }
      ],
      "stateMutability": "view",
      "type": "function"
    },
    {
      "inputs": [
        {
          "internalType": "address",
          "name": "borrower",
          "type": "address"
        },
        {
          "internalType": "uint256",
          "name": "borrowBalance",
          "type": "uint256"
        },
        {
          "internalType": "uint256",
          "name": "borrowIndex",
          "type": "uint256"
        }
      ],
      "name": "trackBorrow",
      "outputs": [],
      "stateMutability": "nonpayable",
      "type": "function"
    },
    {
      "inputs": [
        {
          "internalType": "address",
          "name": "account",
          "type": "address"
        }
      ],
      "name": "updateCredit",
      "outputs": [
        {
          "internalType": "uint256",
          "name": "credit",
          "type": "uint256"
        }
      ],
      "stateMutability": "nonpayable",
      "type": "function"
    },
    {
      "inputs": [],
      "name": "updateShareIndex",
      "outputs": [
        {
          "internalType": "uint256",
          "name": "_shareIndex",
          "type": "uint256"
        }
      ],
      "stateMutability": "nonpayable",
      "type": "function"
    },
    {
      "inputs": [],
      "name": "vestingBegin",
      "outputs": [
        {
          "internalType": "uint256",
          "name": "",
          "type": "uint256"
        }
      ],
      "stateMutability": "view",
      "type": "function"
    },
    {
      "inputs": [],
      "name": "getBlockTimestamp",
      "outputs": [
        {
          "internalType": "uint256",
          "name": "",
          "type": "uint256"
        }
      ],
      "stateMutability": "view",
      "type": "function"
    },
    {
      "inputs": [
        {
          "internalType": "uint256",
          "name": "blockTimestamp",
          "type": "uint256"
        }
      ],
      "name": "setBlockTimestamp",
      "outputs": [],
      "stateMutability": "nonpayable",
      "type": "function"
    }
  ],
  "bytecode": "0x6101206040526003805460ff1916600117905534801561001e57600080fd5b506040516111a43803806111a48339818101604052608081101561004157600080fd5b5080516020808301516040808501516060958601516001600160601b031986881b811660805284881b811660a0529682901b90961660c052815163e29bc68b60e01b8152915194959294909386928692869286926000926001600160a01b0385169263e29bc68b9260048082019391829003018186803b1580156100c457600080fd5b505afa1580156100d8573d6000803e3d6000fd5b505050506040513d60208110156100ee57600080fd5b505160e08190526040805163716b438560e11b815290519192506001600160a01b0384169163e2d6870a91600480820192602092909190829003018186803b15801561013957600080fd5b505afa15801561014d573d6000803e3d6000fd5b505050506040513d602081101561016357600080fd5b5051604080516384a1931f60e01b8152905183916001600160a01b038616916384a1931f91600480820192602092909190829003018186803b1580156101a857600080fd5b505afa1580156101bc573d6000803e3d6000fd5b505050506040513d60208110156101d257600080fd5b505103816101dc57fe5b046101005250505050505050505060805160601c60a05160601c60c05160601c60e05161010051610f40610264600039806105b152806105f3528061063552806107025280610859528061095c525080610731528061081e528061093952508061032e5280610755525080610564528061088d5250806103fd5280610c6c5250610f406000f3fe608060405234801561001057600080fd5b50600436106101515760003560e01c8063b260187d116100cd578063e0abdf6611610081578063e99a6ac711610066578063e99a6ac7146102b5578063ea105ac7146102bd578063eb820312146102c557610151565b8063e0abdf6614610290578063e29bc68b146102ad57610151565b8063c56ad1ad116100b2578063c56ad1ad14610278578063d013666e14610280578063d01b67171461028857610151565b8063b260187d14610268578063c04637111461027057610151565b806345c08718116101245780637429d95a116101095780637429d95a14610225578063796b89b914610258578063af38d7571461026057610151565b806345c08718146101ea5780634e71d92d1461021d57610151565b806305285d7f146101565780630f08025f146101975780632f5ee99b146101c85780633a98ef39146101e2575b600080fd5b6101956004803603606081101561016c57600080fd5b5073ffffffffffffffffffffffffffffffffffffffff8135169060208101359060400135610316565b005b61019f6103fb565b6040805173ffffffffffffffffffffffffffffffffffffffff9092168252519081900360200190f35b6101d061041f565b60408051918252519081900360200190f35b6101d0610425565b6101d06004803603602081101561020057600080fd5b503573ffffffffffffffffffffffffffffffffffffffff1661042b565b6101d061052b565b6101d06004803603602081101561023b57600080fd5b503573ffffffffffffffffffffffffffffffffffffffff16610543565b6101d061055c565b61019f610562565b6101d0610586565b6101d06106f4565b6101d06106fa565b6101d0610700565b6101d0610724565b610195600480360360208110156102a657600080fd5b503561072a565b6101d061072f565b61019f610753565b610195610777565b6102f8600480360360208110156102db57600080fd5b503573ffffffffffffffffffffffffffffffffffffffff16610a01565b60408051938452602084019290925282820152519081900360600190f35b3373ffffffffffffffffffffffffffffffffffffffff7f000000000000000000000000000000000000000000000000000000000000000016146103ba57604080517f08c379a000000000000000000000000000000000000000000000000000000000815260206004820152601960248201527f4661726d696e67506f6f6c3a20554e415554484f52495a454400000000000000604482015290519081900360640190fd5b60006103e9826103dd856c0100000000000000000000000063ffffffff610a2216565b9063ffffffff610a9c16565b90506103f58482610ade565b50505050565b7f000000000000000000000000000000000000000000000000000000000000000081565b60045481565b60015481565b600080610436610586565b905080610447576000915050610526565b73ffffffffffffffffffffffffffffffffffffffff831660009081526020819052604090208054600182015474010000000000000000000000000000000000000000916104ab9161049f90869063ffffffff610bac16565b9063ffffffff610a2216565b816104b257fe5b0481600201540192508181600101819055508281600201819055508373ffffffffffffffffffffffffffffffffffffffff167ff7240857a4f83123f14a7bc3f77cd32d0ae71ede635c92ebdcc14d5ea8ed018a8385604051808381526020018281526020019250505060405180910390a250505b919050565b6000610535610777565b61053d610bee565b90505b90565b600061054d610777565b61055682610bf5565b92915050565b60075490565b7f000000000000000000000000000000000000000000000000000000000000000081565b60006001546000141561059c5750600254610540565b6004546105ac5750600254610540565b6004547f00000000000000000000000000000000000000000000000000000000000000000160006105db61055c565b905060006105e98284610d2f565b60065490915081037f000000000000000000000000000000000000000000000000000000000000000081111561061b57fe5b8061062e57600254945050505050610540565b60006106697f00000000000000000000000000000000000000000000000000000000000000006103dd84600554610a2290919063ffffffff16565b90506106ab60025461069f6001546103dd7401000000000000000000000000000000000000000086610a2290919063ffffffff16565b9063ffffffff610d4516565b600281905560068490556040805182815290519197507f8cae7c5b456d193882de6985578f406aefb641501192211706c5aa0a32612fec919081900360200190a1505050505090565b60065481565b60025481565b7f000000000000000000000000000000000000000000000000000000000000000081565b60055481565b600755565b7f000000000000000000000000000000000000000000000000000000000000000081565b7f000000000000000000000000000000000000000000000000000000000000000081565b60035460ff166107e857604080517f08c379a000000000000000000000000000000000000000000000000000000000815260206004820152601660248201527f4469737472696275746f723a205245454e544552454400000000000000000000604482015290519081900360640190fd5b600380547fffffffffffffffffffffffffffffffffffffffffffffffffffffffffffffff00169055600061081a61055c565b90507f000000000000000000000000000000000000000000000000000000000000000081101561084a57506109d4565b600454801580159061087d57507f0000000000000000000000000000000000000000000000000000000000000000810182105b156108895750506109d4565b60007f000000000000000000000000000000000000000000000000000000000000000073ffffffffffffffffffffffffffffffffffffffff16634e71d92d6040518163ffffffff1660e01b8152600401602060405180830381600087803b1580156108f357600080fd5b505af1158015610907573d6000803e3d6000fd5b505050506040513d602081101561091d57600080fd5b505190508061092e575050506109d4565b610936610586565b507f000000000000000000000000000000000000000000000000000000000000000083037f0000000000000000000000000000000000000000000000000000000000000000818161098357fe5b068403600481905560058390556006819055604080519182526020820184905280517f80ed4614ab2b2c5fd2e6f2f0bb3c55b8bac2a16aee9296e0275b2214ebee65719281900390910190a1505050505b600380547fffffffffffffffffffffffffffffffffffffffffffffffffffffffffffffff00166001179055565b60006020819052908152604090208054600182015460029092015490919083565b600082610a3157506000610556565b82820282848281610a3e57fe5b0414610a95576040517f08c379a0000000000000000000000000000000000000000000000000000000008152600401808060200182810382526021815260200180610eea6021913960400191505060405180910390fd5b9392505050565b6000610a9583836040518060400160405280601a81526020017f536166654d6174683a206469766973696f6e206279207a65726f000000000000815250610db9565b610ae78261042b565b5073ffffffffffffffffffffffffffffffffffffffff8216600090815260208190526040812080549091818411610b3257600154610b2d9085840363ffffffff610bac16565b610b47565b600154610b479083860363ffffffff610d4516565b60018190558484556040805186815260208101839052815192935073ffffffffffffffffffffffffffffffffffffffff8816927fff3664f5f2f8f85ecd8d30ef2aa6773d8a8448219c7421dcbb67957fb3fafba1929181900390910190a25050505050565b6000610a9583836040518060400160405280601f81526020017f536166654d6174683a207375627472616374696f6e20756e646572666c6f7700815250610e75565b600061053d335b6000610c008261042b565b905080156105265773ffffffffffffffffffffffffffffffffffffffff80831660008181526020818152604080832060020183905580517fa9059cbb000000000000000000000000000000000000000000000000000000008152600481019490945260248401869052517f00000000000000000000000000000000000000000000000000000000000000009094169363a9059cbb93604480820194918390030190829087803b158015610cb257600080fd5b505af1158015610cc6573d6000803e3d6000fd5b505050506040513d6020811015610cdc57600080fd5b505060408051828152905173ffffffffffffffffffffffffffffffffffffffff8416917f47cee97cb7acd717b3c0aa1435d004cd5b3c8c57d70dbceb4e4458bbd60e39d4919081900360200190a2919050565b6000818310610d3e5781610a95565b5090919050565b600082820183811015610a9557604080517f08c379a000000000000000000000000000000000000000000000000000000000815260206004820152601b60248201527f536166654d6174683a206164646974696f6e206f766572666c6f770000000000604482015290519081900360640190fd5b60008183610e5f576040517f08c379a00000000000000000000000000000000000000000000000000000000081526004018080602001828103825283818151815260200191508051906020019080838360005b83811015610e24578181015183820152602001610e0c565b50505050905090810190601f168015610e515780820380516001836020036101000a031916815260200191505b509250505060405180910390fd5b506000838581610e6b57fe5b0495945050505050565b60008184841115610ee1576040517f08c379a0000000000000000000000000000000000000000000000000000000008152602060048201818152835160248401528351909283926044909101919085019080838360008315610e24578181015183820152602001610e0c565b50505090039056fe536166654d6174683a206d756c7469706c69636174696f6e206f766572666c6f77a2646970667358221220407efb4a67eb32495e6227297b4095360ddfe4bc9c9a10708065fef52f00737f64736f6c63430006060033",
  "immutableReferences": {
    "87": [
      {
        "length": 32,
        "start": 1021
      },
      {
        "length": 32,
        "start": 3180
      }
    ],
    "89": [
      {
        "length": 32,
        "start": 1380
      },
      {
        "length": 32,
        "start": 2189
      }
    ],
    "401": [
      {
        "length": 32,
        "start": 814
      },
      {
        "length": 32,
        "start": 1877
      }
    ],
    "403": [
      {
        "length": 32,
        "start": 1841
      },
      {
        "length": 32,
        "start": 2078
      },
      {
        "length": 32,
        "start": 2361
      }
    ],
    "405": [
      {
        "length": 32,
        "start": 1457
      },
      {
        "length": 32,
        "start": 1523
      },
      {
        "length": 32,
        "start": 1589
      },
      {
        "length": 32,
        "start": 1794
      },
      {
        "length": 32,
        "start": 2137
      },
      {
        "length": 32,
        "start": 2396
      }
    ]
  },
  "source": "pragma solidity =0.6.6;\r\n\r\nimport \"../../contracts/FarmingPool.sol\";\r\n\r\ncontract FarmingPoolHarness is FarmingPool {\r\n\t\r\n\tconstructor(\r\n\t\taddress imx_,\r\n\t\taddress claimable_,\r\n\t\taddress borrowable_,\r\n\t\taddress vester_\r\n\t) public FarmingPool(imx_, claimable_, borrowable_, vester_) {}\r\n\t\r\n\t\r\n\tuint _blockTimestamp;\r\n\tfunction getBlockTimestamp() public virtual override view returns (uint) {\r\n\t\treturn _blockTimestamp;\r\n\t}\r\n\tfunction setBlockTimestamp(uint blockTimestamp) public {\r\n\t\t_blockTimestamp = blockTimestamp;\r\n\t}\r\n\t\r\n}",
  "sourcePath": "C:/Users/simor/Desktop/imx/contracts/test/FarmingPoolHarness.sol",
  "compiler": {
    "name": "solc",
    "version": "0.6.6+commit.6c089d02.Emscripten.clang"
  },
  "schemaVersion": "3.3.2",
  "updatedAt": "2021-03-19T17:48:04.179Z",
  "devdoc": {
    "methods": {}
  },
  "userdoc": {
    "methods": {}
  }
}