{
  "contractName": "InitializedDistributor",
  "abi": [
    {
      "inputs": [
        {
          "internalType": "address",
          "name": "imx_",
          "type": "address"
        },
        {
          "internalType": "address",
          "name": "claimable_",
          "type": "address"
        },
        {
          "internalType": "bytes[]",
          "name": "data",
          "type": "bytes[]"
        }
      ],
      "stateMutability": "nonpayable",
      "type": "constructor"
    },
    {
      "anonymous": false,
      "inputs": [
        {
          "indexed": true,
          "internalType": "address",
          "name": "account",
          "type": "address"
        },
        {
          "indexed": false,
          "internalType": "uint256",
          "name": "amount",
          "type": "uint256"
        }
      ],
      "name": "Claim",
      "type": "event"
    },
    {
      "anonymous": false,
      "inputs": [
        {
          "indexed": true,
          "internalType": "address",
          "name": "account",
          "type": "address"
        },
        {
          "indexed": false,
          "internalType": "uint256",
          "name": "shares",
          "type": "uint256"
        },
        {
          "indexed": false,
          "internalType": "uint256",
          "name": "totalShares",
          "type": "uint256"
        }
      ],
      "name": "EditRecipient",
      "type": "event"
    },
    {
      "anonymous": false,
      "inputs": [
        {
          "indexed": true,
          "internalType": "address",
          "name": "account",
          "type": "address"
        },
        {
          "indexed": false,
          "internalType": "uint256",
          "name": "lastShareIndex",
          "type": "uint256"
        },
        {
          "indexed": false,
          "internalType": "uint256",
          "name": "credit",
          "type": "uint256"
        }
      ],
      "name": "UpdateCredit",
      "type": "event"
    },
    {
      "anonymous": false,
      "inputs": [
        {
          "indexed": false,
          "internalType": "uint256",
          "name": "shareIndex",
          "type": "uint256"
        }
      ],
      "name": "UpdateShareIndex",
      "type": "event"
    },
    {
      "inputs": [],
      "name": "claim",
      "outputs": [
        {
          "internalType": "uint256",
          "name": "amount",
          "type": "uint256"
        }
      ],
      "stateMutability": "nonpayable",
      "type": "function"
    },
    {
      "inputs": [],
      "name": "claimable",
      "outputs": [
        {
          "internalType": "address",
          "name": "",
          "type": "address"
        }
      ],
      "stateMutability": "view",
      "type": "function"
    },
    {
      "inputs": [],
      "name": "imx",
      "outputs": [
        {
          "internalType": "address",
          "name": "",
          "type": "address"
        }
      ],
      "stateMutability": "view",
      "type": "function"
    },
    {
      "inputs": [
        {
          "internalType": "address",
          "name": "",
          "type": "address"
        }
      ],
      "name": "recipients",
      "outputs": [
        {
          "internalType": "uint256",
          "name": "shares",
          "type": "uint256"
        },
        {
          "internalType": "uint256",
          "name": "lastShareIndex",
          "type": "uint256"
        },
        {
          "internalType": "uint256",
          "name": "credit",
          "type": "uint256"
        }
      ],
      "stateMutability": "view",
      "type": "function"
    },
    {
      "inputs": [],
      "name": "shareIndex",
      "outputs": [
        {
          "internalType": "uint256",
          "name": "",
          "type": "uint256"
        }
      ],
      "stateMutability": "view",
      "type": "function"
    },
    {
      "inputs": [],
      "name": "totalShares",
      "outputs": [
        {
          "internalType": "uint256",
          "name": "",
          "type": "uint256"
        }
      ],
      "stateMutability": "view",
      "type": "function"
    },
    {
      "inputs": [
        {
          "internalType": "address",
          "name": "account",
          "type": "address"
        }
      ],
      "name": "updateCredit",
      "outputs": [
        {
          "internalType": "uint256",
          "name": "credit",
          "type": "uint256"
        }
      ],
      "stateMutability": "nonpayable",
      "type": "function"
    },
    {
      "inputs": [],
      "name": "updateShareIndex",
      "outputs": [
        {
          "internalType": "uint256",
          "name": "_shareIndex",
          "type": "uint256"
        }
      ],
      "stateMutability": "nonpayable",
      "type": "function"
    }
  ],
  "bytecode": "0x60c06040526003805460ff191660011790553480156200001e57600080fd5b5060405162000cfd38038062000cfd833981016040819052620000419162000185565b6001600160601b0319606084811b821660805283901b1660a0526000805b8251811015620000d15762000073620000df565b8382815181106200008057fe5b60200260200101518060200190518101906200009d91906200024d565b6020808201805192516001600160a01b0316600090815291829052604090912091909155519290920191506001016200005f565b5060015550620002f7915050565b604080518082019091526000808252602082015290565b600082601f83011262000107578081fd5b81516001600160401b038111156200011d578182fd5b602062000133601f8301601f1916820162000297565b925081835284818386010111156200014a57600080fd5b60005b828110156200016a5784810182015184820183015281016200014d565b828111156200017c5760008284860101525b50505092915050565b6000806000606084860312156200019a578283fd5b8351620001a781620002de565b80935050602080850151620001bc81620002de565b60408601519093506001600160401b03811115620001d8578283fd5b80860187601f820112620001ea578384fd5b8051915062000203620001fd83620002be565b62000297565b82815283810190828501865b858110156200023c57620002298c888451880101620000f6565b845292860192908601906001016200020f565b505080955050505050509250925092565b6000604082840312156200025f578081fd5b6200026b604062000297565b82516001600160a01b038116811462000282578283fd5b81526020928301519281019290925250919050565b6040518181016001600160401b0381118282101715620002b657600080fd5b604052919050565b60006001600160401b03821115620002d4578081fd5b5060209081020190565b6001600160a01b0381168114620002f457600080fd5b50565b60805160601c60a05160601c6109d26200032b6000398061024b52806102f1525080610117528061058952506109d26000f3fe608060405234801561001057600080fd5b50600436106100885760003560e01c8063af38d7571161005b578063af38d757146100db578063b260187d146100e3578063c56ad1ad146100eb578063eb820312146100f357610088565b80630f08025f1461008d5780633a98ef39146100ab57806345c08718146100c05780634e71d92d146100d3575b600080fd5b610095610115565b6040516100a291906107ec565b60405180910390f35b6100b3610139565b6040516100a2919061096f565b6100b36100ce366004610780565b61013f565b6100b3610239565b610095610249565b6100b361026d565b6100b361045c565b610106610101366004610780565b610462565b6040516100a293929190610986565b7f000000000000000000000000000000000000000000000000000000000000000081565b60015481565b60008061014a61026d565b90508061015b576000915050610234565b73ffffffffffffffffffffffffffffffffffffffff831660009081526020819052604090208054600182015474010000000000000000000000000000000000000000916101bf916101b390869063ffffffff61048316565b9063ffffffff6104ce16565b816101c657fe5b0481600201540192508181600101819055508281600201819055508373ffffffffffffffffffffffffffffffffffffffff167ff7240857a4f83123f14a7bc3f77cd32d0ae71ede635c92ebdcc14d5ea8ed018a8385604051610229929190610978565b60405180910390a250505b919050565b600061024433610522565b905090565b7f000000000000000000000000000000000000000000000000000000000000000081565b60035460009060ff166102b5576040517f08c379a00000000000000000000000000000000000000000000000000000000081526004016102ac906108a4565b60405180910390fd5b600380547fffffffffffffffffffffffffffffffffffffffffffffffffffffffffffffff001690556001546102ed575060025461042e565b60007f000000000000000000000000000000000000000000000000000000000000000073ffffffffffffffffffffffffffffffffffffffff16634e71d92d6040518163ffffffff1660e01b8152600401602060405180830381600087803b15801561035757600080fd5b505af115801561036b573d6000803e3d6000fd5b505050506040513d601f19601f8201168201806040525081019061038f91906107d4565b9050806103a057505060025461042e565b6103ec6002546103e06001546103d474010000000000000000000000000000000000000000866104ce90919063ffffffff16565b9063ffffffff61066816565b9063ffffffff6106aa16565b9150816002819055507f8cae7c5b456d193882de6985578f406aefb641501192211706c5aa0a32612fec82604051610424919061096f565b60405180910390a1505b600380547fffffffffffffffffffffffffffffffffffffffffffffffffffffffffffffff0016600117905590565b60025481565b60006020819052908152604090208054600182015460029092015490919083565b60006104c583836040518060400160405280601f81526020017f536166654d6174683a207375627472616374696f6e20756e646572666c6f77008152506106e9565b90505b92915050565b6000826104dd575060006104c8565b828202828482816104ea57fe5b04146104c5576040517f08c379a00000000000000000000000000000000000000000000000000000000081526004016102ac90610912565b600061052d8261013f565b905080156102345773ffffffffffffffffffffffffffffffffffffffff80831660009081526020819052604080822060020191909155517fa9059cbb0000000000000000000000000000000000000000000000000000000081527f00000000000000000000000000000000000000000000000000000000000000009091169063a9059cbb906105c2908590859060040161080d565b602060405180830381600087803b1580156105dc57600080fd5b505af11580156105f0573d6000803e3d6000fd5b505050506040513d601f19601f8201168201806040525081019061061491906107b4565b508173ffffffffffffffffffffffffffffffffffffffff167f47cee97cb7acd717b3c0aa1435d004cd5b3c8c57d70dbceb4e4458bbd60e39d48260405161065b919061096f565b60405180910390a2919050565b60006104c583836040518060400160405280601a81526020017f536166654d6174683a206469766973696f6e206279207a65726f00000000000081525061072f565b6000828201838110156104c5576040517f08c379a00000000000000000000000000000000000000000000000000000000081526004016102ac906108db565b60008184841115610727576040517f08c379a00000000000000000000000000000000000000000000000000000000081526004016102ac9190610833565b505050900390565b6000818361076a576040517f08c379a00000000000000000000000000000000000000000000000000000000081526004016102ac9190610833565b50600083858161077657fe5b0495945050505050565b600060208284031215610791578081fd5b813573ffffffffffffffffffffffffffffffffffffffff811681146104c5578182fd5b6000602082840312156107c5578081fd5b815180151581146104c5578182fd5b6000602082840312156107e5578081fd5b5051919050565b73ffffffffffffffffffffffffffffffffffffffff91909116815260200190565b73ffffffffffffffffffffffffffffffffffffffff929092168252602082015260400190565b6000602080835283518082850152825b8181101561085f57858101830151858201604001528201610843565b818111156108705783604083870101525b50601f017fffffffffffffffffffffffffffffffffffffffffffffffffffffffffffffffe016929092016040019392505050565b60208082526016908201527f4469737472696275746f723a205245454e544552454400000000000000000000604082015260600190565b6020808252601b908201527f536166654d6174683a206164646974696f6e206f766572666c6f770000000000604082015260600190565b60208082526021908201527f536166654d6174683a206d756c7469706c69636174696f6e206f766572666c6f60408201527f7700000000000000000000000000000000000000000000000000000000000000606082015260800190565b90815260200190565b918252602082015260400190565b928352602083019190915260408201526060019056fea26469706673582212203882a7ba54318ff77f1ebc4a98b67be094f7de96b7081a8fb17924c339457af264736f6c63430006060033",
  "immutableReferences": {
    "87": [
      {
        "length": 32,
        "start": 279
      },
      {
        "length": 32,
        "start": 1417
      }
    ],
    "89": [
      {
        "length": 32,
        "start": 587
      },
      {
        "length": 32,
        "start": 753
      }
    ]
  },
  "source": "pragma solidity =0.6.6;\r\npragma experimental ABIEncoderV2;\r\n\r\nimport \"./Distributor.sol\";\r\n\r\ncontract InitializedDistributor is Distributor {\r\n\t\r\n\tstruct Shareholder {\r\n\t\taddress recipient;\r\n\t\tuint shares;\r\n\t}\r\n\r\n\tconstructor (\r\n\t\taddress imx_,\r\n\t\taddress claimable_,\r\n\t\tbytes[] memory data\r\n\t) public Distributor(imx_, claimable_) {\r\n\t\tuint _totalShares = 0;\r\n\t\tfor (uint i = 0; i < data.length; i++) {\r\n\t\t\tShareholder memory shareholder = abi.decode(data[i], (Shareholder));\r\n\t\t\trecipients[shareholder.recipient].shares = shareholder.shares;\r\n\t\t\t_totalShares += shareholder.shares;\r\n\t\t}\r\n\t\ttotalShares = _totalShares;\r\n\t}\r\n\r\n}",
  "sourcePath": "C:/Users/simor/Desktop/imx/contracts/InitializedDistributor.sol",
  "compiler": {
    "name": "solc",
    "version": "0.6.6+commit.6c089d02.Emscripten.clang"
  },
  "schemaVersion": "3.3.2",
  "updatedAt": "2021-03-19T17:48:04.132Z",
  "devdoc": {
    "methods": {}
  },
  "userdoc": {
    "methods": {}
  }
}