{
  "contractName": "InitializedDistributor",
  "abi": [
    {
      "inputs": [
        {
          "internalType": "address",
          "name": "imx_",
          "type": "address"
        },
        {
          "internalType": "address",
          "name": "claimable_",
          "type": "address"
        },
        {
          "internalType": "bytes[]",
          "name": "data",
          "type": "bytes[]"
        }
      ],
      "stateMutability": "nonpayable",
      "type": "constructor"
    },
    {
      "inputs": [],
      "name": "claim",
      "outputs": [
        {
          "internalType": "uint256",
          "name": "credit",
          "type": "uint256"
        }
      ],
      "stateMutability": "nonpayable",
      "type": "function"
    },
    {
      "inputs": [],
      "name": "claimable",
      "outputs": [
        {
          "internalType": "address",
          "name": "",
          "type": "address"
        }
      ],
      "stateMutability": "view",
      "type": "function"
    },
    {
      "inputs": [],
      "name": "imx",
      "outputs": [
        {
          "internalType": "address",
          "name": "",
          "type": "address"
        }
      ],
      "stateMutability": "view",
      "type": "function"
    },
    {
      "inputs": [
        {
          "internalType": "address",
          "name": "",
          "type": "address"
        }
      ],
      "name": "recipients",
      "outputs": [
        {
          "internalType": "uint256",
          "name": "shares",
          "type": "uint256"
        },
        {
          "internalType": "uint256",
          "name": "lastShareIndex",
          "type": "uint256"
        },
        {
          "internalType": "uint256",
          "name": "credit",
          "type": "uint256"
        }
      ],
      "stateMutability": "view",
      "type": "function"
    },
    {
      "inputs": [],
      "name": "shareIndex",
      "outputs": [
        {
          "internalType": "uint256",
          "name": "",
          "type": "uint256"
        }
      ],
      "stateMutability": "view",
      "type": "function"
    },
    {
      "inputs": [],
      "name": "totalShares",
      "outputs": [
        {
          "internalType": "uint256",
          "name": "",
          "type": "uint256"
        }
      ],
      "stateMutability": "view",
      "type": "function"
    },
    {
      "inputs": [
        {
          "internalType": "address",
          "name": "account",
          "type": "address"
        }
      ],
      "name": "updateCredit",
      "outputs": [
        {
          "internalType": "uint256",
          "name": "credit",
          "type": "uint256"
        }
      ],
      "stateMutability": "nonpayable",
      "type": "function"
    },
    {
      "inputs": [],
      "name": "updateShareIndex",
      "outputs": [
        {
          "internalType": "uint256",
          "name": "_shareIndex",
          "type": "uint256"
        }
      ],
      "stateMutability": "nonpayable",
      "type": "function"
    }
  ],
  "bytecode": "0x60c06040526003805460ff191660011790553480156200001e57600080fd5b5060405162000c0838038062000c08833981016040819052620000419162000185565b6001600160601b0319606084811b821660805283901b1660a0526000805b8251811015620000d15762000073620000df565b8382815181106200008057fe5b60200260200101518060200190518101906200009d91906200024d565b6020808201805192516001600160a01b0316600090815291829052604090912091909155519290920191506001016200005f565b5060015550620002ed915050565b604080518082019091526000808252602082015290565b600082601f83011262000107578081fd5b81516001600160401b038111156200011d578182fd5b602062000133601f8301601f191682016200028d565b925081835284818386010111156200014a57600080fd5b60005b828110156200016a5784810182015184820183015281016200014d565b828111156200017c5760008284860101525b50505092915050565b6000806000606084860312156200019a578283fd5b8351620001a781620002d4565b80935050602080850151620001bc81620002d4565b60408601519093506001600160401b03811115620001d8578283fd5b80860187601f820112620001ea578384fd5b8051915062000203620001fd83620002b4565b6200028d565b82815283810190828501865b858110156200023c57620002298c888451880101620000f6565b845292860192908601906001016200020f565b505080955050505050509250925092565b6000604082840312156200025f578081fd5b6200026b60406200028d565b82516200027881620002d4565b81526020928301519281019290925250919050565b6040518181016001600160401b0381118282101715620002ac57600080fd5b604052919050565b60006001600160401b03821115620002ca578081fd5b5060209081020190565b6001600160a01b0381168114620002ea57600080fd5b50565b60805160601c60a05160601c6108e762000321600039806101f5528061029b52508061011752806104fa52506108e76000f3fe608060405234801561001057600080fd5b50600436106100885760003560e01c8063af38d7571161005b578063af38d757146100db578063b260187d146100e3578063c56ad1ad146100eb578063eb820312146100f357610088565b80630f08025f1461008d5780633a98ef39146100ab57806345c08718146100c05780634e71d92d146100d3575b600080fd5b610095610115565b6040516100a2919061070f565b60405180910390f35b6100b3610139565b6040516100a29190610892565b6100b36100ce3660046106a3565b61013f565b6100b36101e3565b6100956101f3565b6100b3610217565b6100b36103cd565b6101066101013660046106a3565b6103d3565b6040516100a29392919061089b565b7f000000000000000000000000000000000000000000000000000000000000000081565b60015481565b60008061014a610217565b90508061015b5760009150506101de565b73ffffffffffffffffffffffffffffffffffffffff831660009081526020819052604090208054600182015474010000000000000000000000000000000000000000916101bf916101b390869063ffffffff6103f416565b9063ffffffff61043f16565b816101c657fe5b60028301805460019094019490945504019081905590505b919050565b60006101ee33610493565b905090565b7f000000000000000000000000000000000000000000000000000000000000000081565b60035460009060ff1661025f576040517f08c379a0000000000000000000000000000000000000000000000000000000008152600401610256906107c7565b60405180910390fd5b600380547fffffffffffffffffffffffffffffffffffffffffffffffffffffffffffffff00169055600154610297575060025461039f565b60007f000000000000000000000000000000000000000000000000000000000000000073ffffffffffffffffffffffffffffffffffffffff16634e71d92d6040518163ffffffff1660e01b8152600401602060405180830381600087803b15801561030157600080fd5b505af1158015610315573d6000803e3d6000fd5b505050506040513d601f19601f8201168201806040525081019061033991906106f7565b90508061034a57505060025461039f565b61039660025461038a60015461037e740100000000000000000000000000000000000000008661043f90919063ffffffff16565b9063ffffffff61058b16565b9063ffffffff6105cd16565b60028190559150505b600380547fffffffffffffffffffffffffffffffffffffffffffffffffffffffffffffff0016600117905590565b60025481565b60006020819052908152604090208054600182015460029092015490919083565b600061043683836040518060400160405280601f81526020017f536166654d6174683a207375627472616374696f6e20756e646572666c6f770081525061060c565b90505b92915050565b60008261044e57506000610439565b8282028284828161045b57fe5b0414610436576040517f08c379a000000000000000000000000000000000000000000000000000000000815260040161025690610835565b600061049e8261013f565b905080156101de5773ffffffffffffffffffffffffffffffffffffffff80831660009081526020819052604080822060020191909155517fa9059cbb0000000000000000000000000000000000000000000000000000000081527f00000000000000000000000000000000000000000000000000000000000000009091169063a9059cbb906105339085908590600401610730565b602060405180830381600087803b15801561054d57600080fd5b505af1158015610561573d6000803e3d6000fd5b505050506040513d601f19601f8201168201806040525081019061058591906106d7565b50919050565b600061043683836040518060400160405280601a81526020017f536166654d6174683a206469766973696f6e206279207a65726f000000000000815250610652565b600082820183811015610436576040517f08c379a0000000000000000000000000000000000000000000000000000000008152600401610256906107fe565b6000818484111561064a576040517f08c379a00000000000000000000000000000000000000000000000000000000081526004016102569190610756565b505050900390565b6000818361068d576040517f08c379a00000000000000000000000000000000000000000000000000000000081526004016102569190610756565b50600083858161069957fe5b0495945050505050565b6000602082840312156106b4578081fd5b813573ffffffffffffffffffffffffffffffffffffffff81168114610436578182fd5b6000602082840312156106e8578081fd5b81518015158114610436578182fd5b600060208284031215610708578081fd5b5051919050565b73ffffffffffffffffffffffffffffffffffffffff91909116815260200190565b73ffffffffffffffffffffffffffffffffffffffff929092168252602082015260400190565b6000602080835283518082850152825b8181101561078257858101830151858201604001528201610766565b818111156107935783604083870101525b50601f017fffffffffffffffffffffffffffffffffffffffffffffffffffffffffffffffe016929092016040019392505050565b60208082526016908201527f4469737472696275746f723a205245454e544552454400000000000000000000604082015260600190565b6020808252601b908201527f536166654d6174683a206164646974696f6e206f766572666c6f770000000000604082015260600190565b60208082526021908201527f536166654d6174683a206d756c7469706c69636174696f6e206f766572666c6f60408201527f7700000000000000000000000000000000000000000000000000000000000000606082015260800190565b90815260200190565b928352602083019190915260408201526060019056fea2646970667358221220cc99ee8f0b1d3e7265432fb2a0c14d3b6494befddb97bebe3dd83cca29df011464736f6c63430006060033",
  "immutableReferences": {
    "11": [
      {
        "length": 32,
        "start": 279
      },
      {
        "length": 32,
        "start": 1274
      }
    ],
    "13": [
      {
        "length": 32,
        "start": 501
      },
      {
        "length": 32,
        "start": 667
      }
    ]
  },
  "source": "pragma solidity =0.6.6;\r\npragma experimental ABIEncoderV2;\r\n\r\nimport \"./Distributor.sol\";\r\n\r\ncontract InitializedDistributor is Distributor {\r\n\t\r\n\tstruct Shareholder {\r\n\t\taddress recipient;\r\n\t\tuint shares;\r\n\t}\r\n\r\n\tconstructor (\r\n\t\taddress imx_,\r\n\t\taddress claimable_,\r\n\t\tbytes[] memory data\r\n\t) public Distributor(imx_, claimable_) {\r\n\t\tuint _totalShares = 0;\r\n\t\tfor (uint i = 0; i < data.length; i++) {\r\n\t\t\tShareholder memory shareholder = abi.decode(data[i], (Shareholder));\r\n\t\t\trecipients[shareholder.recipient].shares = shareholder.shares;\r\n\t\t\t_totalShares += shareholder.shares;\r\n\t\t}\r\n\t\ttotalShares = _totalShares;\r\n\t}\r\n\r\n}",
  "sourcePath": "C:/Users/simor/Desktop/imx/contracts/InitializedDistributor.sol",
  "compiler": {
    "name": "solc",
    "version": "0.6.6+commit.6c089d02.Emscripten.clang"
  },
  "schemaVersion": "3.3.2",
  "updatedAt": "2021-03-14T20:48:45.375Z",
  "devdoc": {
    "methods": {}
  },
  "userdoc": {
    "methods": {}
  }
}