{
  "contractName": "MockClaimable",
  "abi": [
    {
      "inputs": [
        {
          "internalType": "address",
          "name": "imx_",
          "type": "address"
        },
        {
          "internalType": "address",
          "name": "recipient_",
          "type": "address"
        }
      ],
      "stateMutability": "nonpayable",
      "type": "constructor"
    },
    {
      "inputs": [],
      "name": "imx",
      "outputs": [
        {
          "internalType": "address",
          "name": "",
          "type": "address"
        }
      ],
      "stateMutability": "view",
      "type": "function"
    },
    {
      "inputs": [],
      "name": "recipient",
      "outputs": [
        {
          "internalType": "address",
          "name": "",
          "type": "address"
        }
      ],
      "stateMutability": "view",
      "type": "function"
    },
    {
      "inputs": [
        {
          "internalType": "address",
          "name": "recipient_",
          "type": "address"
        }
      ],
      "name": "setRecipient",
      "outputs": [],
      "stateMutability": "nonpayable",
      "type": "function"
    },
    {
      "inputs": [],
      "name": "claim",
      "outputs": [
        {
          "internalType": "uint256",
          "name": "amount",
          "type": "uint256"
        }
      ],
      "stateMutability": "nonpayable",
      "type": "function"
    }
  ],
  "bytecode": "0x60a060405234801561001057600080fd5b506040516103b23803806103b28339818101604052604081101561003357600080fd5b508051602090910151606082901b6001600160601b031916608052600080546001600160a01b0319166001600160a01b039283161781559116906103259061008d90398060db528061018d528061025652506103256000f3fe608060405234801561001057600080fd5b506004361061004c5760003560e01c80630f08025f146100515780633bbed4a0146100825780634e71d92d146100b757806366d003ac146100d1575b600080fd5b6100596100d9565b6040805173ffffffffffffffffffffffffffffffffffffffff9092168252519081900360200190f35b6100b56004803603602081101561009857600080fd5b503573ffffffffffffffffffffffffffffffffffffffff166100fd565b005b6100bf610144565b60408051918252519081900360200190f35b6100596102d3565b7f000000000000000000000000000000000000000000000000000000000000000081565b600080547fffffffffffffffffffffffff00000000000000000000000000000000000000001673ffffffffffffffffffffffffffffffffffffffff92909216919091179055565b604080517f70a08231000000000000000000000000000000000000000000000000000000008152306004820152905160009173ffffffffffffffffffffffffffffffffffffffff7f000000000000000000000000000000000000000000000000000000000000000016916370a0823191602480820192602092909190829003018186803b1580156101d457600080fd5b505afa1580156101e8573d6000803e3d6000fd5b505050506040513d60208110156101fe57600080fd5b505160008054604080517fa9059cbb00000000000000000000000000000000000000000000000000000000815273ffffffffffffffffffffffffffffffffffffffff92831660048201526024810185905290519394507f00000000000000000000000000000000000000000000000000000000000000009091169263a9059cbb92604480840193602093929083900390910190829087803b1580156102a257600080fd5b505af11580156102b6573d6000803e3d6000fd5b505050506040513d60208110156102cc57600080fd5b5090919050565b60005473ffffffffffffffffffffffffffffffffffffffff168156fea2646970667358221220311eff0c5a0df269293d028ad676bfccec62c4f71de833abd9de8df490b0323664736f6c63430006060033",
  "immutableReferences": {
    "2986": [
      {
        "length": 32,
        "start": 219
      },
      {
        "length": 32,
        "start": 397
      },
      {
        "length": 32,
        "start": 598
      }
    ]
  },
  "source": "pragma solidity =0.6.6;\r\n\r\nimport \"../interfaces/IImx.sol\";\r\nimport \"../interfaces/IClaimable.sol\";\r\n\r\ncontract MockClaimable is IClaimable {\r\n\r\n\taddress public immutable imx;\r\n\taddress public recipient;\r\n\t\r\n\tconstructor(\r\n\t\taddress imx_,\r\n\t\taddress recipient_\r\n\t) public {\r\n\t\timx = imx_;\r\n\t\trecipient = recipient_;\r\n\t}\r\n\r\n\tfunction setRecipient(address recipient_) public {\r\n\t\trecipient = recipient_;\r\n\t}\r\n\r\n\tfunction claim() public override returns (uint amount) {\r\n\t\tamount = IImx(imx).balanceOf(address(this));\r\n\t\tIImx(imx).transfer(recipient, amount);\r\n\t}\r\n}",
  "sourcePath": "C:/Users/simor/Desktop/imx/contracts/test/MockClaimable.sol",
  "compiler": {
    "name": "solc",
    "version": "0.6.6+commit.6c089d02.Emscripten.clang"
  },
  "schemaVersion": "3.3.2",
  "updatedAt": "2021-03-09T19:15:19.118Z",
  "devdoc": {
    "methods": {}
  },
  "userdoc": {
    "methods": {}
  }
}