{
  "contractName": "OwnedDistributor",
  "abi": [
    {
      "inputs": [
        {
          "internalType": "address",
          "name": "imx_",
          "type": "address"
        },
        {
          "internalType": "address",
          "name": "claimable_",
          "type": "address"
        },
        {
          "internalType": "address",
          "name": "admin_",
          "type": "address"
        }
      ],
      "stateMutability": "nonpayable",
      "type": "constructor"
    },
    {
      "inputs": [],
      "name": "admin",
      "outputs": [
        {
          "internalType": "address",
          "name": "",
          "type": "address"
        }
      ],
      "stateMutability": "view",
      "type": "function"
    },
    {
      "inputs": [],
      "name": "claim",
      "outputs": [
        {
          "internalType": "uint256",
          "name": "credit",
          "type": "uint256"
        }
      ],
      "stateMutability": "nonpayable",
      "type": "function"
    },
    {
      "inputs": [],
      "name": "claimable",
      "outputs": [
        {
          "internalType": "address",
          "name": "",
          "type": "address"
        }
      ],
      "stateMutability": "view",
      "type": "function"
    },
    {
      "inputs": [],
      "name": "imx",
      "outputs": [
        {
          "internalType": "address",
          "name": "",
          "type": "address"
        }
      ],
      "stateMutability": "view",
      "type": "function"
    },
    {
      "inputs": [
        {
          "internalType": "address",
          "name": "",
          "type": "address"
        }
      ],
      "name": "recipients",
      "outputs": [
        {
          "internalType": "uint256",
          "name": "shares",
          "type": "uint256"
        },
        {
          "internalType": "uint256",
          "name": "lastShareIndex",
          "type": "uint256"
        },
        {
          "internalType": "uint256",
          "name": "credit",
          "type": "uint256"
        }
      ],
      "stateMutability": "view",
      "type": "function"
    },
    {
      "inputs": [],
      "name": "shareIndex",
      "outputs": [
        {
          "internalType": "uint256",
          "name": "",
          "type": "uint256"
        }
      ],
      "stateMutability": "view",
      "type": "function"
    },
    {
      "inputs": [],
      "name": "totalShares",
      "outputs": [
        {
          "internalType": "uint256",
          "name": "",
          "type": "uint256"
        }
      ],
      "stateMutability": "view",
      "type": "function"
    },
    {
      "inputs": [
        {
          "internalType": "address",
          "name": "account",
          "type": "address"
        }
      ],
      "name": "updateCredit",
      "outputs": [
        {
          "internalType": "uint256",
          "name": "credit",
          "type": "uint256"
        }
      ],
      "stateMutability": "nonpayable",
      "type": "function"
    },
    {
      "inputs": [],
      "name": "updateShareIndex",
      "outputs": [
        {
          "internalType": "uint256",
          "name": "_shareIndex",
          "type": "uint256"
        }
      ],
      "stateMutability": "nonpayable",
      "type": "function"
    },
    {
      "inputs": [
        {
          "internalType": "address",
          "name": "account",
          "type": "address"
        },
        {
          "internalType": "uint256",
          "name": "shares",
          "type": "uint256"
        }
      ],
      "name": "editRecipient",
      "outputs": [],
      "stateMutability": "nonpayable",
      "type": "function"
    },
    {
      "inputs": [
        {
          "internalType": "address",
          "name": "admin_",
          "type": "address"
        }
      ],
      "name": "setAdmin",
      "outputs": [],
      "stateMutability": "nonpayable",
      "type": "function"
    }
  ],
  "bytecode": "0x60c06040526003805460ff1916600117905534801561001d57600080fd5b50604051610bd7380380610bd78339818101604052606081101561004057600080fd5b5080516020820151604090920151606082811b6001600160601b03199081166080529084901b1660a05260038054610100600160a81b0319166101006001600160a01b03938416021790559081169116610b206100b7600039806104835280610555525080610235528061086c5250610b206000f3fe608060405234801561001057600080fd5b50600436106100c95760003560e01c8063704b6c0211610081578063c56ad1ad1161005b578063c56ad1ad146101d2578063eb820312146101da578063f851a4401461022b576100c9565b8063704b6c021461018f578063af38d757146101c2578063b260187d146101ca576100c9565b806345c08718116100b257806345c08718146101195780634674a9301461014c5780634e71d92d14610187576100c9565b80630f08025f146100ce5780633a98ef39146100ff575b600080fd5b6100d6610233565b6040805173ffffffffffffffffffffffffffffffffffffffff9092168252519081900360200190f35b610107610257565b60408051918252519081900360200190f35b6101076004803603602081101561012f57600080fd5b503573ffffffffffffffffffffffffffffffffffffffff1661025d565b6101856004803603604081101561016257600080fd5b5073ffffffffffffffffffffffffffffffffffffffff8135169060200135610301565b005b61010761039a565b610185600480360360208110156101a557600080fd5b503573ffffffffffffffffffffffffffffffffffffffff166103aa565b6100d6610481565b6101076104a5565b61010761067b565b61020d600480360360208110156101f057600080fd5b503573ffffffffffffffffffffffffffffffffffffffff16610681565b60408051938452602084019290925282820152519081900360600190f35b6100d66106a2565b7f000000000000000000000000000000000000000000000000000000000000000081565b60015481565b6000806102686104a5565b9050806102795760009150506102fc565b73ffffffffffffffffffffffffffffffffffffffff831660009081526020819052604090208054600182015474010000000000000000000000000000000000000000916102dd916102d190869063ffffffff6106c316565b9063ffffffff61070e16565b816102e457fe5b60028301805460019094019490945504019081905590505b919050565b600354610100900473ffffffffffffffffffffffffffffffffffffffff16331461038c57604080517f08c379a000000000000000000000000000000000000000000000000000000000815260206004820152601e60248201527f4f776e65644469737472696275746f723a20554e415554484f52495a45440000604482015290519081900360640190fd5b6103968282610781565b5050565b60006103a5336107f5565b905090565b600354610100900473ffffffffffffffffffffffffffffffffffffffff16331461043557604080517f08c379a000000000000000000000000000000000000000000000000000000000815260206004820152601e60248201527f4f776e65644469737472696275746f723a20554e415554484f52495a45440000604482015290519081900360640190fd5b6003805473ffffffffffffffffffffffffffffffffffffffff909216610100027fffffffffffffffffffffff0000000000000000000000000000000000000000ff909216919091179055565b7f000000000000000000000000000000000000000000000000000000000000000081565b60035460009060ff1661051957604080517f08c379a000000000000000000000000000000000000000000000000000000000815260206004820152601660248201527f4469737472696275746f723a205245454e544552454400000000000000000000604482015290519081900360640190fd5b600380547fffffffffffffffffffffffffffffffffffffffffffffffffffffffffffffff00169055600154610551575060025461064d565b60007f000000000000000000000000000000000000000000000000000000000000000073ffffffffffffffffffffffffffffffffffffffff16634e71d92d6040518163ffffffff1660e01b8152600401602060405180830381600087803b1580156105bb57600080fd5b505af11580156105cf573d6000803e3d6000fd5b505050506040513d60208110156105e557600080fd5b50519050806105f857505060025461064d565b61064460025461063860015461062c740100000000000000000000000000000000000000008661070e90919063ffffffff16565b9063ffffffff6108e316565b9063ffffffff61092516565b60028190559150505b600380547fffffffffffffffffffffffffffffffffffffffffffffffffffffffffffffff0016600117905590565b60025481565b60006020819052908152604090208054600182015460029092015490919083565b600354610100900473ffffffffffffffffffffffffffffffffffffffff1681565b600061070583836040518060400160405280601f81526020017f536166654d6174683a207375627472616374696f6e20756e646572666c6f7700815250610999565b90505b92915050565b60008261071d57506000610708565b8282028284828161072a57fe5b0414610705576040517f08c379a0000000000000000000000000000000000000000000000000000000008152600401808060200182810382526021815260200180610aca6021913960400191505060405180910390fd5b61078a8261025d565b5073ffffffffffffffffffffffffffffffffffffffff821660009081526020819052604090208054828110156107d7576001546107cf9082850363ffffffff61092516565b6001556107f0565b6001546107ec9084830363ffffffff6106c316565b6001555b505550565b60006108008261025d565b905080156102fc5773ffffffffffffffffffffffffffffffffffffffff80831660008181526020818152604080832060020183905580517fa9059cbb000000000000000000000000000000000000000000000000000000008152600481019490945260248401869052517f00000000000000000000000000000000000000000000000000000000000000009094169363a9059cbb93604480820194918390030190829087803b1580156108b257600080fd5b505af11580156108c6573d6000803e3d6000fd5b505050506040513d60208110156108dc57600080fd5b5050919050565b600061070583836040518060400160405280601a81526020017f536166654d6174683a206469766973696f6e206279207a65726f000000000000815250610a4a565b60008282018381101561070557604080517f08c379a000000000000000000000000000000000000000000000000000000000815260206004820152601b60248201527f536166654d6174683a206164646974696f6e206f766572666c6f770000000000604482015290519081900360640190fd5b60008184841115610a42576040517f08c379a00000000000000000000000000000000000000000000000000000000081526004018080602001828103825283818151815260200191508051906020019080838360005b83811015610a075781810151838201526020016109ef565b50505050905090810190601f168015610a345780820380516001836020036101000a031916815260200191505b509250505060405180910390fd5b505050900390565b60008183610ab3576040517f08c379a0000000000000000000000000000000000000000000000000000000008152602060048201818152835160248401528351909283926044909101919085019080838360008315610a075781810151838201526020016109ef565b506000838581610abf57fe5b049594505050505056fe536166654d6174683a206d756c7469706c69636174696f6e206f766572666c6f77a2646970667358221220a7ae38e8f4baa81136cf42969175ffc9e1eb22d580af2244cc557acaae70989564736f6c63430006060033",
  "immutableReferences": {
    "11": [
      {
        "length": 32,
        "start": 565
      },
      {
        "length": 32,
        "start": 2156
      }
    ],
    "13": [
      {
        "length": 32,
        "start": 1155
      },
      {
        "length": 32,
        "start": 1365
      }
    ]
  },
  "source": "pragma solidity =0.6.6;\r\n\r\nimport \"./Distributor.sol\";\r\n\r\ncontract OwnedDistributor is Distributor {\r\n\r\n\taddress public admin;\r\n\r\n\tconstructor (\r\n\t\taddress imx_,\r\n\t\taddress claimable_,\r\n\t\taddress admin_\r\n\t) public Distributor(imx_, claimable_) {\r\n\t\tadmin = admin_;\r\n\t}\r\n\r\n\tfunction editRecipient(address account, uint shares) public virtual {\r\n\t\trequire(msg.sender == admin, \"OwnedDistributor: UNAUTHORIZED\");\r\n\t\teditRecipientInternal(account, shares);\r\n\t}\r\n\r\n\tfunction setAdmin(address admin_) public virtual {\r\n\t\trequire(msg.sender == admin, \"OwnedDistributor: UNAUTHORIZED\");\r\n\t\tadmin = admin_;\r\n\t}\r\n}",
  "sourcePath": "C:/Users/simor/Desktop/imx/contracts/OwnedDistributor.sol",
  "compiler": {
    "name": "solc",
    "version": "0.6.6+commit.6c089d02.Emscripten.clang"
  },
  "schemaVersion": "3.3.2",
  "updatedAt": "2021-03-14T20:48:45.378Z",
  "devdoc": {
    "methods": {}
  },
  "userdoc": {
    "methods": {}
  }
}