{
  "contractName": "OwnedDistributor",
  "abi": [
    {
      "inputs": [
        {
          "internalType": "address",
          "name": "imx_",
          "type": "address"
        },
        {
          "internalType": "address",
          "name": "claimable_",
          "type": "address"
        },
        {
          "internalType": "address",
          "name": "admin_",
          "type": "address"
        }
      ],
      "stateMutability": "nonpayable",
      "type": "constructor"
    },
    {
      "inputs": [],
      "name": "admin",
      "outputs": [
        {
          "internalType": "address",
          "name": "",
          "type": "address"
        }
      ],
      "stateMutability": "view",
      "type": "function"
    },
    {
      "inputs": [],
      "name": "claim",
      "outputs": [
        {
          "internalType": "uint256",
          "name": "credit",
          "type": "uint256"
        }
      ],
      "stateMutability": "nonpayable",
      "type": "function"
    },
    {
      "inputs": [],
      "name": "claimable",
      "outputs": [
        {
          "internalType": "address",
          "name": "",
          "type": "address"
        }
      ],
      "stateMutability": "view",
      "type": "function"
    },
    {
      "inputs": [],
      "name": "imx",
      "outputs": [
        {
          "internalType": "address",
          "name": "",
          "type": "address"
        }
      ],
      "stateMutability": "view",
      "type": "function"
    },
    {
      "inputs": [
        {
          "internalType": "address",
          "name": "",
          "type": "address"
        }
      ],
      "name": "recipients",
      "outputs": [
        {
          "internalType": "uint256",
          "name": "shares",
          "type": "uint256"
        },
        {
          "internalType": "uint256",
          "name": "lastShareIndex",
          "type": "uint256"
        },
        {
          "internalType": "uint256",
          "name": "credit",
          "type": "uint256"
        }
      ],
      "stateMutability": "view",
      "type": "function"
    },
    {
      "inputs": [],
      "name": "shareIndex",
      "outputs": [
        {
          "internalType": "uint256",
          "name": "",
          "type": "uint256"
        }
      ],
      "stateMutability": "view",
      "type": "function"
    },
    {
      "inputs": [],
      "name": "totalShares",
      "outputs": [
        {
          "internalType": "uint256",
          "name": "",
          "type": "uint256"
        }
      ],
      "stateMutability": "view",
      "type": "function"
    },
    {
      "inputs": [
        {
          "internalType": "address",
          "name": "account",
          "type": "address"
        }
      ],
      "name": "updateCredit",
      "outputs": [
        {
          "internalType": "uint256",
          "name": "credit",
          "type": "uint256"
        }
      ],
      "stateMutability": "nonpayable",
      "type": "function"
    },
    {
      "inputs": [],
      "name": "updateShareIndex",
      "outputs": [
        {
          "internalType": "uint256",
          "name": "_shareIndex",
          "type": "uint256"
        }
      ],
      "stateMutability": "nonpayable",
      "type": "function"
    },
    {
      "inputs": [
        {
          "internalType": "address",
          "name": "account",
          "type": "address"
        },
        {
          "internalType": "uint256",
          "name": "shares",
          "type": "uint256"
        }
      ],
      "name": "editRecipient",
      "outputs": [],
      "stateMutability": "nonpayable",
      "type": "function"
    },
    {
      "inputs": [
        {
          "internalType": "address",
          "name": "admin_",
          "type": "address"
        }
      ],
      "name": "setAdmin",
      "outputs": [],
      "stateMutability": "nonpayable",
      "type": "function"
    }
  ],
  "bytecode": "0x60c06040526003805460ff1916600117905534801561001d57600080fd5b50604051610bc3380380610bc38339818101604052606081101561004057600080fd5b5080516020820151604090920151606082811b6001600160601b03199081166080529084901b1660a05260038054610100600160a81b0319166101006001600160a01b03938416021790559081169116610b0c6100b76000398061055d528061062f52508061023552806103fa5250610b0c6000f3fe608060405234801561001057600080fd5b50600436106100c95760003560e01c8063704b6c0211610081578063c56ad1ad1161005b578063c56ad1ad146101d2578063eb820312146101da578063f851a4401461022b576100c9565b8063704b6c021461018f578063af38d757146101c2578063b260187d146101ca576100c9565b806345c08718116100b257806345c08718146101195780634674a9301461014c5780634e71d92d14610187576100c9565b80630f08025f146100ce5780633a98ef39146100ff575b600080fd5b6100d6610233565b6040805173ffffffffffffffffffffffffffffffffffffffff9092168252519081900360200190f35b610107610257565b60408051918252519081900360200190f35b6101076004803603602081101561012f57600080fd5b503573ffffffffffffffffffffffffffffffffffffffff1661025d565b6101856004803603604081101561016257600080fd5b5073ffffffffffffffffffffffffffffffffffffffff8135169060200135610301565b005b61010761039a565b610185600480360360208110156101a557600080fd5b503573ffffffffffffffffffffffffffffffffffffffff16610484565b6100d661055b565b61010761057f565b610107610755565b61020d600480360360208110156101f057600080fd5b503573ffffffffffffffffffffffffffffffffffffffff1661075b565b60408051938452602084019290925282820152519081900360600190f35b6100d661077c565b7f000000000000000000000000000000000000000000000000000000000000000081565b60015481565b60008061026861057f565b9050806102795760009150506102fc565b73ffffffffffffffffffffffffffffffffffffffff831660009081526020819052604090208054600182015474010000000000000000000000000000000000000000916102dd916102d190869063ffffffff61079d16565b9063ffffffff6107e816565b816102e457fe5b60028301805460019094019490945504019081905590505b919050565b600354610100900473ffffffffffffffffffffffffffffffffffffffff16331461038c57604080517f08c379a000000000000000000000000000000000000000000000000000000000815260206004820152601e60248201527f4f776e65644469737472696275746f723a20554e415554484f52495a45440000604482015290519081900360640190fd5b610396828261085b565b5050565b60006103a53361025d565b90508015610481573360008181526020818152604080832060020183905580517fa9059cbb000000000000000000000000000000000000000000000000000000008152600481019490945260248401859052517f000000000000000000000000000000000000000000000000000000000000000073ffffffffffffffffffffffffffffffffffffffff169363a9059cbb9360448083019493928390030190829087803b15801561045457600080fd5b505af1158015610468573d6000803e3d6000fd5b505050506040513d602081101561047e57600080fd5b50505b90565b600354610100900473ffffffffffffffffffffffffffffffffffffffff16331461050f57604080517f08c379a000000000000000000000000000000000000000000000000000000000815260206004820152601e60248201527f4f776e65644469737472696275746f723a20554e415554484f52495a45440000604482015290519081900360640190fd5b6003805473ffffffffffffffffffffffffffffffffffffffff909216610100027fffffffffffffffffffffff0000000000000000000000000000000000000000ff909216919091179055565b7f000000000000000000000000000000000000000000000000000000000000000081565b60035460009060ff166105f357604080517f08c379a000000000000000000000000000000000000000000000000000000000815260206004820152601660248201527f4469737472696275746f723a205245454e544552454400000000000000000000604482015290519081900360640190fd5b600380547fffffffffffffffffffffffffffffffffffffffffffffffffffffffffffffff0016905560015461062b5750600254610727565b60007f000000000000000000000000000000000000000000000000000000000000000073ffffffffffffffffffffffffffffffffffffffff16634e71d92d6040518163ffffffff1660e01b8152600401602060405180830381600087803b15801561069557600080fd5b505af11580156106a9573d6000803e3d6000fd5b505050506040513d60208110156106bf57600080fd5b50519050806106d2575050600254610727565b61071e60025461071260015461070674010000000000000000000000000000000000000000866107e890919063ffffffff16565b9063ffffffff6108cf16565b9063ffffffff61091116565b60028190559150505b600380547fffffffffffffffffffffffffffffffffffffffffffffffffffffffffffffff0016600117905590565b60025481565b60006020819052908152604090208054600182015460029092015490919083565b600354610100900473ffffffffffffffffffffffffffffffffffffffff1681565b60006107df83836040518060400160405280601f81526020017f536166654d6174683a207375627472616374696f6e20756e646572666c6f7700815250610985565b90505b92915050565b6000826107f7575060006107e2565b8282028284828161080457fe5b04146107df576040517f08c379a0000000000000000000000000000000000000000000000000000000008152600401808060200182810382526021815260200180610ab66021913960400191505060405180910390fd5b6108648261025d565b5073ffffffffffffffffffffffffffffffffffffffff821660009081526020819052604090208054828110156108b1576001546108a99082850363ffffffff61091116565b6001556108ca565b6001546108c69084830363ffffffff61079d16565b6001555b505550565b60006107df83836040518060400160405280601a81526020017f536166654d6174683a206469766973696f6e206279207a65726f000000000000815250610a36565b6000828201838110156107df57604080517f08c379a000000000000000000000000000000000000000000000000000000000815260206004820152601b60248201527f536166654d6174683a206164646974696f6e206f766572666c6f770000000000604482015290519081900360640190fd5b60008184841115610a2e576040517f08c379a00000000000000000000000000000000000000000000000000000000081526004018080602001828103825283818151815260200191508051906020019080838360005b838110156109f35781810151838201526020016109db565b50505050905090810190601f168015610a205780820380516001836020036101000a031916815260200191505b509250505060405180910390fd5b505050900390565b60008183610a9f576040517f08c379a00000000000000000000000000000000000000000000000000000000081526020600482018181528351602484015283519092839260449091019190850190808383600083156109f35781810151838201526020016109db565b506000838581610aab57fe5b049594505050505056fe536166654d6174683a206d756c7469706c69636174696f6e206f766572666c6f77a26469706673582212202cf11b04b35b24a6cc0da70b194934ddf9943506db22c910ca6659ef2d1e8ccf64736f6c63430006060033",
  "immutableReferences": {
    "11": [
      {
        "length": 32,
        "start": 565
      },
      {
        "length": 32,
        "start": 1018
      }
    ],
    "13": [
      {
        "length": 32,
        "start": 1373
      },
      {
        "length": 32,
        "start": 1583
      }
    ]
  },
  "source": "pragma solidity =0.6.6;\r\n\r\nimport \"./Distributor.sol\";\r\n\r\ncontract OwnedDistributor is Distributor {\r\n\r\n\taddress public admin;\r\n\r\n\tconstructor (\r\n\t\taddress imx_,\r\n\t\taddress claimable_,\r\n\t\taddress admin_\r\n\t) public Distributor(imx_, claimable_) {\r\n\t\tadmin = admin_;\r\n\t}\r\n\r\n\tfunction editRecipient(address account, uint shares) public virtual {\r\n\t\trequire(msg.sender == admin, \"OwnedDistributor: UNAUTHORIZED\");\r\n\t\teditRecipientInternal(account, shares);\r\n\t}\r\n\r\n\tfunction setAdmin(address admin_) public virtual {\r\n\t\trequire(msg.sender == admin, \"OwnedDistributor: UNAUTHORIZED\");\r\n\t\tadmin = admin_;\r\n\t}\r\n}",
  "sourcePath": "C:/Users/simor/Desktop/imx/contracts/OwnedDistributor.sol",
  "compiler": {
    "name": "solc",
    "version": "0.6.6+commit.6c089d02.Emscripten.clang"
  },
  "schemaVersion": "3.3.2",
  "updatedAt": "2021-03-09T19:15:19.090Z",
  "devdoc": {
    "methods": {}
  },
  "userdoc": {
    "methods": {}
  }
}