{
  "contractName": "TreasuryDistributor",
  "abi": [
    {
      "inputs": [
        {
          "internalType": "address",
          "name": "imx_",
          "type": "address"
        },
        {
          "internalType": "address",
          "name": "admin_",
          "type": "address"
        },
        {
          "internalType": "address",
          "name": "claimable_",
          "type": "address"
        }
      ],
      "payable": false,
      "stateMutability": "nonpayable",
      "type": "constructor"
    },
    {
      "constant": true,
      "inputs": [],
      "name": "admin",
      "outputs": [
        {
          "internalType": "address",
          "name": "",
          "type": "address"
        }
      ],
      "payable": false,
      "stateMutability": "view",
      "type": "function"
    },
    {
      "constant": true,
      "inputs": [],
      "name": "claimable",
      "outputs": [
        {
          "internalType": "address",
          "name": "",
          "type": "address"
        }
      ],
      "payable": false,
      "stateMutability": "view",
      "type": "function"
    },
    {
      "constant": true,
      "inputs": [],
      "name": "imx",
      "outputs": [
        {
          "internalType": "address",
          "name": "",
          "type": "address"
        }
      ],
      "payable": false,
      "stateMutability": "view",
      "type": "function"
    },
    {
      "constant": true,
      "inputs": [
        {
          "internalType": "uint256",
          "name": "",
          "type": "uint256"
        }
      ],
      "name": "recipients",
      "outputs": [
        {
          "internalType": "address",
          "name": "account",
          "type": "address"
        },
        {
          "internalType": "uint256",
          "name": "shares",
          "type": "uint256"
        }
      ],
      "payable": false,
      "stateMutability": "view",
      "type": "function"
    },
    {
      "constant": true,
      "inputs": [],
      "name": "sharesDistributed",
      "outputs": [
        {
          "internalType": "uint256",
          "name": "",
          "type": "uint256"
        }
      ],
      "payable": false,
      "stateMutability": "view",
      "type": "function"
    },
    {
      "constant": true,
      "inputs": [],
      "name": "sharesTotal",
      "outputs": [
        {
          "internalType": "uint256",
          "name": "",
          "type": "uint256"
        }
      ],
      "payable": false,
      "stateMutability": "view",
      "type": "function"
    },
    {
      "constant": false,
      "inputs": [
        {
          "internalType": "address",
          "name": "admin_",
          "type": "address"
        }
      ],
      "name": "setAdmin",
      "outputs": [],
      "payable": false,
      "stateMutability": "nonpayable",
      "type": "function"
    },
    {
      "constant": false,
      "inputs": [
        {
          "internalType": "address",
          "name": "account",
          "type": "address"
        },
        {
          "internalType": "uint256",
          "name": "shares",
          "type": "uint256"
        }
      ],
      "name": "addRecipient",
      "outputs": [],
      "payable": false,
      "stateMutability": "nonpayable",
      "type": "function"
    },
    {
      "constant": false,
      "inputs": [],
      "name": "claim",
      "outputs": [],
      "payable": false,
      "stateMutability": "nonpayable",
      "type": "function"
    }
  ],
  "bytecode": "0x60806040526001600560006101000a81548160ff02191690831515021790555034801561002b57600080fd5b506040516110b93803806110b98339818101604052606081101561004e57600080fd5b81019080805190602001909291908051906020019092919080519060200190929190505050826000806101000a81548173ffffffffffffffffffffffffffffffffffffffff021916908373ffffffffffffffffffffffffffffffffffffffff16021790555081600160006101000a81548173ffffffffffffffffffffffffffffffffffffffff021916908373ffffffffffffffffffffffffffffffffffffffff16021790555080600260006101000a81548173ffffffffffffffffffffffffffffffffffffffff021916908373ffffffffffffffffffffffffffffffffffffffff160217905550505050610f72806101476000396000f3fe608060405234801561001057600080fd5b50600436106100935760003560e01c8063704b6c0211610066578063704b6c0214610128578063af38d7571461016c578063d1bc76a1146101b6578063f79822431461022b578063f851a4401461027957610093565b80630f08025f1461009857806344a3955e146100e25780634e71d92d1461010057806369b5ce001461010a575b600080fd5b6100a06102c3565b604051808273ffffffffffffffffffffffffffffffffffffffff1673ffffffffffffffffffffffffffffffffffffffff16815260200191505060405180910390f35b6100ea6102e8565b6040518082815260200191505060405180910390f35b6101086102f4565b005b61011261087c565b6040518082815260200191505060405180910390f35b61016a6004803603602081101561013e57600080fd5b81019080803573ffffffffffffffffffffffffffffffffffffffff169060200190929190505050610882565b005b61017461096c565b604051808273ffffffffffffffffffffffffffffffffffffffff1673ffffffffffffffffffffffffffffffffffffffff16815260200191505060405180910390f35b6101e2600480360360208110156101cc57600080fd5b8101908080359060200190929190505050610992565b604051808373ffffffffffffffffffffffffffffffffffffffff1673ffffffffffffffffffffffffffffffffffffffff1681526020018281526020019250505060405180910390f35b6102776004803603604081101561024157600080fd5b81019080803573ffffffffffffffffffffffffffffffffffffffff169060200190929190803590602001909291905050506109e3565b005b610281610c7e565b604051808273ffffffffffffffffffffffffffffffffffffffff1673ffffffffffffffffffffffffffffffffffffffff16815260200191505060405180910390f35b6000809054906101000a900473ffffffffffffffffffffffffffffffffffffffff1681565b670de0b6b3a764000081565b600560009054906101000a900460ff16610376576040517f08c379a000000000000000000000000000000000000000000000000000000000815260040180806020018281038252601e8152602001807f54726561737572794469737472696275746f723a205245454e5445524544000081525060200191505060405180910390fd5b6000600560006101000a81548160ff021916908315150217905550600260009054906101000a900473ffffffffffffffffffffffffffffffffffffffff1673ffffffffffffffffffffffffffffffffffffffff16634e71d92d6040518163ffffffff1660e01b8152600401600060405180830381600087803b1580156103fb57600080fd5b505af115801561040f573d6000803e3d6000fd5b5050505060008060009054906101000a900473ffffffffffffffffffffffffffffffffffffffff1673ffffffffffffffffffffffffffffffffffffffff166370a08231306040518263ffffffff1660e01b8152600401808273ffffffffffffffffffffffffffffffffffffffff1673ffffffffffffffffffffffffffffffffffffffff16815260200191505060206040518083038186803b1580156104b357600080fd5b505afa1580156104c7573d6000803e3d6000fd5b505050506040513d60208110156104dd57600080fd5b8101908080519060200190929190505050905060008090505b60038054905081101561067c576000809054906101000a900473ffffffffffffffffffffffffffffffffffffffff1673ffffffffffffffffffffffffffffffffffffffff1663a9059cbb6003838154811061054d57fe5b906000526020600020906002020160000160009054906101000a900473ffffffffffffffffffffffffffffffffffffffff166105ca670de0b6b3a76400006105bc6003878154811061059b57fe5b90600052602060002090600202016001015488610ca490919063ffffffff16565b610d2a90919063ffffffff16565b6040518363ffffffff1660e01b8152600401808373ffffffffffffffffffffffffffffffffffffffff1673ffffffffffffffffffffffffffffffffffffffff16815260200182815260200192505050602060405180830381600087803b15801561063357600080fd5b505af1158015610647573d6000803e3d6000fd5b505050506040513d602081101561065d57600080fd5b81019080805190602001909291905050505080806001019150506104f6565b506000809054906101000a900473ffffffffffffffffffffffffffffffffffffffff1673ffffffffffffffffffffffffffffffffffffffff166370a08231306040518263ffffffff1660e01b8152600401808273ffffffffffffffffffffffffffffffffffffffff1673ffffffffffffffffffffffffffffffffffffffff16815260200191505060206040518083038186803b15801561071b57600080fd5b505afa15801561072f573d6000803e3d6000fd5b505050506040513d602081101561074557600080fd5b810190808051906020019092919050505090506000809054906101000a900473ffffffffffffffffffffffffffffffffffffffff1673ffffffffffffffffffffffffffffffffffffffff1663a9059cbb600160009054906101000a900473ffffffffffffffffffffffffffffffffffffffff16836040518363ffffffff1660e01b8152600401808373ffffffffffffffffffffffffffffffffffffffff1673ffffffffffffffffffffffffffffffffffffffff16815260200182815260200192505050602060405180830381600087803b15801561082257600080fd5b505af1158015610836573d6000803e3d6000fd5b505050506040513d602081101561084c57600080fd5b810190808051906020019092919050505050506001600560006101000a81548160ff021916908315150217905550565b60045481565b600160009054906101000a900473ffffffffffffffffffffffffffffffffffffffff1673ffffffffffffffffffffffffffffffffffffffff163373ffffffffffffffffffffffffffffffffffffffff1614610928576040517f08c379a000000000000000000000000000000000000000000000000000000000815260040180806020018281038252602b815260200180610ee4602b913960400191505060405180910390fd5b80600160006101000a81548173ffffffffffffffffffffffffffffffffffffffff021916908373ffffffffffffffffffffffffffffffffffffffff16021790555050565b600260009054906101000a900473ffffffffffffffffffffffffffffffffffffffff1681565b6003818154811061099f57fe5b90600052602060002090600202016000915090508060000160009054906101000a900473ffffffffffffffffffffffffffffffffffffffff16908060010154905082565b600160009054906101000a900473ffffffffffffffffffffffffffffffffffffffff1673ffffffffffffffffffffffffffffffffffffffff163373ffffffffffffffffffffffffffffffffffffffff1614610a89576040517f08c379a000000000000000000000000000000000000000000000000000000000815260040180806020018281038252602f815260200180610f0f602f913960400191505060405180910390fd5b670de0b6b3a7640000610aa782600454610d7490919063ffffffff16565b1115610afe576040517f08c379a000000000000000000000000000000000000000000000000000000000815260040180806020018281038252602f815260200180610f0f602f913960400191505060405180910390fd5b8060046000828254019250508190555060008090505b600380549050811015610bcd578273ffffffffffffffffffffffffffffffffffffffff1660038281548110610b4557fe5b906000526020600020906002020160000160009054906101000a900473ffffffffffffffffffffffffffffffffffffffff1673ffffffffffffffffffffffffffffffffffffffff161415610bc0578160038281548110610ba157fe5b9060005260206000209060020201600101600082825401925050819055505b8080600101915050610b14565b50600360405180604001604052808473ffffffffffffffffffffffffffffffffffffffff168152602001838152509080600181540180825580915050906001820390600052602060002090600202016000909192909190915060008201518160000160006101000a81548173ffffffffffffffffffffffffffffffffffffffff021916908373ffffffffffffffffffffffffffffffffffffffff160217905550602082015181600101555050505050565b600160009054906101000a900473ffffffffffffffffffffffffffffffffffffffff1681565b600080831415610cb75760009050610d24565b6000828402905082848281610cc857fe5b0414610d1f576040517f08c379a0000000000000000000000000000000000000000000000000000000008152600401808060200182810382526021815260200180610ec36021913960400191505060405180910390fd5b809150505b92915050565b6000610d6c83836040518060400160405280601a81526020017f536166654d6174683a206469766973696f6e206279207a65726f000000000000815250610dfc565b905092915050565b600080828401905083811015610df2576040517f08c379a000000000000000000000000000000000000000000000000000000000815260040180806020018281038252601b8152602001807f536166654d6174683a206164646974696f6e206f766572666c6f77000000000081525060200191505060405180910390fd5b8091505092915050565b60008083118290610ea8576040517f08c379a00000000000000000000000000000000000000000000000000000000081526004018080602001828103825283818151815260200191508051906020019080838360005b83811015610e6d578082015181840152602081019050610e52565b50505050905090810190601f168015610e9a5780820380516001836020036101000a031916815260200191505b509250505060405180910390fd5b506000838581610eb457fe5b04905080915050939250505056fe536166654d6174683a206d756c7469706c69636174696f6e206f766572666c6f7754726561737572794469737472696275746f723a3a73657441646d696e3a20756e617574686f72697a656454726561737572794469737472696275746f723a3a616464526563697069656e743a20756e617574686f72697a6564a265627a7a72315820457079d5fb20950293b80ea387eada5a8ff994c5427de08baa00d8588cb4d89f64736f6c63430005100032",
  "source": "pragma solidity ^0.5.16;\r\n\r\nimport \"./libraries/SafeMath.sol\";\r\nimport \"./interfaces/IImx.sol\";\r\nimport \"./interfaces/IClaimable.sol\";\r\n\r\n/*\r\n * Distributes own balance to recipients according to distributed shares\r\n * If not 100% of the shares is distributed the default address is the admin\r\n */\r\n\r\ncontract TreasuryDistributor is IClaimable {\r\n\tusing SafeMath for uint;\r\n\r\n\taddress public imx;\r\n\taddress public admin;\r\n\taddress public claimable;\r\n\r\n\tstruct Recipient {\r\n\t\taddress account;\r\n\t\tuint shares;\r\n\t}\r\n\tRecipient[] public recipients;\r\n\t\r\n\tuint public sharesDistributed;\r\n\tuint public constant sharesTotal = 1e18;\r\n\r\n\tconstructor (\r\n\t\taddress imx_,\r\n\t\taddress admin_,\r\n\t\taddress claimable_\r\n\t) public {\r\n\t\timx = imx_;\r\n\t\tadmin = admin_;\r\n\t\tclaimable = claimable_;\r\n\t}\r\n\r\n\tfunction setAdmin(address admin_) public {\r\n\t\trequire(msg.sender == admin, \"TreasuryDistributor::setAdmin: unauthorized\");\r\n\t\tadmin = admin_;\r\n\t}\r\n\r\n\tfunction addRecipient(address account, uint shares) public {\r\n\t\trequire(msg.sender == admin, \"TreasuryDistributor::addRecipient: unauthorized\");\r\n\t\trequire(sharesDistributed.add(shares) <= sharesTotal, \"TreasuryDistributor::addRecipient: unauthorized\");\r\n\t\tsharesDistributed += shares;\r\n\t\t\r\n\t\tfor (uint i = 0; i < recipients.length; i++) {\r\n\t\t\tif (recipients[i].account == account) {\r\n\t\t\t\trecipients[i].shares += shares;\r\n\t\t\t}\r\n\t\t}\r\n\t\t\r\n\t\trecipients.push(Recipient(account, shares));\r\n\t}\r\n\r\n\tfunction claim() public nonReentrant {\r\n\t\tIClaimable(claimable).claim();\r\n\t\tuint amount = IImx(imx).balanceOf(address(this));\r\n\t\t\r\n\t\tfor (uint i = 0; i < recipients.length; i++) {\r\n\t\t\tIImx(imx).transfer( recipients[i].account, amount.mul(recipients[i].shares).div(sharesTotal) );\r\n\t\t}\r\n\t\t\r\n\t\tamount = IImx(imx).balanceOf(address(this));\r\n\t\tIImx(imx).transfer(admin, amount);\r\n\t}\r\n\t\r\n\t// Prevents a contract from calling itself, directly or indirectly.\r\n\tbool internal _notEntered = true;\r\n\tmodifier nonReentrant() {\r\n\t\trequire(_notEntered, \"TreasuryDistributor: REENTERED\");\r\n\t\t_notEntered = false;\r\n\t\t_;\r\n\t\t_notEntered = true;\r\n\t}\r\n}",
  "sourcePath": "C:/Users/simor/Desktop/imx-governance/contracts/TreasuryDistributor.sol",
  "compiler": {
    "name": "solc",
    "version": "0.5.16+commit.9c3226ce.Emscripten.clang"
  },
  "schemaVersion": "3.3.2",
  "updatedAt": "2020-12-08T12:23:00.271Z",
  "networkType": "ethereum",
  "devdoc": {
    "methods": {}
  },
  "userdoc": {
    "methods": {}
  }
}