{
  "contractName": "TreasuryVester",
  "abi": [
    {
      "inputs": [
        {
          "internalType": "address",
          "name": "imx_",
          "type": "address"
        },
        {
          "internalType": "address",
          "name": "recipient_",
          "type": "address"
        },
        {
          "internalType": "uint256",
          "name": "vestingAmount_",
          "type": "uint256"
        },
        {
          "internalType": "uint256",
          "name": "vestingBegin_",
          "type": "uint256"
        },
        {
          "internalType": "uint256",
          "name": "vestingCliff_",
          "type": "uint256"
        },
        {
          "internalType": "uint256",
          "name": "vestingEnd_",
          "type": "uint256"
        }
      ],
      "payable": false,
      "stateMutability": "nonpayable",
      "type": "constructor"
    },
    {
      "constant": true,
      "inputs": [],
      "name": "imx",
      "outputs": [
        {
          "internalType": "address",
          "name": "",
          "type": "address"
        }
      ],
      "payable": false,
      "stateMutability": "view",
      "type": "function"
    },
    {
      "constant": true,
      "inputs": [],
      "name": "lastUpdate",
      "outputs": [
        {
          "internalType": "uint256",
          "name": "",
          "type": "uint256"
        }
      ],
      "payable": false,
      "stateMutability": "view",
      "type": "function"
    },
    {
      "constant": true,
      "inputs": [],
      "name": "recipient",
      "outputs": [
        {
          "internalType": "address",
          "name": "",
          "type": "address"
        }
      ],
      "payable": false,
      "stateMutability": "view",
      "type": "function"
    },
    {
      "constant": true,
      "inputs": [],
      "name": "vestingAmount",
      "outputs": [
        {
          "internalType": "uint256",
          "name": "",
          "type": "uint256"
        }
      ],
      "payable": false,
      "stateMutability": "view",
      "type": "function"
    },
    {
      "constant": true,
      "inputs": [],
      "name": "vestingBegin",
      "outputs": [
        {
          "internalType": "uint256",
          "name": "",
          "type": "uint256"
        }
      ],
      "payable": false,
      "stateMutability": "view",
      "type": "function"
    },
    {
      "constant": true,
      "inputs": [],
      "name": "vestingCliff",
      "outputs": [
        {
          "internalType": "uint256",
          "name": "",
          "type": "uint256"
        }
      ],
      "payable": false,
      "stateMutability": "view",
      "type": "function"
    },
    {
      "constant": true,
      "inputs": [],
      "name": "vestingEnd",
      "outputs": [
        {
          "internalType": "uint256",
          "name": "",
          "type": "uint256"
        }
      ],
      "payable": false,
      "stateMutability": "view",
      "type": "function"
    },
    {
      "constant": false,
      "inputs": [
        {
          "internalType": "address",
          "name": "recipient_",
          "type": "address"
        }
      ],
      "name": "setRecipient",
      "outputs": [],
      "payable": false,
      "stateMutability": "nonpayable",
      "type": "function"
    },
    {
      "constant": false,
      "inputs": [],
      "name": "claim",
      "outputs": [],
      "payable": false,
      "stateMutability": "nonpayable",
      "type": "function"
    }
  ],
  "bytecode": "0x608060405234801561001057600080fd5b50604051610af0380380610af0833981810160405260c081101561003357600080fd5b81019080805190602001909291908051906020019092919080519060200190929190805190602001909291908051906020019092919080519060200190929190505050428310156100cf576040517f08c379a0000000000000000000000000000000000000000000000000000000008152600401808060200182810382526034815260200180610a606034913960400191505060405180910390fd5b82821015610128576040517f08c379a000000000000000000000000000000000000000000000000000000000815260040180806020018281038252602f815260200180610a94602f913960400191505060405180910390fd5b818111610180576040517f08c379a000000000000000000000000000000000000000000000000000000000815260040180806020018281038252602d815260200180610ac3602d913960400191505060405180910390fd5b856000806101000a81548173ffffffffffffffffffffffffffffffffffffffff021916908373ffffffffffffffffffffffffffffffffffffffff16021790555084600160006101000a81548173ffffffffffffffffffffffffffffffffffffffff021916908373ffffffffffffffffffffffffffffffffffffffff160217905550836002819055508260038190555081600481905550806005819055506003546006819055505050505050506108258061023b6000396000f3fe608060405234801561001057600080fd5b50600436106100925760003560e01c806366d003ac1161006657806366d003ac1461014d57806384a1931f14610197578063c0463711146101b5578063e29bc68b146101d3578063f3640e74146101f157610092565b8062728f76146100975780630f08025f146100b55780633bbed4a0146100ff5780634e71d92d14610143575b600080fd5b61009f61020f565b6040518082815260200191505060405180910390f35b6100bd610215565b604051808273ffffffffffffffffffffffffffffffffffffffff1673ffffffffffffffffffffffffffffffffffffffff16815260200191505060405180910390f35b6101416004803603602081101561011557600080fd5b81019080803573ffffffffffffffffffffffffffffffffffffffff16906020019092919050505061023a565b005b61014b610324565b005b6101556105ae565b604051808273ffffffffffffffffffffffffffffffffffffffff1673ffffffffffffffffffffffffffffffffffffffff16815260200191505060405180910390f35b61019f6105d4565b6040518082815260200191505060405180910390f35b6101bd6105da565b6040518082815260200191505060405180910390f35b6101db6105e0565b6040518082815260200191505060405180910390f35b6101f96105e6565b6040518082815260200191505060405180910390f35b60025481565b6000809054906101000a900473ffffffffffffffffffffffffffffffffffffffff1681565b600160009054906101000a900473ffffffffffffffffffffffffffffffffffffffff1673ffffffffffffffffffffffffffffffffffffffff163373ffffffffffffffffffffffffffffffffffffffff16146102e0576040517f08c379a000000000000000000000000000000000000000000000000000000000815260040180806020018281038252602a815260200180610783602a913960400191505060405180910390fd5b80600160006101000a81548173ffffffffffffffffffffffffffffffffffffffff021916908373ffffffffffffffffffffffffffffffffffffffff16021790555050565b60045442101561037f576040517f08c379a00000000000000000000000000000000000000000000000000000000081526004018080602001828103825260238152602001806107ce6023913960400191505060405180910390fd5b6000600554421061046a576000809054906101000a900473ffffffffffffffffffffffffffffffffffffffff1673ffffffffffffffffffffffffffffffffffffffff166370a08231306040518263ffffffff1660e01b8152600401808273ffffffffffffffffffffffffffffffffffffffff1673ffffffffffffffffffffffffffffffffffffffff16815260200191505060206040518083038186803b15801561042857600080fd5b505afa15801561043c573d6000803e3d6000fd5b505050506040513d602081101561045257600080fd5b810190808051906020019092919050505090506104a5565b61049b6003546005540361048d60065442036002546105ec90919063ffffffff16565b61067290919063ffffffff16565b9050426006819055505b6000809054906101000a900473ffffffffffffffffffffffffffffffffffffffff1673ffffffffffffffffffffffffffffffffffffffff1663a9059cbb600160009054906101000a900473ffffffffffffffffffffffffffffffffffffffff16836040518363ffffffff1660e01b8152600401808373ffffffffffffffffffffffffffffffffffffffff1673ffffffffffffffffffffffffffffffffffffffff16815260200182815260200192505050602060405180830381600087803b15801561056f57600080fd5b505af1158015610583573d6000803e3d6000fd5b505050506040513d602081101561059957600080fd5b81019080805190602001909291905050505050565b600160009054906101000a900473ffffffffffffffffffffffffffffffffffffffff1681565b60055481565b60065481565b60035481565b60045481565b6000808314156105ff576000905061066c565b600082840290508284828161061057fe5b0414610667576040517f08c379a00000000000000000000000000000000000000000000000000000000081526004018080602001828103825260218152602001806107ad6021913960400191505060405180910390fd5b809150505b92915050565b60006106b483836040518060400160405280601a81526020017f536166654d6174683a206469766973696f6e206279207a65726f0000000000008152506106bc565b905092915050565b60008083118290610768576040517f08c379a00000000000000000000000000000000000000000000000000000000081526004018080602001828103825283818151815260200191508051906020019080838360005b8381101561072d578082015181840152602081019050610712565b50505050905090810190601f16801561075a5780820380516001836020036101000a031916815260200191505b509250505060405180910390fd5b50600083858161077457fe5b04905080915050939250505056fe54726561737572795665737465723a3a736574526563697069656e743a20756e617574686f72697a6564536166654d6174683a206d756c7469706c69636174696f6e206f766572666c6f7754726561737572795665737465723a3a636c61696d3a206e6f742074696d6520796574a265627a7a723158205395ac9a757ec320a1afb2cd080b92a50eddaa0b0c25d593203c3bd7f7c6aa0264736f6c6343000510003254726561737572795665737465723a3a636f6e7374727563746f723a2076657374696e6720626567696e20746f6f206561726c7954726561737572795665737465723a3a636f6e7374727563746f723a20636c69666620697320746f6f206561726c7954726561737572795665737465723a3a636f6e7374727563746f723a20656e6420697320746f6f206561726c79",
  "source": "pragma solidity ^0.5.16;\r\n\r\nimport \"./libraries/SafeMath.sol\";\r\nimport \"./interfaces/IImx.sol\";\r\nimport \"./interfaces/IClaimable.sol\";\r\n\r\ncontract TreasuryVester is IClaimable {\r\n    using SafeMath for uint;\r\n\r\n    address public imx;\r\n    address public recipient;\r\n\r\n    uint public vestingAmount;\r\n    uint public vestingBegin;\r\n    uint public vestingCliff;\r\n    uint public vestingEnd;\r\n\r\n    uint public lastUpdate;\r\n\r\n    constructor (\r\n        address imx_,\r\n        address recipient_,\r\n        uint vestingAmount_,\r\n        uint vestingBegin_,\r\n        uint vestingCliff_,\r\n        uint vestingEnd_\r\n    ) public {\r\n        require(vestingBegin_ >= block.timestamp, \"TreasuryVester::constructor: vesting begin too early\");\r\n        require(vestingCliff_ >= vestingBegin_, \"TreasuryVester::constructor: cliff is too early\");\r\n        require(vestingEnd_ > vestingCliff_, \"TreasuryVester::constructor: end is too early\");\r\n\r\n        imx = imx_;\r\n        recipient = recipient_;\r\n\r\n        vestingAmount = vestingAmount_;\r\n        vestingBegin = vestingBegin_;\r\n        vestingCliff = vestingCliff_;\r\n        vestingEnd = vestingEnd_;\r\n\r\n        lastUpdate = vestingBegin;\r\n    }\r\n\r\n    function setRecipient(address recipient_) public {\r\n        require(msg.sender == recipient, \"TreasuryVester::setRecipient: unauthorized\");\r\n        recipient = recipient_;\r\n    }\r\n\r\n    function claim() public {\r\n        require(block.timestamp >= vestingCliff, \"TreasuryVester::claim: not time yet\");\r\n        uint amount;\r\n        if (block.timestamp >= vestingEnd) {\r\n            amount = IImx(imx).balanceOf(address(this));\r\n        } else {\r\n            amount = vestingAmount.mul(block.timestamp - lastUpdate).div(vestingEnd - vestingBegin);\r\n            lastUpdate = block.timestamp;\r\n        }\r\n        IImx(imx).transfer(recipient, amount);\r\n    }\r\n}",
  "sourcePath": "C:/Users/simor/Desktop/imx-governance/contracts/TreasuryVester.sol",
  "compiler": {
    "name": "solc",
    "version": "0.5.16+commit.9c3226ce.Emscripten.clang"
  },
  "schemaVersion": "3.3.2",
  "updatedAt": "2020-12-08T12:13:53.131Z",
  "devdoc": {
    "methods": {}
  },
  "userdoc": {
    "methods": {}
  }
}