{
  "contractName": "TreasuryVesterV2",
  "abi": [
    {
      "inputs": [
        {
          "internalType": "address",
          "name": "imx_",
          "type": "address"
        },
        {
          "internalType": "address",
          "name": "recipient_",
          "type": "address"
        },
        {
          "internalType": "uint256",
          "name": "vestingAmount_",
          "type": "uint256"
        },
        {
          "internalType": "uint256",
          "name": "vestingBegin_",
          "type": "uint256"
        },
        {
          "internalType": "uint256",
          "name": "vestingEnd_",
          "type": "uint256"
        }
      ],
      "payable": false,
      "stateMutability": "nonpayable",
      "type": "constructor"
    },
    {
      "constant": true,
      "inputs": [],
      "name": "finalPoint",
      "outputs": [
        {
          "internalType": "uint256",
          "name": "",
          "type": "uint256"
        }
      ],
      "payable": false,
      "stateMutability": "view",
      "type": "function"
    },
    {
      "constant": true,
      "inputs": [],
      "name": "imx",
      "outputs": [
        {
          "internalType": "address",
          "name": "",
          "type": "address"
        }
      ],
      "payable": false,
      "stateMutability": "view",
      "type": "function"
    },
    {
      "constant": true,
      "inputs": [],
      "name": "previousPoint",
      "outputs": [
        {
          "internalType": "uint256",
          "name": "",
          "type": "uint256"
        }
      ],
      "payable": false,
      "stateMutability": "view",
      "type": "function"
    },
    {
      "constant": true,
      "inputs": [],
      "name": "recipient",
      "outputs": [
        {
          "internalType": "address",
          "name": "",
          "type": "address"
        }
      ],
      "payable": false,
      "stateMutability": "view",
      "type": "function"
    },
    {
      "constant": true,
      "inputs": [],
      "name": "vestingAmount",
      "outputs": [
        {
          "internalType": "uint256",
          "name": "",
          "type": "uint256"
        }
      ],
      "payable": false,
      "stateMutability": "view",
      "type": "function"
    },
    {
      "constant": true,
      "inputs": [],
      "name": "vestingBegin",
      "outputs": [
        {
          "internalType": "uint256",
          "name": "",
          "type": "uint256"
        }
      ],
      "payable": false,
      "stateMutability": "view",
      "type": "function"
    },
    {
      "constant": true,
      "inputs": [],
      "name": "vestingEnd",
      "outputs": [
        {
          "internalType": "uint256",
          "name": "",
          "type": "uint256"
        }
      ],
      "payable": false,
      "stateMutability": "view",
      "type": "function"
    },
    {
      "constant": false,
      "inputs": [
        {
          "internalType": "address",
          "name": "recipient_",
          "type": "address"
        }
      ],
      "name": "setRecipient",
      "outputs": [],
      "payable": false,
      "stateMutability": "nonpayable",
      "type": "function"
    },
    {
      "constant": false,
      "inputs": [],
      "name": "claim",
      "outputs": [],
      "payable": false,
      "stateMutability": "nonpayable",
      "type": "function"
    }
  ],
  "bytecode": "0x60806040526200001d670de0b6b3a7640000620001fa60201b60201c565b6006553480156200002d57600080fd5b5060405162000e5e38038062000e5e833981810160405260a08110156200005357600080fd5b81019080805190602001909291908051906020019092919080519060200190929190805190602001909291908051906020019092919050505042821015620000e7576040517f08c379a000000000000000000000000000000000000000000000000000000000815260040180806020018281038252603481526020018062000ddc6034913960400191505060405180910390fd5b81811162000141576040517f08c379a000000000000000000000000000000000000000000000000000000000815260040180806020018281038252602d81526020018062000e31602d913960400191505060405180910390fd5b846000806101000a81548173ffffffffffffffffffffffffffffffffffffffff021916908373ffffffffffffffffffffffffffffffffffffffff16021790555083600160006101000a81548173ffffffffffffffffffffffffffffffffffffffff021916908373ffffffffffffffffffffffffffffffffffffffff160217905550826002819055508160038190555080600481905550620001e96000620001fa60201b60201c565b600581905550505050505062000498565b600080670de0b6b3a7640000905060008090505b670de0b6b3a7640000811015620002e857662386f26fc1000081018410156200027a576200026e670de0b6b3a76400006200025a84848803620002f060201b6200062c1790919060201c565b6200037b60201b620006b21790919060201c565b830192505050620002eb565b6200029b662386f26fc1000083620002f060201b6200062c1790919060201c565b83019250620002d46064620002c0606285620002f060201b6200062c1790919060201c565b6200037b60201b620006b21790919060201c565b9150662386f26fc10000810190506200020e565b50505b919050565b60008083141562000305576000905062000375565b60008284029050828482816200031757fe5b041462000370576040517f08c379a000000000000000000000000000000000000000000000000000000000815260040180806020018281038252602181526020018062000e106021913960400191505060405180910390fd5b809150505b92915050565b6000620003c583836040518060400160405280601a81526020017f536166654d6174683a206469766973696f6e206279207a65726f000000000000815250620003cd60201b60201c565b905092915050565b600080831182906200047d576040517f08c379a00000000000000000000000000000000000000000000000000000000081526004018080602001828103825283818151815260200191508051906020019080838360005b838110156200044157808201518184015260208101905062000424565b50505050905090810190601f1680156200046f5780820380516001836020036101000a031916815260200191505b509250505060405180910390fd5b5060008385816200048a57fe5b049050809150509392505050565b61093480620004a86000396000f3fe608060405234801561001057600080fd5b50600436106100925760003560e01c80634e71d92d116100665780634e71d92d1461016157806366d003ac1461016b57806384a1931f146101b5578063cf190360146101d3578063e29bc68b146101f157610092565b8062728f7614610097578063062f0429146100b55780630f08025f146100d35780633bbed4a01461011d575b600080fd5b61009f61020f565b6040518082815260200191505060405180910390f35b6100bd610215565b6040518082815260200191505060405180910390f35b6100db61021b565b604051808273ffffffffffffffffffffffffffffffffffffffff1673ffffffffffffffffffffffffffffffffffffffff16815260200191505060405180910390f35b61015f6004803603602081101561013357600080fd5b81019080803573ffffffffffffffffffffffffffffffffffffffff169060200190929190505050610240565b005b61016961032a565b005b6101736105f4565b604051808273ffffffffffffffffffffffffffffffffffffffff1673ffffffffffffffffffffffffffffffffffffffff16815260200191505060405180910390f35b6101bd61061a565b6040518082815260200191505060405180910390f35b6101db610620565b6040518082815260200191505060405180910390f35b6101f9610626565b6040518082815260200191505060405180910390f35b60025481565b60065481565b6000809054906101000a900473ffffffffffffffffffffffffffffffffffffffff1681565b600160009054906101000a900473ffffffffffffffffffffffffffffffffffffffff1673ffffffffffffffffffffffffffffffffffffffff163373ffffffffffffffffffffffffffffffffffffffff16146102e6576040517f08c379a000000000000000000000000000000000000000000000000000000000815260040180806020018281038252602a815260200180610892602a913960400191505060405180910390fd5b80600160006101000a81548173ffffffffffffffffffffffffffffffffffffffff021916908373ffffffffffffffffffffffffffffffffffffffff16021790555050565b600354421015610385576040517f08c379a00000000000000000000000000000000000000000000000000000000081526004018080602001828103825260238152602001806108dd6023913960400191505060405180910390fd5b60006004544210610470576000809054906101000a900473ffffffffffffffffffffffffffffffffffffffff1673ffffffffffffffffffffffffffffffffffffffff166370a08231306040518263ffffffff1660e01b8152600401808273ffffffffffffffffffffffffffffffffffffffff1673ffffffffffffffffffffffffffffffffffffffff16815260200191505060206040518083038186803b15801561042e57600080fd5b505afa158015610442573d6000803e3d6000fd5b505050506040513d602081101561045857600080fd5b810190808051906020019092919050505090506104eb565b60006104b16104ac6003546004540361049e670de0b6b3a7640000600354420361062c90919063ffffffff16565b6106b290919063ffffffff16565b6106fc565b90506104e06006546104d2600554840360025461062c90919063ffffffff16565b6106b290919063ffffffff16565b915080600581905550505b6000809054906101000a900473ffffffffffffffffffffffffffffffffffffffff1673ffffffffffffffffffffffffffffffffffffffff1663a9059cbb600160009054906101000a900473ffffffffffffffffffffffffffffffffffffffff16836040518363ffffffff1660e01b8152600401808373ffffffffffffffffffffffffffffffffffffffff1673ffffffffffffffffffffffffffffffffffffffff16815260200182815260200192505050602060405180830381600087803b1580156105b557600080fd5b505af11580156105c9573d6000803e3d6000fd5b505050506040513d60208110156105df57600080fd5b81019080805190602001909291905050505050565b600160009054906101000a900473ffffffffffffffffffffffffffffffffffffffff1681565b60045481565b60055481565b60035481565b60008083141561063f57600090506106ac565b600082840290508284828161065057fe5b04146106a7576040517f08c379a00000000000000000000000000000000000000000000000000000000081526004018080602001828103825260218152602001806108bc6021913960400191505060405180910390fd5b809150505b92915050565b60006106f483836040518060400160405280601a81526020017f536166654d6174683a206469766973696f6e206279207a65726f0000000000008152506107cb565b905092915050565b600080670de0b6b3a7640000905060008090505b670de0b6b3a76400008110156107c357662386f26fc10000810184101561076b57610760670de0b6b3a76400006107528484880361062c90919063ffffffff16565b6106b290919063ffffffff16565b8301925050506107c6565b610785662386f26fc100008361062c90919063ffffffff16565b830192506107b060646107a260628561062c90919063ffffffff16565b6106b290919063ffffffff16565b9150662386f26fc1000081019050610710565b50505b919050565b60008083118290610877576040517f08c379a00000000000000000000000000000000000000000000000000000000081526004018080602001828103825283818151815260200191508051906020019080838360005b8381101561083c578082015181840152602081019050610821565b50505050905090810190601f1680156108695780820380516001836020036101000a031916815260200191505b509250505060405180910390fd5b50600083858161088357fe5b04905080915050939250505056fe54726561737572795665737465723a3a736574526563697069656e743a20756e617574686f72697a6564536166654d6174683a206d756c7469706c69636174696f6e206f766572666c6f7754726561737572795665737465723a3a636c61696d3a206e6f742074696d6520796574a265627a7a723158200a2e352b3a1643f3842698b851fb517e8f121934b99d123481aa92614d743a2564736f6c6343000510003254726561737572795665737465723a3a636f6e7374727563746f723a2076657374696e6720626567696e20746f6f206561726c79536166654d6174683a206d756c7469706c69636174696f6e206f766572666c6f7754726561737572795665737465723a3a636f6e7374727563746f723a20656e6420697320746f6f206561726c79",
  "source": "pragma solidity ^0.5.16;\r\n\r\nimport \"./libraries/SafeMath.sol\";\r\nimport \"./interfaces/IImx.sol\";\r\nimport \"./interfaces/IClaimable.sol\";\r\n\r\ncontract TreasuryVesterV2 is IClaimable {\r\n\tusing SafeMath for uint;\r\n\r\n\taddress public imx;\r\n\taddress public recipient;\r\n\r\n\tuint public vestingAmount;\r\n\tuint public vestingBegin;\r\n\tuint public vestingEnd;\r\n\r\n\tuint public previousPoint;\r\n\tuint public finalPoint = vestingCurve(1e18);\r\n\t\r\n\tfunction vestingCurve(uint x) private pure returns (uint y) {\r\n\t\tuint speed = 1e18;\r\n\t\tfor (uint i = 0; i < 100e16; i += 1e16) {\r\n\t\t\tif (x < i + 1e16) return y + (x - i).mul(speed).div(1e18);\r\n\t\t\ty += speed.mul(1e16);\r\n\t\t\tspeed = speed.mul(98).div(100);\r\n\t\t}\r\n\t}\r\n\r\n\tconstructor(\r\n\t\taddress imx_,\r\n\t\taddress recipient_,\r\n\t\tuint vestingAmount_,\r\n\t\tuint vestingBegin_,\r\n\t\tuint vestingEnd_\r\n\t) public {\r\n\t\trequire(vestingBegin_ >= block.timestamp, \"TreasuryVester::constructor: vesting begin too early\");\r\n\t\trequire(vestingEnd_ > vestingBegin_, \"TreasuryVester::constructor: end is too early\");\r\n\r\n\t\timx = imx_;\r\n\t\trecipient = recipient_;\r\n\r\n\t\tvestingAmount = vestingAmount_;\r\n\t\tvestingBegin = vestingBegin_;\r\n\t\tvestingEnd = vestingEnd_;\r\n\r\n\t\tpreviousPoint = vestingCurve(0);\r\n\t}\r\n\r\n\tfunction setRecipient(address recipient_) public {\r\n\t\trequire(msg.sender == recipient, \"TreasuryVester::setRecipient: unauthorized\");\r\n\t\trecipient = recipient_;\r\n\t}\r\n\r\n\tfunction claim() public {\r\n\t\trequire(block.timestamp >= vestingBegin, \"TreasuryVester::claim: not time yet\");\r\n\t\tuint amount;\r\n\t\tif (block.timestamp >= vestingEnd) {\r\n\t\t\tamount = IImx(imx).balanceOf(address(this));\r\n\t\t} else {\r\n\t\t\tuint currentPoint = vestingCurve( (block.timestamp - vestingBegin).mul(1e18).div(vestingEnd - vestingBegin) );\r\n\t\t\tamount = vestingAmount.mul(currentPoint - previousPoint).div(finalPoint);\r\n\t\t\tpreviousPoint = currentPoint;\r\n\t\t}\r\n\t\tIImx(imx).transfer(recipient, amount);\r\n\t}\r\n}",
  "sourcePath": "C:/Users/simor/Desktop/imx-governance/contracts/TreasuryVesterV2.sol",
  "compiler": {
    "name": "solc",
    "version": "0.5.16+commit.9c3226ce.Emscripten.clang"
  },
  "schemaVersion": "3.3.2",
  "updatedAt": "2020-12-08T12:23:00.268Z",
  "networkType": "ethereum",
  "devdoc": {
    "methods": {}
  },
  "userdoc": {
    "methods": {}
  }
}