{
  "contractName": "VesterOneStep",
  "abi": [
    {
      "inputs": [
        {
          "internalType": "address",
          "name": "imx_",
          "type": "address"
        },
        {
          "internalType": "address",
          "name": "recipient_",
          "type": "address"
        },
        {
          "internalType": "uint256",
          "name": "vestingAmount_",
          "type": "uint256"
        },
        {
          "internalType": "uint256",
          "name": "vestingBegin_",
          "type": "uint256"
        },
        {
          "internalType": "uint256",
          "name": "vestingEnd_",
          "type": "uint256"
        }
      ],
      "stateMutability": "nonpayable",
      "type": "constructor"
    },
    {
      "anonymous": false,
      "inputs": [
        {
          "indexed": true,
          "internalType": "address",
          "name": "account",
          "type": "address"
        },
        {
          "indexed": false,
          "internalType": "uint256",
          "name": "amount",
          "type": "uint256"
        }
      ],
      "name": "Claim",
      "type": "event"
    },
    {
      "inputs": [],
      "name": "imx",
      "outputs": [
        {
          "internalType": "address",
          "name": "",
          "type": "address"
        }
      ],
      "stateMutability": "view",
      "type": "function"
    },
    {
      "inputs": [],
      "name": "recipient",
      "outputs": [
        {
          "internalType": "address",
          "name": "",
          "type": "address"
        }
      ],
      "stateMutability": "view",
      "type": "function"
    },
    {
      "inputs": [],
      "name": "segments",
      "outputs": [
        {
          "internalType": "uint256",
          "name": "",
          "type": "uint256"
        }
      ],
      "stateMutability": "view",
      "type": "function"
    },
    {
      "inputs": [],
      "name": "vestingAmount",
      "outputs": [
        {
          "internalType": "uint256",
          "name": "",
          "type": "uint256"
        }
      ],
      "stateMutability": "view",
      "type": "function"
    },
    {
      "inputs": [],
      "name": "vestingBegin",
      "outputs": [
        {
          "internalType": "uint256",
          "name": "",
          "type": "uint256"
        }
      ],
      "stateMutability": "view",
      "type": "function"
    },
    {
      "inputs": [],
      "name": "vestingEnd",
      "outputs": [
        {
          "internalType": "uint256",
          "name": "",
          "type": "uint256"
        }
      ],
      "stateMutability": "view",
      "type": "function"
    },
    {
      "inputs": [
        {
          "internalType": "address",
          "name": "recipient_",
          "type": "address"
        }
      ],
      "name": "setRecipient",
      "outputs": [],
      "stateMutability": "nonpayable",
      "type": "function"
    },
    {
      "inputs": [],
      "name": "claim",
      "outputs": [
        {
          "internalType": "uint256",
          "name": "amount",
          "type": "uint256"
        }
      ],
      "stateMutability": "nonpayable",
      "type": "function"
    },
    {
      "inputs": [],
      "name": "getBlockTimestamp",
      "outputs": [
        {
          "internalType": "uint256",
          "name": "",
          "type": "uint256"
        }
      ],
      "stateMutability": "view",
      "type": "function"
    },
    {
      "inputs": [
        {
          "internalType": "uint256",
          "name": "blockTimestamp",
          "type": "uint256"
        }
      ],
      "name": "setBlockTimestamp",
      "outputs": [],
      "stateMutability": "nonpayable",
      "type": "function"
    }
  ],
  "bytecode": "0x61010060405234801561001157600080fd5b506040516105e23803806105e2833981810160405260a081101561003457600080fd5b508051602082015160408301516060808501516080958601519185901b6001600160601b031916909552600080546001600160a01b0319166001600160a01b0394851617815560a083905260c086905260e0829052929093169390929091610518906100ca9039806104925250806102b352806104bb5250806101915250806101b5528061032952806103f152506105186000f3fe608060405234801561001057600080fd5b50600436106100bd5760003560e01c8063796b89b911610076578063e0abdf661161005b578063e0abdf6614610162578063e29bc68b1461017f578063e2d6870a14610187576100bd565b8063796b89b91461015257806384a1931f1461015a576100bd565b80633bbed4a0116100a75780633bbed4a01461010d5780634e71d92d1461014257806366d003ac1461014a576100bd565b8062728f76146100c25780630f08025f146100dc575b600080fd5b6100ca61018f565b60408051918252519081900360200190f35b6100e46101b3565b6040805173ffffffffffffffffffffffffffffffffffffffff9092168252519081900360200190f35b6101406004803603602081101561012357600080fd5b503573ffffffffffffffffffffffffffffffffffffffff166101d7565b005b6100ca61021e565b6100e461046e565b6100ca61048a565b6100ca610490565b6101406004803603602081101561017857600080fd5b50356104b4565b6100ca6104b9565b6100ca6104dd565b7f000000000000000000000000000000000000000000000000000000000000000081565b7f000000000000000000000000000000000000000000000000000000000000000081565b600080547fffffffffffffffffffffffff00000000000000000000000000000000000000001673ffffffffffffffffffffffffffffffffffffffff92909216919091179055565b6000805473ffffffffffffffffffffffffffffffffffffffff1633146102a557604080517f08c379a000000000000000000000000000000000000000000000000000000000815260206004820152601460248201527f5665737465723a20554e415554484f52495a4544000000000000000000000000604482015290519081900360640190fd5b60006102af61048a565b90507f00000000000000000000000000000000000000000000000000000000000000008110156102e357600091505061046b565b604080517f70a08231000000000000000000000000000000000000000000000000000000008152306004820152905173ffffffffffffffffffffffffffffffffffffffff7f000000000000000000000000000000000000000000000000000000000000000016916370a08231916024808301926020929190829003018186803b15801561036f57600080fd5b505afa158015610383573d6000803e3d6000fd5b505050506040513d602081101561039957600080fd5b505160008054604080517fa9059cbb00000000000000000000000000000000000000000000000000000000815273ffffffffffffffffffffffffffffffffffffffff92831660048201526024810185905290519395507f00000000000000000000000000000000000000000000000000000000000000009091169263a9059cbb92604480840193602093929083900390910190829087803b15801561043d57600080fd5b505af1158015610451573d6000803e3d6000fd5b505050506040513d602081101561046757600080fd5b5050505b90565b60005473ffffffffffffffffffffffffffffffffffffffff1681565b60015490565b7f000000000000000000000000000000000000000000000000000000000000000081565b600155565b7f000000000000000000000000000000000000000000000000000000000000000081565b60018156fea264697066735822122054778ed3d9114b999b3172fc3db8ec8fb3dba5cd44aa931ea9cbabcb3ce176b264736f6c63430006060033",
  "immutableReferences": {
    "3557": [
      {
        "length": 32,
        "start": 437
      },
      {
        "length": 32,
        "start": 809
      },
      {
        "length": 32,
        "start": 1009
      }
    ],
    "3562": [
      {
        "length": 32,
        "start": 401
      }
    ],
    "3565": [
      {
        "length": 32,
        "start": 691
      },
      {
        "length": 32,
        "start": 1211
      }
    ],
    "3568": [
      {
        "length": 32,
        "start": 1170
      }
    ]
  },
  "source": "pragma solidity =0.6.6;\r\n\r\nimport \"../interfaces/IImx.sol\";\r\nimport \"../interfaces/IClaimable.sol\";\r\nimport \"../interfaces/IVester.sol\";\r\n\r\ncontract VesterOneStep is IVester, IClaimable {\r\n\r\n\tuint public constant override segments = 1;\r\n\r\n\taddress public immutable imx;\r\n\taddress public recipient;\r\n\r\n\tuint public immutable override vestingAmount;\r\n\tuint public immutable override vestingBegin;\r\n\tuint public immutable override vestingEnd;\r\n\t\r\n\tconstructor(\r\n\t\taddress imx_,\r\n\t\taddress recipient_,\r\n\t\tuint vestingAmount_,\r\n\t\tuint vestingBegin_,\r\n\t\tuint vestingEnd_\r\n\t) public {\r\n\t\timx = imx_;\r\n\t\trecipient = recipient_;\r\n\r\n\t\tvestingAmount = vestingAmount_;\r\n\t\tvestingBegin = vestingBegin_;\r\n\t\tvestingEnd = vestingEnd_;\r\n\t}\r\n\r\n\tfunction setRecipient(address recipient_) public {\r\n\t\trecipient = recipient_;\r\n\t}\r\n\r\n\tfunction claim() public override returns (uint amount) {\r\n\t\trequire(msg.sender == recipient, \"Vester: UNAUTHORIZED\");\r\n\t\tuint blockTimestamp = getBlockTimestamp();\r\n\t\tif (blockTimestamp < vestingBegin) return 0;\r\n\t\tamount = IImx(imx).balanceOf(address(this));\r\n\t\tIImx(imx).transfer(recipient, amount);\r\n\t}\r\n\t\r\n\tuint _blockTimestamp;\r\n\tfunction getBlockTimestamp() public virtual view returns (uint) {\r\n\t\treturn _blockTimestamp;\r\n\t}\r\n\tfunction setBlockTimestamp(uint blockTimestamp) public {\r\n\t\t_blockTimestamp = blockTimestamp;\r\n\t}\r\n}\r\n",
  "sourcePath": "C:/Users/simor/Desktop/imx/contracts/test/VesterOneStep.sol",
  "compiler": {
    "name": "solc",
    "version": "0.6.6+commit.6c089d02.Emscripten.clang"
  },
  "schemaVersion": "3.3.2",
  "updatedAt": "2021-03-20T20:28:28.911Z",
  "devdoc": {
    "methods": {}
  },
  "userdoc": {
    "methods": {}
  }
}