{
  "contractName": "VesterHarness",
  "abi": [
    {
      "inputs": [
        {
          "internalType": "address",
          "name": "imx_",
          "type": "address"
        },
        {
          "internalType": "address",
          "name": "recipient_",
          "type": "address"
        },
        {
          "internalType": "uint256",
          "name": "vestingAmount_",
          "type": "uint256"
        },
        {
          "internalType": "uint256",
          "name": "vestingBegin_",
          "type": "uint256"
        },
        {
          "internalType": "uint256",
          "name": "vestingEnd_",
          "type": "uint256"
        }
      ],
      "stateMutability": "nonpayable",
      "type": "constructor"
    },
    {
      "inputs": [],
      "name": "claim",
      "outputs": [
        {
          "internalType": "uint256",
          "name": "amount",
          "type": "uint256"
        }
      ],
      "stateMutability": "nonpayable",
      "type": "function"
    },
    {
      "inputs": [],
      "name": "finalPoint",
      "outputs": [
        {
          "internalType": "uint256",
          "name": "",
          "type": "uint256"
        }
      ],
      "stateMutability": "view",
      "type": "function"
    },
    {
      "inputs": [],
      "name": "imx",
      "outputs": [
        {
          "internalType": "address",
          "name": "",
          "type": "address"
        }
      ],
      "stateMutability": "view",
      "type": "function"
    },
    {
      "inputs": [],
      "name": "previousPoint",
      "outputs": [
        {
          "internalType": "uint256",
          "name": "",
          "type": "uint256"
        }
      ],
      "stateMutability": "view",
      "type": "function"
    },
    {
      "inputs": [],
      "name": "recipient",
      "outputs": [
        {
          "internalType": "address",
          "name": "",
          "type": "address"
        }
      ],
      "stateMutability": "view",
      "type": "function"
    },
    {
      "inputs": [],
      "name": "segments",
      "outputs": [
        {
          "internalType": "uint256",
          "name": "",
          "type": "uint256"
        }
      ],
      "stateMutability": "view",
      "type": "function"
    },
    {
      "inputs": [
        {
          "internalType": "address",
          "name": "recipient_",
          "type": "address"
        }
      ],
      "name": "setRecipient",
      "outputs": [],
      "stateMutability": "nonpayable",
      "type": "function"
    },
    {
      "inputs": [],
      "name": "vestingAmount",
      "outputs": [
        {
          "internalType": "uint256",
          "name": "",
          "type": "uint256"
        }
      ],
      "stateMutability": "view",
      "type": "function"
    },
    {
      "inputs": [],
      "name": "vestingBegin",
      "outputs": [
        {
          "internalType": "uint256",
          "name": "",
          "type": "uint256"
        }
      ],
      "stateMutability": "view",
      "type": "function"
    },
    {
      "inputs": [
        {
          "internalType": "uint256",
          "name": "x",
          "type": "uint256"
        }
      ],
      "name": "vestingCurve",
      "outputs": [
        {
          "internalType": "uint256",
          "name": "y",
          "type": "uint256"
        }
      ],
      "stateMutability": "pure",
      "type": "function"
    },
    {
      "inputs": [],
      "name": "vestingEnd",
      "outputs": [
        {
          "internalType": "uint256",
          "name": "",
          "type": "uint256"
        }
      ],
      "stateMutability": "view",
      "type": "function"
    },
    {
      "inputs": [],
      "name": "getBlockTimestamp",
      "outputs": [
        {
          "internalType": "uint256",
          "name": "",
          "type": "uint256"
        }
      ],
      "stateMutability": "view",
      "type": "function"
    },
    {
      "inputs": [
        {
          "internalType": "uint256",
          "name": "blockTimestamp",
          "type": "uint256"
        }
      ],
      "name": "setBlockTimestamp",
      "outputs": [],
      "stateMutability": "nonpayable",
      "type": "function"
    }
  ],
  "bytecode": "0x61012060405234801561001157600080fd5b50604051610b2e380380610b2e833981810160405260a081101561003457600080fd5b5080516020820151604083015160608401516080909401519293919290919084848484848181116100ac576040805162461bcd60e51b815260206004820152601560248201527f5665737465723a20454e445f544f4f5f4541524c590000000000000000000000604482015290519081900360640190fd5b606085901b6001600160601b031916608052600080546001600160a01b0319166001600160a01b03861617815560a084905260c083905260e08290526001556100fc670de0b6b3a7640000610110565b610100525061017998505050505050505050565b6000670de0b6b3a7640000815b670de0b6b3a76400008110156101715780662386f26fc100000184101561015457662386f26fc10000908403919091020401610174565b918101916103e86103d08302049150662386f26fc100000161011d565b50505b919050565b60805160601c60a05160c05160e051610100516109466101e86000398061020352806105625250806103dd52806104ed52806106bb5250806103ab52806104cc528061051b52806107535250806101df528061058b5250806102275280610449528061061a52506109466000f3fe608060405234801561001057600080fd5b50600436106100de5760003560e01c8063796b89b91161008c578063cf19036011610066578063cf190360146101a8578063e0abdf66146101b0578063e29bc68b146101cd578063e2d6870a146101d5576100de565b8063796b89b91461017b57806384a1931f1461018357806389b1e13f1461018b576100de565b80633bbed4a0116100bd5780633bbed4a0146101365780634e71d92d1461016b57806366d003ac14610173576100de565b8062728f76146100e3578063062f0429146100fd5780630f08025f14610105575b600080fd5b6100eb6101dd565b60408051918252519081900360200190f35b6100eb610201565b61010d610225565b6040805173ffffffffffffffffffffffffffffffffffffffff9092168252519081900360200190f35b6101696004803603602081101561014c57600080fd5b503573ffffffffffffffffffffffffffffffffffffffff16610249565b005b6100eb610316565b61010d610697565b6100eb6106b3565b6100eb6106b9565b6100eb600480360360208110156101a157600080fd5b50356106dd565b6100eb610746565b610169600480360360208110156101c657600080fd5b503561074c565b6100eb610751565b6100eb610775565b7f000000000000000000000000000000000000000000000000000000000000000081565b7f000000000000000000000000000000000000000000000000000000000000000081565b7f000000000000000000000000000000000000000000000000000000000000000081565b60005473ffffffffffffffffffffffffffffffffffffffff1633146102cf57604080517f08c379a000000000000000000000000000000000000000000000000000000000815260206004820152601460248201527f5665737465723a20554e415554484f52495a4544000000000000000000000000604482015290519081900360640190fd5b600080547fffffffffffffffffffffffff00000000000000000000000000000000000000001673ffffffffffffffffffffffffffffffffffffffff92909216919091179055565b6000805473ffffffffffffffffffffffffffffffffffffffff16331461039d57604080517f08c379a000000000000000000000000000000000000000000000000000000000815260206004820152601460248201527f5665737465723a20554e415554484f52495a4544000000000000000000000000604482015290519081900360640190fd5b60006103a76106b3565b90507f00000000000000000000000000000000000000000000000000000000000000008110156103db576000915050610694565b7f00000000000000000000000000000000000000000000000000000000000000008111156104c257604080517f70a08231000000000000000000000000000000000000000000000000000000008152306004820152905173ffffffffffffffffffffffffffffffffffffffff7f000000000000000000000000000000000000000000000000000000000000000016916370a08231916024808301926020929190829003018186803b15801561048f57600080fd5b505afa1580156104a3573d6000803e3d6000fd5b505050506040513d60208110156104b957600080fd5b505191506105c1565b600061055b6105567f00000000000000000000000000000000000000000000000000000000000000007f00000000000000000000000000000000000000000000000000000000000000000361054a670de0b6b3a76400007f0000000000000000000000000000000000000000000000000000000000000000870361077a90919063ffffffff16565b9063ffffffff6107f616565b6106dd565b90506105b87f000000000000000000000000000000000000000000000000000000000000000061054a60015484037f000000000000000000000000000000000000000000000000000000000000000061077a90919063ffffffff16565b60019190915591505b81156106925760008054604080517fa9059cbb00000000000000000000000000000000000000000000000000000000815273ffffffffffffffffffffffffffffffffffffffff92831660048201526024810186905290517f00000000000000000000000000000000000000000000000000000000000000009092169263a9059cbb926044808401936020939083900390910190829087803b15801561066557600080fd5b505af1158015610679573d6000803e3d6000fd5b505050506040513d602081101561068f57600080fd5b50505b505b90565b60005473ffffffffffffffffffffffffffffffffffffffff1681565b60025490565b7f000000000000000000000000000000000000000000000000000000000000000081565b6000670de0b6b3a7640000815b670de0b6b3a764000081101561073e5780662386f26fc100000184101561072157662386f26fc10000908403919091020401610741565b918101916103e86103d08302049150662386f26fc10000016106ea565b50505b919050565b60015481565b600255565b7f000000000000000000000000000000000000000000000000000000000000000081565b606481565b600082610789575060006107f0565b8282028284828161079657fe5b04146107ed576040517f08c379a00000000000000000000000000000000000000000000000000000000081526004018080602001828103825260218152602001806108f06021913960400191505060405180910390fd5b90505b92915050565b60006107ed83836040518060400160405280601a81526020017f536166654d6174683a206469766973696f6e206279207a65726f000000000000815250600081836108d9576040517f08c379a00000000000000000000000000000000000000000000000000000000081526004018080602001828103825283818151815260200191508051906020019080838360005b8381101561089e578181015183820152602001610886565b50505050905090810190601f1680156108cb5780820380516001836020036101000a031916815260200191505b509250505060405180910390fd5b5060008385816108e557fe5b049594505050505056fe536166654d6174683a206d756c7469706c69636174696f6e206f766572666c6f77a2646970667358221220a348c44a0568f3ee5c60024764f57e47ed0f7ecddbf51502b2c1dc28d9d1eef864736f6c63430006060033",
  "immutableReferences": {
    "1687": [
      {
        "length": 32,
        "start": 551
      },
      {
        "length": 32,
        "start": 1097
      },
      {
        "length": 32,
        "start": 1562
      }
    ],
    "1692": [
      {
        "length": 32,
        "start": 479
      },
      {
        "length": 32,
        "start": 1419
      }
    ],
    "1695": [
      {
        "length": 32,
        "start": 939
      },
      {
        "length": 32,
        "start": 1228
      },
      {
        "length": 32,
        "start": 1307
      },
      {
        "length": 32,
        "start": 1875
      }
    ],
    "1698": [
      {
        "length": 32,
        "start": 989
      },
      {
        "length": 32,
        "start": 1261
      },
      {
        "length": 32,
        "start": 1723
      }
    ],
    "1702": [
      {
        "length": 32,
        "start": 515
      },
      {
        "length": 32,
        "start": 1378
      }
    ]
  },
  "source": "pragma solidity =0.6.6;\r\n\r\nimport \"../../contracts/Vester.sol\";\r\n\r\ncontract VesterHarness is Vester {\r\n\t\r\n\tconstructor(\r\n\t\taddress imx_,\r\n\t\taddress recipient_,\r\n\t\tuint vestingAmount_,\r\n\t\tuint vestingBegin_,\r\n\t\tuint vestingEnd_\r\n\t) public Vester(imx_, recipient_, vestingAmount_, vestingBegin_, vestingEnd_) {}\r\n\t\r\n\t\r\n\tuint _blockTimestamp;\r\n\tfunction getBlockTimestamp() public virtual override view returns (uint) {\r\n\t\treturn _blockTimestamp;\r\n\t}\r\n\tfunction setBlockTimestamp(uint blockTimestamp) public {\r\n\t\t_blockTimestamp = blockTimestamp;\r\n\t}\r\n\t\r\n}",
  "sourcePath": "C:/Users/simor/Desktop/imx/contracts/test/VesterHarness.sol",
  "compiler": {
    "name": "solc",
    "version": "0.6.6+commit.6c089d02.Emscripten.clang"
  },
  "schemaVersion": "3.3.2",
  "updatedAt": "2021-03-09T19:15:19.119Z",
  "devdoc": {
    "methods": {}
  },
  "userdoc": {
    "methods": {}
  }
}