{
  "contractName": "VesterStepped",
  "abi": [
    {
      "inputs": [
        {
          "internalType": "address",
          "name": "imx_",
          "type": "address"
        },
        {
          "internalType": "address",
          "name": "recipient_",
          "type": "address"
        },
        {
          "internalType": "uint256",
          "name": "vestingAmount_",
          "type": "uint256"
        },
        {
          "internalType": "uint256",
          "name": "vestingBegin_",
          "type": "uint256"
        },
        {
          "internalType": "uint256",
          "name": "vestingEnd_",
          "type": "uint256"
        }
      ],
      "stateMutability": "nonpayable",
      "type": "constructor"
    },
    {
      "inputs": [],
      "name": "finalPoint",
      "outputs": [
        {
          "internalType": "uint256",
          "name": "",
          "type": "uint256"
        }
      ],
      "stateMutability": "view",
      "type": "function"
    },
    {
      "inputs": [],
      "name": "imx",
      "outputs": [
        {
          "internalType": "address",
          "name": "",
          "type": "address"
        }
      ],
      "stateMutability": "view",
      "type": "function"
    },
    {
      "inputs": [],
      "name": "previousPoint",
      "outputs": [
        {
          "internalType": "uint256",
          "name": "",
          "type": "uint256"
        }
      ],
      "stateMutability": "view",
      "type": "function"
    },
    {
      "inputs": [],
      "name": "recipient",
      "outputs": [
        {
          "internalType": "address",
          "name": "",
          "type": "address"
        }
      ],
      "stateMutability": "view",
      "type": "function"
    },
    {
      "inputs": [],
      "name": "segments",
      "outputs": [
        {
          "internalType": "uint256",
          "name": "",
          "type": "uint256"
        }
      ],
      "stateMutability": "view",
      "type": "function"
    },
    {
      "inputs": [],
      "name": "vestingAmount",
      "outputs": [
        {
          "internalType": "uint256",
          "name": "",
          "type": "uint256"
        }
      ],
      "stateMutability": "view",
      "type": "function"
    },
    {
      "inputs": [],
      "name": "vestingBegin",
      "outputs": [
        {
          "internalType": "uint256",
          "name": "",
          "type": "uint256"
        }
      ],
      "stateMutability": "view",
      "type": "function"
    },
    {
      "inputs": [],
      "name": "vestingEnd",
      "outputs": [
        {
          "internalType": "uint256",
          "name": "",
          "type": "uint256"
        }
      ],
      "stateMutability": "view",
      "type": "function"
    },
    {
      "inputs": [
        {
          "internalType": "uint256",
          "name": "x",
          "type": "uint256"
        }
      ],
      "name": "vestingCurve",
      "outputs": [
        {
          "internalType": "uint256",
          "name": "y",
          "type": "uint256"
        }
      ],
      "stateMutability": "pure",
      "type": "function"
    },
    {
      "inputs": [],
      "name": "claim",
      "outputs": [
        {
          "internalType": "uint256",
          "name": "amount",
          "type": "uint256"
        }
      ],
      "stateMutability": "nonpayable",
      "type": "function"
    },
    {
      "inputs": [
        {
          "internalType": "address",
          "name": "recipient_",
          "type": "address"
        }
      ],
      "name": "setRecipient",
      "outputs": [],
      "stateMutability": "nonpayable",
      "type": "function"
    },
    {
      "inputs": [],
      "name": "getBlockTimestamp",
      "outputs": [
        {
          "internalType": "uint256",
          "name": "",
          "type": "uint256"
        }
      ],
      "stateMutability": "view",
      "type": "function"
    }
  ],
  "bytecode": "0x61012060405234801561001157600080fd5b50604051610ac7380380610ac7833981810160405260a081101561003457600080fd5b508051602082015160408301516060840151608090940151929391929091908181116100a7576040805162461bcd60e51b815260206004820152601560248201527f5665737465723a20454e445f544f4f5f4541524c590000000000000000000000604482015290519081900360640190fd5b606085901b6001600160601b031916608052600080546001600160a01b0319166001600160a01b03861617815560a084905260c083905260e08290526001556100f7670de0b6b3a7640000610106565b61010052506101589350505050565b6000670de0b6b3a7640000815b670de0b6b3a7640000811015610150578084101561013357506101539050565b918101916103e86103d08302049150662386f26fc1000001610113565b50505b919050565b60805160601c60a05160c05160e051610100516109006101c7600039806101db528061053a5250806103b552806104c5528061069152508061038352806104a452806104f3528061070d5250806101b752806105635250806101ff528061042152806105f252506109006000f3fe608060405234801561001057600080fd5b50600436106100d35760003560e01c8063796b89b911610081578063cf1903601161005b578063cf1903601461019d578063e29bc68b146101a5578063e2d6870a146101ad576100d3565b8063796b89b91461017057806384a1931f1461017857806389b1e13f14610180576100d3565b80633bbed4a0116100b25780633bbed4a01461012b5780634e71d92d1461016057806366d003ac14610168576100d3565b8062728f76146100d8578063062f0429146100f25780630f08025f146100fa575b600080fd5b6100e06101b5565b60408051918252519081900360200190f35b6100e06101d9565b6101026101fd565b6040805173ffffffffffffffffffffffffffffffffffffffff9092168252519081900360200190f35b61015e6004803603602081101561014157600080fd5b503573ffffffffffffffffffffffffffffffffffffffff16610221565b005b6100e06102ee565b61010261066f565b6100e061068b565b6100e061068f565b6100e06004803603602081101561019657600080fd5b50356106b3565b6100e0610705565b6100e061070b565b6100e061072f565b7f000000000000000000000000000000000000000000000000000000000000000081565b7f000000000000000000000000000000000000000000000000000000000000000081565b7f000000000000000000000000000000000000000000000000000000000000000081565b60005473ffffffffffffffffffffffffffffffffffffffff1633146102a757604080517f08c379a000000000000000000000000000000000000000000000000000000000815260206004820152601460248201527f5665737465723a20554e415554484f52495a4544000000000000000000000000604482015290519081900360640190fd5b600080547fffffffffffffffffffffffff00000000000000000000000000000000000000001673ffffffffffffffffffffffffffffffffffffffff92909216919091179055565b6000805473ffffffffffffffffffffffffffffffffffffffff16331461037557604080517f08c379a000000000000000000000000000000000000000000000000000000000815260206004820152601460248201527f5665737465723a20554e415554484f52495a4544000000000000000000000000604482015290519081900360640190fd5b600061037f61068b565b90507f00000000000000000000000000000000000000000000000000000000000000008110156103b357600091505061066c565b7f000000000000000000000000000000000000000000000000000000000000000081111561049a57604080517f70a08231000000000000000000000000000000000000000000000000000000008152306004820152905173ffffffffffffffffffffffffffffffffffffffff7f000000000000000000000000000000000000000000000000000000000000000016916370a08231916024808301926020929190829003018186803b15801561046757600080fd5b505afa15801561047b573d6000803e3d6000fd5b505050506040513d602081101561049157600080fd5b50519150610599565b600061053361052e7f00000000000000000000000000000000000000000000000000000000000000007f000000000000000000000000000000000000000000000000000000000000000003610522670de0b6b3a76400007f0000000000000000000000000000000000000000000000000000000000000000870361073490919063ffffffff16565b9063ffffffff6107b016565b6106b3565b90506105907f000000000000000000000000000000000000000000000000000000000000000061052260015484037f000000000000000000000000000000000000000000000000000000000000000061073490919063ffffffff16565b60019190915591505b811561066a5760008054604080517fa9059cbb00000000000000000000000000000000000000000000000000000000815273ffffffffffffffffffffffffffffffffffffffff92831660048201526024810186905290517f00000000000000000000000000000000000000000000000000000000000000009092169263a9059cbb926044808401936020939083900390910190829087803b15801561063d57600080fd5b505af1158015610651573d6000803e3d6000fd5b505050506040513d602081101561066757600080fd5b50505b505b90565b60005473ffffffffffffffffffffffffffffffffffffffff1681565b4290565b7f000000000000000000000000000000000000000000000000000000000000000081565b6000670de0b6b3a7640000815b670de0b6b3a76400008110156106fd57808410156106e057506107009050565b918101916103e86103d08302049150662386f26fc10000016106c0565b50505b919050565b60015481565b7f000000000000000000000000000000000000000000000000000000000000000081565b606481565b600082610743575060006107aa565b8282028284828161075057fe5b04146107a7576040517f08c379a00000000000000000000000000000000000000000000000000000000081526004018080602001828103825260218152602001806108aa6021913960400191505060405180910390fd5b90505b92915050565b60006107a783836040518060400160405280601a81526020017f536166654d6174683a206469766973696f6e206279207a65726f00000000000081525060008183610893576040517f08c379a00000000000000000000000000000000000000000000000000000000081526004018080602001828103825283818151815260200191508051906020019080838360005b83811015610858578181015183820152602001610840565b50505050905090810190601f1680156108855780820380516001836020036101000a031916815260200191505b509250505060405180910390fd5b50600083858161089f57fe5b049594505050505056fe536166654d6174683a206d756c7469706c69636174696f6e206f766572666c6f77a26469706673582212204a7b321b775c329718de57c55d6d9873ec505f2215fcccc56579f119f297932164736f6c63430006060033",
  "immutableReferences": {
    "2249": [
      {
        "length": 32,
        "start": 511
      },
      {
        "length": 32,
        "start": 1057
      },
      {
        "length": 32,
        "start": 1522
      }
    ],
    "2254": [
      {
        "length": 32,
        "start": 439
      },
      {
        "length": 32,
        "start": 1379
      }
    ],
    "2257": [
      {
        "length": 32,
        "start": 899
      },
      {
        "length": 32,
        "start": 1188
      },
      {
        "length": 32,
        "start": 1267
      },
      {
        "length": 32,
        "start": 1805
      }
    ],
    "2260": [
      {
        "length": 32,
        "start": 949
      },
      {
        "length": 32,
        "start": 1221
      },
      {
        "length": 32,
        "start": 1681
      }
    ],
    "2264": [
      {
        "length": 32,
        "start": 475
      },
      {
        "length": 32,
        "start": 1338
      }
    ]
  },
  "source": "pragma solidity =0.6.6;\r\n\r\nimport \"./libraries/SafeMath.sol\";\r\nimport \"./interfaces/IImx.sol\";\r\nimport \"./interfaces/IClaimable.sol\";\r\nimport \"./interfaces/IVester.sol\";\r\n\r\n// Copied from Vester.sol, but the vestingCurve is stepped\r\n\r\ncontract VesterStepped is IVester, IClaimable {\r\n\tusing SafeMath for uint;\r\n\r\n\tuint public constant override segments = 100;\r\n\r\n\taddress public immutable imx;\r\n\taddress public recipient;\r\n\r\n\tuint public immutable override vestingAmount;\r\n\tuint public immutable override vestingBegin;\r\n\tuint public immutable override vestingEnd;\r\n\r\n\tuint public previousPoint;\r\n\tuint public immutable finalPoint;\r\n\t\r\n\tfunction vestingCurve(uint x) public virtual pure returns (uint y) {\r\n\t\tuint speed = 1e18;\r\n\t\tfor (uint i = 0; i < 100e16; i += 1e16) {\r\n\t\t\tif (x < i) return y;\r\n\t\t\ty += speed;\r\n\t\t\tspeed = speed * 976 / 1000;\r\n\t\t}\r\n\t}\r\n\r\n\tconstructor(\r\n\t\taddress imx_,\r\n\t\taddress recipient_,\r\n\t\tuint vestingAmount_,\r\n\t\tuint vestingBegin_,\r\n\t\tuint vestingEnd_\r\n\t) public {\r\n\t\trequire(vestingEnd_ > vestingBegin_, \"Vester: END_TOO_EARLY\");\r\n\r\n\t\timx = imx_;\r\n\t\trecipient = recipient_;\r\n\r\n\t\tvestingAmount = vestingAmount_;\r\n\t\tvestingBegin = vestingBegin_;\r\n\t\tvestingEnd = vestingEnd_;\r\n\r\n\t\tpreviousPoint = 0;\r\n\t\tfinalPoint = vestingCurve(1e18);\r\n\t}\r\n\t\r\n\tfunction claim() public virtual override returns (uint amount) {\r\n\t\trequire(msg.sender == recipient, \"Vester: UNAUTHORIZED\");\r\n\t\tuint blockTimestamp = getBlockTimestamp();\r\n\t\tif (blockTimestamp < vestingBegin) return 0;\r\n\t\tif (blockTimestamp > vestingEnd) {\r\n\t\t\tamount = IImx(imx).balanceOf(address(this));\r\n\t\t} else {\r\n\t\t\tuint currentPoint = vestingCurve( (blockTimestamp - vestingBegin).mul(1e18).div(vestingEnd - vestingBegin) );\r\n\t\t\tamount = vestingAmount.mul(currentPoint - previousPoint).div(finalPoint);\r\n\t\t\tpreviousPoint = currentPoint;\r\n\t\t}\r\n\t\tif (amount > 0) IImx(imx).transfer(recipient, amount);\r\n\t}\r\n\t\r\n\tfunction setRecipient(address recipient_) public virtual {\r\n\t\trequire(msg.sender == recipient, \"Vester: UNAUTHORIZED\");\r\n\t\trecipient = recipient_;\r\n\t}\r\n\t\r\n\tfunction getBlockTimestamp() public virtual view returns (uint) {\r\n\t\treturn block.timestamp;\r\n\t}\r\n}",
  "sourcePath": "C:\\Users\\simor\\Desktop\\imx\\contracts\\VesterStepped.sol",
  "compiler": {
    "name": "solc",
    "version": "0.6.6+commit.6c089d02.Emscripten.clang"
  },
  "schemaVersion": "3.3.2",
  "updatedAt": "2021-03-14T20:48:45.398Z",
  "devdoc": {
    "methods": {}
  },
  "userdoc": {
    "methods": {}
  }
}