{
  "contractName": "VesterSaleHarness",
  "abi": [
    {
      "inputs": [
        {
          "internalType": "address",
          "name": "imx_",
          "type": "address"
        },
        {
          "internalType": "address",
          "name": "recipient_",
          "type": "address"
        },
        {
          "internalType": "uint256",
          "name": "vestingAmount_",
          "type": "uint256"
        },
        {
          "internalType": "uint256",
          "name": "vestingBegin_",
          "type": "uint256"
        },
        {
          "internalType": "uint256",
          "name": "vestingEnd_",
          "type": "uint256"
        }
      ],
      "stateMutability": "nonpayable",
      "type": "constructor"
    },
    {
      "inputs": [],
      "name": "claim",
      "outputs": [
        {
          "internalType": "uint256",
          "name": "amount",
          "type": "uint256"
        }
      ],
      "stateMutability": "nonpayable",
      "type": "function"
    },
    {
      "inputs": [],
      "name": "finalPoint",
      "outputs": [
        {
          "internalType": "uint256",
          "name": "",
          "type": "uint256"
        }
      ],
      "stateMutability": "view",
      "type": "function"
    },
    {
      "inputs": [],
      "name": "imx",
      "outputs": [
        {
          "internalType": "address",
          "name": "",
          "type": "address"
        }
      ],
      "stateMutability": "view",
      "type": "function"
    },
    {
      "inputs": [],
      "name": "previousPoint",
      "outputs": [
        {
          "internalType": "uint256",
          "name": "",
          "type": "uint256"
        }
      ],
      "stateMutability": "view",
      "type": "function"
    },
    {
      "inputs": [],
      "name": "recipient",
      "outputs": [
        {
          "internalType": "address",
          "name": "",
          "type": "address"
        }
      ],
      "stateMutability": "view",
      "type": "function"
    },
    {
      "inputs": [],
      "name": "segments",
      "outputs": [
        {
          "internalType": "uint256",
          "name": "",
          "type": "uint256"
        }
      ],
      "stateMutability": "view",
      "type": "function"
    },
    {
      "inputs": [
        {
          "internalType": "address",
          "name": "recipient_",
          "type": "address"
        }
      ],
      "name": "setRecipient",
      "outputs": [],
      "stateMutability": "nonpayable",
      "type": "function"
    },
    {
      "inputs": [],
      "name": "vestingAmount",
      "outputs": [
        {
          "internalType": "uint256",
          "name": "",
          "type": "uint256"
        }
      ],
      "stateMutability": "view",
      "type": "function"
    },
    {
      "inputs": [],
      "name": "vestingBegin",
      "outputs": [
        {
          "internalType": "uint256",
          "name": "",
          "type": "uint256"
        }
      ],
      "stateMutability": "view",
      "type": "function"
    },
    {
      "inputs": [
        {
          "internalType": "uint256",
          "name": "x",
          "type": "uint256"
        }
      ],
      "name": "vestingCurve",
      "outputs": [
        {
          "internalType": "uint256",
          "name": "y",
          "type": "uint256"
        }
      ],
      "stateMutability": "pure",
      "type": "function"
    },
    {
      "inputs": [],
      "name": "vestingEnd",
      "outputs": [
        {
          "internalType": "uint256",
          "name": "",
          "type": "uint256"
        }
      ],
      "stateMutability": "view",
      "type": "function"
    },
    {
      "inputs": [],
      "name": "getBlockTimestamp",
      "outputs": [
        {
          "internalType": "uint256",
          "name": "",
          "type": "uint256"
        }
      ],
      "stateMutability": "view",
      "type": "function"
    },
    {
      "inputs": [
        {
          "internalType": "uint256",
          "name": "blockTimestamp",
          "type": "uint256"
        }
      ],
      "name": "setBlockTimestamp",
      "outputs": [],
      "stateMutability": "nonpayable",
      "type": "function"
    }
  ],
  "bytecode": "0x61012060405234801561001157600080fd5b50604051610c18380380610c18833981810160405260a081101561003457600080fd5b5080516020820151604083015160608401516080909401519293919290919084848484848181116100ac576040805162461bcd60e51b815260206004820152601560248201527f5665737465723a20454e445f544f4f5f4541524c590000000000000000000000604482015290519081900360640190fd5b606085901b6001600160601b031916608052600080546001600160a01b0319166001600160a01b03861617815560a084905260c083905260e08290526001556100fc670de0b6b3a7640000610110565b610100525061017998505050505050505050565b6000670de0b6b3a7640000815b670de0b6b3a76400008110156101715780662386f26fc100000184101561015457662386f26fc10000908403919091020401610174565b918101916103e86103d08302049150662386f26fc100000161011d565b50505b919050565b60805160601c60a05160c05160e05161010051610a2b6101ed60003980610203528061056c5250806103dd52806104ed52806107275250806103ab52806104cc528061051b52806107bf5250806101df528061059552806105ed525080610227528061044952806106865250610a2b6000f3fe608060405234801561001057600080fd5b50600436106100de5760003560e01c8063796b89b91161008c578063cf19036011610066578063cf190360146101a8578063e0abdf66146101b0578063e29bc68b146101cd578063e2d6870a146101d5576100de565b8063796b89b91461017b57806384a1931f1461018357806389b1e13f1461018b576100de565b80633bbed4a0116100bd5780633bbed4a0146101365780634e71d92d1461016b57806366d003ac14610173576100de565b8062728f76146100e3578063062f0429146100fd5780630f08025f14610105575b600080fd5b6100eb6101dd565b60408051918252519081900360200190f35b6100eb610201565b61010d610225565b6040805173ffffffffffffffffffffffffffffffffffffffff9092168252519081900360200190f35b6101696004803603602081101561014c57600080fd5b503573ffffffffffffffffffffffffffffffffffffffff16610249565b005b6100eb610316565b61010d610703565b6100eb61071f565b6100eb610725565b6100eb600480360360208110156101a157600080fd5b5035610749565b6100eb6107b2565b610169600480360360208110156101c657600080fd5b50356107b8565b6100eb6107bd565b6100eb6107e1565b7f000000000000000000000000000000000000000000000000000000000000000081565b7f000000000000000000000000000000000000000000000000000000000000000081565b7f000000000000000000000000000000000000000000000000000000000000000081565b60005473ffffffffffffffffffffffffffffffffffffffff1633146102cf57604080517f08c379a000000000000000000000000000000000000000000000000000000000815260206004820152601460248201527f5665737465723a20554e415554484f52495a4544000000000000000000000000604482015290519081900360640190fd5b600080547fffffffffffffffffffffffff00000000000000000000000000000000000000001673ffffffffffffffffffffffffffffffffffffffff92909216919091179055565b6000805473ffffffffffffffffffffffffffffffffffffffff16331461039d57604080517f08c379a000000000000000000000000000000000000000000000000000000000815260206004820152601460248201527f5665737465723a20554e415554484f52495a4544000000000000000000000000604482015290519081900360640190fd5b60006103a761071f565b90507f00000000000000000000000000000000000000000000000000000000000000008110156103db576000915050610700565b7f00000000000000000000000000000000000000000000000000000000000000008111156104c257604080517f70a08231000000000000000000000000000000000000000000000000000000008152306004820152905173ffffffffffffffffffffffffffffffffffffffff7f000000000000000000000000000000000000000000000000000000000000000016916370a08231916024808301926020929190829003018186803b15801561048f57600080fd5b505afa1580156104a3573d6000803e3d6000fd5b505050506040513d60208110156104b957600080fd5b5051915061062d565b600061055b6105567f00000000000000000000000000000000000000000000000000000000000000007f00000000000000000000000000000000000000000000000000000000000000000361054a670de0b6b3a76400007f000000000000000000000000000000000000000000000000000000000000000087036107e690919063ffffffff16565b9063ffffffff61086216565b610749565b90506105ce600a61054a60086105c27f000000000000000000000000000000000000000000000000000000000000000061054a60015488037f00000000000000000000000000000000000000000000000000000000000000006107e690919063ffffffff16565b9063ffffffff6107e616565b925060015460001480156105e0575080155b15610629576106266106197f0000000000000000000000000000000000000000000000000000000000000000600563ffffffff61086216565b849063ffffffff6108a416565b92505b6001555b81156106fe5760008054604080517fa9059cbb00000000000000000000000000000000000000000000000000000000815273ffffffffffffffffffffffffffffffffffffffff92831660048201526024810186905290517f00000000000000000000000000000000000000000000000000000000000000009092169263a9059cbb926044808401936020939083900390910190829087803b1580156106d157600080fd5b505af11580156106e5573d6000803e3d6000fd5b505050506040513d60208110156106fb57600080fd5b50505b505b90565b60005473ffffffffffffffffffffffffffffffffffffffff1681565b60025490565b7f000000000000000000000000000000000000000000000000000000000000000081565b6000670de0b6b3a7640000815b670de0b6b3a76400008110156107aa5780662386f26fc100000184101561078d57662386f26fc100009084039190910204016107ad565b918101916103e86103d08302049150662386f26fc1000001610756565b50505b919050565b60015481565b600255565b7f000000000000000000000000000000000000000000000000000000000000000081565b606481565b6000826107f55750600061085c565b8282028284828161080257fe5b0414610859576040517f08c379a00000000000000000000000000000000000000000000000000000000081526004018080602001828103825260218152602001806109d56021913960400191505060405180910390fd5b90505b92915050565b600061085983836040518060400160405280601a81526020017f536166654d6174683a206469766973696f6e206279207a65726f000000000000815250610918565b60008282018381101561085957604080517f08c379a000000000000000000000000000000000000000000000000000000000815260206004820152601b60248201527f536166654d6174683a206164646974696f6e206f766572666c6f770000000000604482015290519081900360640190fd5b600081836109be576040517f08c379a00000000000000000000000000000000000000000000000000000000081526004018080602001828103825283818151815260200191508051906020019080838360005b8381101561098357818101518382015260200161096b565b50505050905090810190601f1680156109b05780820380516001836020036101000a031916815260200191505b509250505060405180910390fd5b5060008385816109ca57fe5b049594505050505056fe536166654d6174683a206d756c7469706c69636174696f6e206f766572666c6f77a2646970667358221220f3d3b3020e4741fe57103e6d15684f1ffe7ad116e4e357ec183ed5caa3bc34ea64736f6c63430006060033",
  "immutableReferences": {
    "1943": [
      {
        "length": 32,
        "start": 551
      },
      {
        "length": 32,
        "start": 1097
      },
      {
        "length": 32,
        "start": 1670
      }
    ],
    "1948": [
      {
        "length": 32,
        "start": 479
      },
      {
        "length": 32,
        "start": 1429
      },
      {
        "length": 32,
        "start": 1517
      }
    ],
    "1951": [
      {
        "length": 32,
        "start": 939
      },
      {
        "length": 32,
        "start": 1228
      },
      {
        "length": 32,
        "start": 1307
      },
      {
        "length": 32,
        "start": 1983
      }
    ],
    "1954": [
      {
        "length": 32,
        "start": 989
      },
      {
        "length": 32,
        "start": 1261
      },
      {
        "length": 32,
        "start": 1831
      }
    ],
    "1958": [
      {
        "length": 32,
        "start": 515
      },
      {
        "length": 32,
        "start": 1388
      }
    ]
  },
  "source": "pragma solidity =0.6.6;\r\n\r\nimport \"../../contracts/VesterSale.sol\";\r\n\r\ncontract VesterSaleHarness is VesterSale {\r\n\t\r\n\tconstructor(\r\n\t\taddress imx_,\r\n\t\taddress recipient_,\r\n\t\tuint vestingAmount_,\r\n\t\tuint vestingBegin_,\r\n\t\tuint vestingEnd_\r\n\t) public VesterSale(imx_, recipient_, vestingAmount_, vestingBegin_, vestingEnd_) {}\r\n\t\r\n\t\r\n\tuint _blockTimestamp;\r\n\tfunction getBlockTimestamp() public virtual override view returns (uint) {\r\n\t\treturn _blockTimestamp;\r\n\t}\r\n\tfunction setBlockTimestamp(uint blockTimestamp) public {\r\n\t\t_blockTimestamp = blockTimestamp;\r\n\t}\r\n\t\r\n}",
  "sourcePath": "C:/Users/simor/Desktop/imx/contracts/test/VesterSaleHarness.sol",
  "compiler": {
    "name": "solc",
    "version": "0.6.6+commit.6c089d02.Emscripten.clang"
  },
  "schemaVersion": "3.3.2",
  "updatedAt": "2021-03-09T19:15:19.123Z",
  "devdoc": {
    "methods": {}
  },
  "userdoc": {
    "methods": {}
  }
}